:100000000C94DF120C9410130C9410130C94101316
:100010000C9410130C9410130C9410130C941013D4
:100020000C9410130C9410130C9410130C941013C4
:100030000C9410130C9410130C9410130C941013B4
:100040000C9410130C9410130C9410130C941013A4
:100050000C9410130C9410130C9410130C940A4A63
:100060000C9410130C94DE480C94B5480C941013A7
:100070000C9410130C9410130C9410130C94101374
:100080000C9410130C9410130C9410130C94101364
:100090000C9410130C9410130C9410130C94B8427D
:1000A0000C9410130C9410130C9410130C94101344
:1000B0000C9410130C9410130C9410130C94101334
:1000C0000C9410130C9410130C9410130C94101324
:1000D0000C9410130C9410130C9410130C94101314
:1000E0000C94101398309C308030843088308C30E1
:1000F0009030943098309C30E231A030E8305E454A
:100100006145504554455A459845654569456F4593
:10011000734577457D458145854598458B458F4598
:100120009345084AD73B3BCE016E84BCBFFDC12F2F
:100130003D6C74319ABD56833DDA3D00C77F11BED8
:10014000D9E4BB4C3E916BAAAABE000000803F05DB
:10015000A84CCDB2D44EB93836A9020C50B991860C
:1001600088083CA6AAAA2ABE000000803F000040E2
:100170007A10F35A00A0724E18090010A5D4E800B6
:1001800000E87648170000E40B54020000CA9A3BCE
:10019000000000E1F5050000809698000000404254
:1001A0000F000000A08601000000102700000000E2
:1001B000E803000000006400000000000A000000E6
:1001C00000000100000000002C76D888DC674F0892
:1001D00023DFC1DFAE59E1B1B796E5E3E453C63A98
:1001E000E651997696E8E6C28426EB898C9B62ED0F
:1001F000407C6FFCEFBC9C9F40F2BAA56FA5F490C9
:10020000055A2AF75C936B6CF9676DC11BFCE0E43F
:100210000D47FEF520E6B500D0ED902E0300943595
:1002200077050080841E080000204E0A000000C8E8
:100230000C333333330F986E12831141EF8D211439
:10024000893BE65516CFFEE6DB18D1844B381BF709
:100250007C1D901DA4BBE424203284725E228100A8
:10026000C9F124ECA1E53D2711007F96290001008A
:100270007F9628003A0155C0021010C10141C50403
:1002800000228040360168B00100B102B011B40113
:1002900002B60302023BB701C63A0155F704A95161
:1002A0002C82C0020D0DC1024300C20100C5040032
:1002B000480048B40100B60302023BE00F0F211CC6
:1002C0000B0E08499838091103141000E10F0F2F85
:1002D0002B0C0E06477637071104231E00B00100D1
:1002E000B30402000000B40100D003074218D10398
:1002F000000710D2020102D3020102D4020102C09F
:1003000005123B000211C103101088C50103C6018C
:1003100002C80C003236450616377577540C00CCEF
:100320000100F603010100CF03008130ED046403F6
:100330001281E803851078CB05392C003402F701CF
:1003400020EA020000B00100B102001BB40100C0AD
:100350000121C10111C5023F3CC701B5360148F278
:100360000100260101E00F0F26240B0E0954A846B8
:100370000C17090F0700E10F00191B0410072A478B
:100380003903060630380F360100B00100C10410F1
:10039000100202C006003500000102C50104D202AD
:1003A0000104CA0100EA0180B903FF83577F967FE9
:1003B00096B60125C0065050013C1E08B407024005
:1003C000002A2A0D787F01F20B1616030808080888
:1003D00010041616FD03110235B2050C0C00333360
:1003E000B70135BB012BC00104C20201FFC30111DB
:1003F000C40120C6010FD002A4A1E00ED000050E5A
:10040000150D3743470915121619E10ED000050DD9
:100410000C062D44400E1C1816193A01557F0AB0DF
:100420000103E2013FC00122E20100B00100C0016E
:100430000AB0010000000000000000000000000001
:1004400000000000FFFF0F00000400620800080821
:100450000003000C01030B5A0203060903031710E3
:100460000403002305030017060309630703090CAF
:1004700008030C10090332221000160011000101BC
:1004800012000000130001000001300301013702D7
:100490000301000D800200610201B0C1FFFF3200C4
:1004A00001000001020000010300301009000100FA
:1004B0000C000000900000800F00000010020000FF
:1004C0001102EF001202000013028F01000500006C
:1004D0000105000002055F000104010004040000A2
:1004E000FFFF320007000001FFFF320000020000A2
:1004F00001020000000000000000000000000000F9
:1005000000000100A4000100FFFF0A0060000027B6
:1005100008000808300014023100153732000406C4
:100520003300160E34001122350000153600078501
:10053000370007143800031439002000900015001C
:100540001000100411003702290046002A0046005E
:10055000070000001200890113000011FFFF960040
:100560001200B90101000001020000020300301076
:10057000090001000A0000000D0000000E0030001C
:10058000610001006A00000080000000810000009E
:1005900082005F009200000193000107FFFF5000FE
:1005A00007000001E500F0780100000102000002F0
:1005B00003003010040000000500000008000702DE
:1005C000090000000A0000000C0000000D000000FF
:1005D0000F000000100000001100070012000000D2
:1005E0001300000007000100FFFFC8001000901674
:1005F00011002702FFFF320012000D00FFFF320042
:100600001300001229000A002B000D00FFFF32002A
:100610002000000021000000300000003100040430
:1006200032000300350005043600080837000704CF
:1006300038000303390007073C0004053D000808A3
:1006400060000027610001006A00000080000000D7
:100650008100000082000000830000008400000090
:100660008500000090001000920000000700330198
:10067000E500008000000100010000010200000709
:10068000030030100400000008000202090000000E
:100690000A0000000C0000000D0000000F00000028
:1006A00010000000110007001200000013000000FD
:1006B000FFFF32001000B01711000700FFFF0A0013
:1006C00012003A01FFFF0A001300001A29000C0073
:1006D000FFFF0A0030000000310005053200040071
:1006E0003500060036000707370005013800020014
:1006F000390007073C0004073D000708600000A719
:10070000610001006A0000002100000020000000DC
:1007100080000000810000008200000083000000D3
:10072000840000008500000090001000920000008E
:10073000930003009500100197000000980000004E
:1007400007007301FFFF3200FF000100F300080003
:10075000000001000100000102000007030030104A
:10076000080002030900000010000000110007004B
:100770001200000013000000FFFF32001000B01450
:10078000FFFF0A0011000700FFFF0A0012008E00A1
:100790001300000C29001500FFFF0A0030000000C4
:1007A0003100070132000000350003023600020468
:1007B0003700000038000702390000003C00030247
:1007C0003D000304600000A76100010090002900C3
:1007D00007003301FFFF3200150030009A001000BF
:1007E00011002000100028341200020013003810FD
:1007F000FFFF280012001200FFFF28001000203425
:1008000013004530FFFF46003000000031000204B5
:1008100032000703330004033400040035000104F0
:1008200036000707370005033800100639001006A8
:100830000100000102000003030030100800080856
:100840000A000800600000276100010090003E01DE
:100850009200000193000001A0000030A3001000EE
:1008600007000100070021000700230007003300F4
:100870000700330111001A001200213113006C002F
:100880001400494210000008FFFF0A0011001A017D
:10089000FFFF0A0011001A03FFFF0A0011001A07E8
:1008A000FFFF0A0011001A0FFFFF0A0011003A0FA4
:1008B000FFFF1E00010028010200000103003010AC
:1008C00007001210080003030B0000110C000000C9
:1008D0000F0001181500200050000101510003060F
:1008E0005200080453000000540005065500060499
:1008F000560003035700030358001000590000106E
:1009000007001200FFFF2800070013000700170070
:100910005820592073697A6520000000000000000B
:1009200000000000000000000000000000000000C7
:1009300000000000000000000000000000000000B7
:1009400000000000000000000000000000000000A7
:100950000000000000000000000000000000000097
:100960000000000000000000000000000000000087
:100970000000000000000000000000000000000077
:100980000000000000000000000000000000000067
:1009900000000000000000003F013F0100000000D7
:1009A0000000000000000000000000000000000047
:1009B0000000000000000000000000000000000037
:1009C0000000000000000000000000000000000027
:1009D0000000000000000000000000000000000017
:1009E0000000000000003F013F013F013F01000007
:1009F00000000000000000000000000000000000F7
:100A000000000000000000000000000000000000E6
:100A100000000000000000000000000000000000D6
:100A200000000000000000000000000000000000C6
:100A3000000000000000FF0700F800F83F01000080
:100A400000000000000000000000000000000000A6
:100A50000000000000000000000000000000000096
:100A60000000000000000000000000000000000086
:100A70000000000000000000000000000000000076
:100A800000000000FF07FF0700F800F83F0100002A
:100A90000000000000000000000000000000000056
:100AA0000000000000000000000000000000000046
:100AB0000000000000000000000000000000000036
:100AC0000000000000000000000000000000000026
:100AD0000000FF07FF07FF0700F800F800F800001C
:100AE0000000000000000000000000000000000006
:100AF00000000000000000000000000000000000F6
:100B000000000000000000000000000000000000E5
:100B100000000000000000000000000000000000D5
:100B2000FF07FF07FF070000000000F800F80000C3
:100B300000000000000000000000000000000000B5
:100B400000000000000000000000000000000000A5
:100B50000000000000000000000000000000000095
:100B60000000000000000000000000000000FF077F
:100B7000FF07FF07000000000000000000F800F879
:100B80000000000000000000000000000000000065
:100B90000000000000000000000000000000000055
:100BA0000000000000000000000000000000000045
:100BB000000000000000000000000000FF07FF0729
:100BC000FF070000000000000000000000F800F82F
:100BD0000000000000000000000000000000000015
:100BE0000000000000000000000000000000000005
:100BF00000000000000000000000000000000000F5
:100C000000000000000000000000FF07FF07FF07D2
:100C1000000000000000000000000000000000F8DC
:100C200000F80000000000000000000000000000CC
:100C300000000000000000000000000000000000B4
:100C400000000000000000000000000000000000A4
:100C50000000000000000000FF07FF07FF07000082
:100C6000000000000000000000000000000000F88C
:100C700000F800000000000000000000000000007C
:100C80000000000000000000000000000000000064
:100C90000000000000000000000000000000000054
:100CA000000000000000FF07FF07FF070000000032
:100CB0000000000000000000000000000000000034
:100CC00000F800F800000000000000000000000034
:100CD0000000000000000000000000000000000014
:100CE0000000000000000000000000000000000004
:100CF00000000000FF07FF07FF07000000000000E2
:100D000000000000000000000000000000000000E3
:100D100000F800F800F800000000000000000000EB
:100D200000000000000000000000000000000000C3
:100D300000000000000000000000000000000000B3
:100D40000000FF07FF07FF07000000000000000091
:100D50000000000000000000000000000000000093
:100D6000000000F800F80000000000000000000093
:100D70000000000000000000000000000000000073
:100D80000000000000000000000000000000000063
:100D9000FF07FF07FF070000000000000000000041
:100DA0000000000000000000000000000000000043
:100DB000000000F800F800F800000000000000004B
:100DC0000000000000000000000000000000000023
:100DD0000000000000000000000000000000FF070D
:100DE000FF07FF07000000000000000000000000F7
:100DF00000000000000000000000000000000000F3
:100E00000000000000F800F80000000000000000F2
:100E100000000000000000000000000000000000D2
:100E2000000000000000000000000000FF07FF07B6
:100E3000FF070000000000000000000000000000AC
:100E400000000000000000000000000000000000A2
:100E50000000000000F800F800F8000000000000AA
:100E60000000000000000000000000000000000082
:100E700000000000000000000000FF07FF07FF0760
:100E80000000000000000000000000000000000062
:100E90000000000000000000000000000000000052
:100EA00000000000000000F800F800000000000052
:100EB0000000000000000000000000000000000032
:100EC0000000000000000000FF07FF07FF07000010
:100ED0000000000000000000000000000000000012
:100EE0000000000000000000000000000000000002
:100EF000000000000000000000F800F80000000002
:100F000000000000000000000000000000000000E1
:100F1000000000000000FF07FF07FF0700000000BF
:100F200000000000000000000000000000000000C1
:100F300000000000000000000000000000000000B1
:100F4000000000000000000000F800F800000000B1
:100F50000000000000000000000000000000000091
:100F600000000000FF07FF07FF070000000000006F
:100F70000000000000000000000000000000000071
:100F80000000000000000000000000000000000061
:100F90000000000000000000000000F800F8000061
:100FA0000000000000000000000000000000000041
:100FB0000000FF07FF07FF0700000000000000001F
:100FC0000000000000000000000000000000000021
:100FD0000000000000000000000000000000000011
:100FE0000000000000000000000000F800F8000011
:100FF00000000000000000000000000000000000F1
:10100000FF07FF07FF0700000000000000000000CE
:1010100000000000000000000000000000000000D0
:1010200000000000000000000000000000000000C0
:1010300000000000000000000000000000F800F8C0
:101040000000000000000000000000000000FF079A
:10105000FF07FF0700000000000000000000000084
:101060000000000000000000000000000000000080
:101070000000000000000000000000000000000070
:1010800000000000000000000000000000F800F870
:10109000000000000000000000000000FF07FF0744
:1010A000FF0700000000000000000000000000003A
:1010B0000000000000000000000000000000000030
:1010C0000000000000000000000000000000000020
:1010D000000000000000000000000000000000F818
:1010E00000F80000000000000000FF07FF07FF07F6
:1010F00000000000000000000000000000000000F0
:1011000000000000000000000000000000000000DF
:1011100000000000000000000000000000000000CF
:10112000000000000000000000000000000000F8C7
:1011300000F800F83F0100000000FF07FF07FF076D
:10114000FF07FF07FF07FF07FF07FF07FF07FF076F
:10115000FF07FF07FF07FF07FF07FF07FF07FF075F
:10116000FF07FF07FF07FF07FF07FF07FF07FF074F
:10117000FF07FF07FF07FF07FF07FF07FF07FF073F
:1011800000F800F83F013F010000FF07FF07FF07DD
:10119000FF07FF07FF07FF07FF07FF07FF07FF071F
:1011A000FF07FF07FF07FF07FF07FF07FF07FF070F
:1011B000FF07FF07FF07FF07FF07FF07FF07FF07FF
:1011C000FF07FF07FF07FF07FF07FF07FF07FF07EF
:1011D00000F800F800F83F010000000000000000E7
:1011E00000000000000000000000000000000000FF
:1011F00000000000000000000000000000000000EF
:1012000000000000000000000000000000000000DE
:1012100000000000000000000000000000000000CE
:1012200000003F013F01000000000000000000003E
:1012300000000000000000000000000000000000AE
:10124000000000000000000000000000000000009E
:10125000000000000000000000000000000000008E
:10126000000000000000000000000000000000007E
:10127000000000000000000000000000000000006E
:10128000000000000000000000000000000000005E
:10129000000000000000000000000000000000004E
:1012A000000000000000000000000000000000003E
:1012B000000000000000000000000000000000002E
:1012C000000000000000000000000000000000001E
:1012D000000000000000000000000000000000000E
:1012E00000000000000000000000000000000000FE
:1012F00000000000000000003F013F01000000006E
:1013000000000000000000000000000000000000DD
:1013100000000000000000000000000000000000CD
:1013200000000000000000000000000000000000BD
:1013300000000000000000000000000000000000AD
:101340000000000000003F013F013F013F0100009D
:10135000000000000000000000000000000000008D
:10136000000000000000000000000000000000007D
:10137000000000000000000000000000000000006D
:10138000000000000000000000000000000000005D
:10139000000000000000FF0700F800F83F01000017
:1013A000000000000000000000000000000000003D
:1013B000000000000000000000000000000000002D
:1013C000000000000000000000000000000000001D
:1013D000000000000000000000000000000000000D
:1013E00000000000FF07FF0700F800F83F010000C1
:1013F00000000000000000000000000000000000ED
:1014000000000000000000000000000000000000DC
:1014100000000000000000000000000000000000CC
:1014200000000000000000000000000000000000BC
:101430000000FF07FF07FF0700F800F800000000AA
:10144000000000000000000000000000000000009C
:10145000000000000000000000000000000000008C
:10146000000000000000000000000000000000007C
:10147000000000000000000000000000000000006C
:10148000FF07FF07FF07000000F800F8000000005A
:10149000000000000000000000000000000000004C
:1014A000000000000000000000000000000000003C
:1014B000000000000000000000000000000000002C
:1014C0000000000000000000000000000000FF0716
:1014D000FF07FF070000000000F800F80000000010
:1014E00000000000000000000000000000000000FC
:1014F00000000000000000000000000000000000EC
:1015000000000000000000000000000000000000DB
:10151000000000000000000000000000FF07FF07BF
:10152000FF0700000000000000F800F800000000C5
:1015300000000000000000000000000000000000AB
:10154000000000000000000000000000000000009B
:10155000000000000000000000000000000000008B
:1015600000000000000000000000FF07FF07FF0769
:10157000000000000000000000F800F8000000007B
:10158000000000000000000000000000000000005B
:10159000000000000000000000000000000000004B
:1015A000000000000000000000000000000000003B
:1015B0000000000000000000FF07FF07FF07000019
:1015C000000000000000000000F800F8000000002B
:1015D000000000000000000000000000000000000B
:1015E00000000000000000000000000000000000FB
:1015F00000000000000000000000000000000000EB
:10160000000000000000FF07FF07FF0700000000C8
:10161000000000000000000000F800F800000000DA
:1016200000000000000000000000000000000000BA
:1016300000000000000000000000000000000000AA
:10164000000000000000000000000000000000009A
:1016500000000000FF07FF07FF0700000000000078
:10166000000000000000000000F800F8000000008A
:10167000000000000000000000000000000000006A
:10168000000000000000000000000000000000005A
:10169000000000000000000000000000000000004A
:1016A0000000FF07FF07FF07000000000000000028
:1016B000000000000000000000F800F8000000003A
:1016C000000000000000000000000000000000001A
:1016D000000000000000000000000000000000000A
:1016E00000000000000000000000000000000000FA
:1016F000FF07FF07FF0700000000000000000000D8
:10170000000000000000000000F800F800000000E9
:1017100000000000000000000000000000000000C9
:1017200000000000000000000000000000000000B9
:101730000000000000000000000000000000FF07A3
:10174000FF07FF070000000000000000000000008D
:10175000000000000000000000F800F80000000099
:101760000000000000000000000000000000000079
:101770000000000000000000000000000000000069
:10178000000000000000000000000000FF07FF074D
:10179000FF07000000000000000000000000000043
:1017A000000000000000000000F800F80000000049
:1017B0000000000000000000000000000000000029
:1017C0000000000000000000000000000000000019
:1017D00000000000000000000000FF07FF07FF07F7
:1017E00000000000000000000000000000000000F9
:1017F000000000000000000000F800F800000000F9
:1018000000000000000000000000000000000000D8
:1018100000000000000000000000000000000000C8
:101820000000000000000000FF07FF07FF070000A6
:1018300000000000000000000000000000000000A8
:10184000000000000000000000F800F800000000A8
:101850000000000000000000000000000000000088
:101860000000000000000000000000000000000078
:10187000000000000000FF07FF07FF070000000056
:101880000000000000000000000000000000000058
:10189000000000000000000000F800F80000000058
:1018A0000000000000000000000000000000000038
:1018B0000000000000000000000000000000000028
:1018C00000000000FF07FF07FF0700000000000006
:1018D0000000000000000000000000000000000008
:1018E000000000000000000000F800F80000000008
:1018F00000000000000000000000000000000000E8
:1019000000000000000000000000000000000000D7
:101910000000FF07FF07FF070000000000000000B5
:1019200000000000000000000000000000000000B7
:10193000000000000000000000F800F800000000B7
:101940000000000000000000000000000000000097
:101950000000000000000000000000000000000087
:10196000FF07FF07FF070000000000000000000065
:101970000000000000000000000000000000000067
:10198000000000000000000000F800F80000000067
:101990000000000000000000000000000000000047
:1019A0000000000000000000000000000000FF0731
:1019B000FF07FF070000000000000000000000001B
:1019C0000000000000000000000000000000000017
:1019D000000000000000000000F800F80000000017
:1019E00000000000000000000000000000000000F7
:1019F000000000000000000000000000FF07FF07DB
:101A0000FF070000000000000000000000000000D0
:101A100000000000000000000000000000000000C6
:101A2000000000000000000000F800F800000000C6
:101A300000000000000000000000000000000000A6
:101A400000000000000000000000FF07FF07FF0784
:101A50000000000000000000000000000000000086
:101A60000000000000000000000000000000000076
:101A7000000000000000000000F800F80000000076
:101A80000000000000000000000000000000000056
:101A900000003F013F0100000000FF07FF07FF07B4
:101AA000FF07FF07FF07FF07FF07FF07FF07FF0706
:101AB000FF07FF07FF07FF07FF07FF07FF07FF07F6
:101AC000FF07FF07FF07FF07FF07FF07FF07FF07E6
:101AD000FF07FF07FF07FF07FF07FF07FF07FF07D6
:101AE000FF07FF073F013F010000FF07FF07FF0758
:101AF000FF07FF07FF07FF07FF07FF07FF07FF07B6
:101B0000FF07FF07FF07FF07FF07FF07FF07FF07A5
:101B1000FF07FF07FF07FF07FF07FF07FF07FF0795
:101B2000FF07FF07FF07FF07FF07FF07FF07FF0785
:101B3000FF07FF073F013F01000000000000000019
:101B40000000000000000000000000000000000095
:101B50000000000000000000000000000000000085
:101B60000000000000000000000000000000000075
:101B70000000000000000000000000000000000065
:101B800000003F013F0100000000000000000000D5
:101B90000000000000000000000000000000000045
:101BA0000000000000000000000000000000000035
:101BB0000000000000000000000000000000000025
:101BC0000000000000000000000000000000000015
:101BD0000000000000000000000000000000000005
:101BE00000000000000000000000000000000000F5
:101BF00000000000000000000000000000000007DE
:101C0000F000000000001FFC00000000007FFF004B
:101C100000000000FFFF8000000001FFFFC0000087
:101C20000003FFFFE000000003FFFFE000000007EB
:101C3000FFFFF000000007FFFFF00000000FFFFFB4
:101C4000F80000000FFFFFF80000000FFFFFF80092
:101C500000000FFFFFF80000000FFFFFF80000007A
:101C60000FFFFFF80000000FFFFFF800000007FF64
:101C7000FFF000000007FFFFF000000003FFFFE09F
:101C800000000003FFFFE000000001FFFFC00000B4
:101C90000000FFFF80000000007FFF000000000048
:101CA0001FFC00000007FFFFFFFFF80007FFFFFF1A
:101CB000FFF80007FFFFFFFFF80007FFFFFFFFF837
:101CC0000007FFFFFFFFF80007FFFFFFFFF8000717
:101CD000FFFFFFFFF80007FFFFFFFFF80007FFFF10
:101CE000FFFFF80007FFFFFFFFF80007FFFFFFFF00
:101CF000F80007FFFFFFFFF80007FFFFFFFFF800F6
:101D000007FFFFFFFFF80007FFFFFFFFF80007FFD7
:101D1000FFFFFFF80007FFFFFFFFF80007FFFFFFCF
:101D2000FFF80007FFFFFFFFF80007FFFFFFFFF8C6
:101D30000007FFFFFFFFF80007FFFFFFFFF80007A6
:101D4000FFFFFFFFF80007FFFFFFFFF80007FFFF9F
:101D5000FFFFF80007FFFFFFFFF80007FFFFFFFF8F
:101D6000F80007FFFFFFFFF80007FFFFFFFFF80085
:101D700007FFFFFFFFF80007FFFFFFFFF80007FF67
:101D8000FFFFFFF80007FFFFFFFFF80007FFFFFF5F
:101D9000FFF80007FFFFFFFFF80007FFFFFFFFF856
:101DA0000007FFFFFFFFF80007FFFFFFFFF8000736
:101DB000FFFFFFFFF80007FFFFFFFFF80007FFFF2F
:101DC000FFFFF80007FFFFFFFFF80007FFFFFFFF1F
:101DD000F80007FFFFFFFFF80007FFFFFFFFF80015
:101DE00007FFFFFFFFF800000000000000000000F8
:101DF00000000000000000000000000000000000E3
:101E000000000000000000000000003FE00000FFB4
:101E1000F80001FFFC0003FFFE0007FFFF0007FFC3
:101E2000FF000FFFFF800FFFFF800FFFFF800FFFFE
:101E3000FF800FFFFF800FFFFF800FFFFF800FFF6E
:101E4000FF800FFFFF8007FFFF0007FFFF0003FF7A
:101E5000FE0001FFFC0000FFF8007FFFFFF8FFFF1E
:101E6000FFFCFFFFFFFCFFFFFFFCFFFFFFFCFFFF8E
:101E7000FFFCFFFFFFFCFFFFFFFCFFFFFFFCFFFF7E
:101E8000FFFCFFFFFFFCFFFFFFFCFFFFFFFCFFFF6E
:101E9000FFFCFFFFFFFCFFFFFFFCFFFFFFFCFFFF5E
:101EA000FFFCFFFFFFFCFFFFFFFCFFFFFFFCFFFF4E
:101EB000FFFCFFFFFFFCFFFFFFFCFFFFFFFCFFFF3E
:101EC000FFFCFFFFFFFCFFFFFFFCFFFFFFFCFFFF2E
:101ED000FFFC0000FF0000000FFFF000001FF0F803
:101EE00000007FF01E0000FFF0070003FFF001C0BC
:101EF00007FFF000E007FFF000600FFFF000301F69
:101F0000FFF000181FFFF000183FFFF0000C7FFFEC
:101F1000F0000E7FFFF000067FFFF000067FFFF06D
:101F20000006FFFFF00003FFFFF00003FFFFF000DB
:101F300003FFFFF00003FFFFFFFFFFC0001FFFFFD5
:101F4000C0001FFFFFC0001FFFFF60001FFFFE60FB
:101F5000001FFFFE60001FFFFE70001FFFFE30002D
:101F60001FFFFC38001FFFF818001FFFF80C001FB0
:101F7000FFF006001FFFE007001FFFE003801FFFC8
:101F8000C000E01FFF0000781FFE00001F1FF800C8
:101F9000000FFFF0000000FF000000000000003E06
:101FA0005B4F5B3E3E6B4F6B3E1C3E7C3E1C183CC9
:101FB0007E3C181C577D571C1C5E7F5E1C00183C25
:101FC0001800FFE7C3E7FF0018241800FFE7DBE76E
:101FD000FF30483A060E2629792926407F05050755
:101FE000407F05253F5A3CE73C5A7F3E1C1C0808B1
:101FF0001C1C3E7F14227F22145F5F005F5F060976
:102000007F017F006689956A606060606094A2FFCE
:10201000A29408047E040810207E201008082A1CC0
:1020200008081C2A08081E101010100C1E0C1E0C8C
:1020300030383E3830060E3E0E060000000000002C
:10204000005F00000007000700147F147F14242A9B
:102050007F2A12231308646236495620500008076D
:102060000300001C2241000041221C002A1C7F1C8E
:102070002A08083E08080080703000080808080890
:10208000000060600020100804023E5149453E00F7
:10209000427F400072494949462141494D33181455
:1020A000127F1027454545393C4A494931412111A4
:1020B00009073649494936464949291E0000140096
:1020C00000004034000000081422411414141414B9
:1020D000004122140802015909063E415D594E7C17
:1020E0001211127C7F494949363E414141227F41CC
:1020F00041413E7F494949417F090909013E41412A
:1021000051737F0808087F00417F41002040413F14
:10211000017F081422417F404040407F021C027F23
:102120007F0408107F3E4141413E7F090909063E78
:102130004151215E7F091929462649494932030147
:102140007F01033F4040403F1F2040201F3F403859
:10215000403F631408146303047804036159494D34
:1021600043007F4141410204081020004141417F6A
:1021700004020102044040404040000307080020E0
:10218000545478407F2844443838444444283844E0
:1021900044287F385454541800087E090218A4A417
:1021A0009C787F0804047800447D40002040403D36
:1021B000007F1028440000417F40007C04780478B0
:1021C0007C080404783844444438FC182424181843
:1021D000242418FC7C08040408485454542404049F
:1021E0003F44243C4040207C1C2040201C3C40308C
:1021F000403C44281028444C9090907C4464544CBB
:102200004400083641000000770000004136080015
:1022100002010204023C2623263C1EA1A161123ABF
:102220004040207A3854545559215555794122540B
:10223000547842215554784020545579400C1E5210
:1022400072123955555559395454545939555454B5
:10225000580000457C410002457D420001457C401C
:102260007D1211127DF0282528F07C545545002060
:1022700054547C547C0A097F4932494949323A44D2
:1022800044443A324A4848303A4141217A3A42403D
:102290002078009DA0A07D3D4242423D3D4040400F
:1022A0003D3C24FF2424487E4943662B2FFC2F2BE2
:1022B000FF0929F620C0887E090320545479410083
:1022C00000447D413048484A32384040227A007A02
:1022D0000A0A727D0D19317D2629292F28262929E0
:1022E000292630484D402038080808080808080802
:1022F000382F10C8ACBA2F102834FA00007B000029
:1023000008142A142222142A14085500550055AA2C
:1023100055AA55AAFF55FF55FF000000FF001010F9
:1023200010FF00141414FF001010FF00FF1010F035
:1023300010F0141414FC001414F700FF0000FF0048
:10234000FF1414F404FC141417101F10101F101F96
:102350001414141F00101010F0000000001F1010C3
:1023600010101F10101010F010000000FF101010BF
:10237000101010101010FF10000000FF140000FFDC
:1023800000FF00001F10170000FC04F414141710C5
:10239000171414F404F40000FF00F71414141414B8
:1023A0001414F700F7141414171410101F101F142E
:1023B0001414F4141010F010F000001F101F00008F
:1023C000001F14000000FC140000F010F01010FFBB
:1023D00010FF141414FF141010101F00000000F060
:1023E00010FFFFFFFFFFF0F0F0F0F0FFFFFF000035
:1023F000000000FFFF0F0F0F0F0F3844443844FC5C
:102400004A4A4A347E02020606027E027E02635572
:102410004941633844443C04407E201E2006027E2D
:10242000020299A5E7A5991C2A492A1C4C7201723F
:102430004C304A4D4D303048784830BC625A463DA9
:102440003E494949007E0101017E2A2A2A2A2A445E
:10245000445F444440514A444040444A5140000093
:10246000FF0103E080FF000008086B6B083612369E
:102470002436060F090F060000181800000010107F
:10248000003040FF0101001F01011E00191D17123D
:10249000003C3C3C3C000000000000002100240007
:1024A00027002A002D003000330001010000040144
:1024B00007010A01000020002300260029002C004B
:1024C0002F00320000010000030106010901000095
:1024D0000A0B02090C0D0E0807030401000000009E
:1024E00000000000000000000000000000000000EC
:1024F00000000000000000000000121110000000A9
:1025000000000000000000000000000000000000CB
:102510000000000000002200250028002B002E00F3
:102520003100340002010000050108010B01010225
:1025300010202008081020401020408002010201D5
:10254000080402010102040810204080804020108D
:1025500008040201800402018040201008040201E6
:10256000080402010102040810204080010204084E
:102570001020408005050505070508080808020227
:1025800002020A0A0808040404040101010101010D
:1025900001010303030303030303040707070C0CF0
:1025A0000C0C0C0C0C0C02020202060606060606B7
:1025B00006060B0B0B0B0B0B0B0B22896D8A1124E0
:1025C0001FBECFEFD1E2DEBFCDBF00E00CBF18E0F1
:1025D000A0E0B2E0ECEEF6E201E00BBF02C0079033
:1025E0000D92A638B107D9F72CE0A6E8B8E001C0F3
:1025F0001D92A03EB207E1F712E1CEEDD2E100E07C
:1026000006C021970109802FFE010E941B91CD3D3C
:10261000D10780E00807A9F70E940C6C0C94659321
:102620000C9400002F923F924F925F926F927F9294
:102630008F929F92AF92BF92CF92DF92EF92FF92D2
:102640000F931F93CF93DF93CDB7DEB7C858D14018
:102650000FB6F894DEBF0FBECDBF9E012F553F4F82
:10266000C55ADE4F39832883CB55D1408E010F5A8E
:102670001F4FC8010E94B629005F1F4FC55ADE4F89
:1026800048815981CB55D1400417150791F7C09067
:102690005209D0905309E0905409F09055092DEC5F
:1026A0003CEC4CEC5DE3C701B6010E94A38D0E9497
:1026B000F98FC758DE4F79836883C957D14025E821
:1026C0003BEE41E15FE3C701B6010E94A38D0E948A
:1026D000F98FC558DE4F79836883CB57D140C090BE
:1026E0004E09D0904F09E0905009F09051092DEC1F
:1026F0003CEC4CE45EE3C701B6010E94A38D0E944E
:10270000F98FCF57DE4F79836883C158D140072EA8
:10271000000C880B990B0E94448D4B015C012FE843
:1027200032EC45E75DE3C701B6010E94A38D9B0132
:10273000AC01C501B4010E94CB8E0E94F98FC9582B
:10274000DE4F79836883C757D140EE24E394F12CA0
:10275000FA82E9824CE3C42E47EED42EDC82CB828F
:102760006CEA73E0CE0105960E94D7460FEF1FEF8B
:102770001C870B872AE037ED43EA5EE3609152093C
:102780007091530980915409909155090E94A38D2D
:102790000E94F98F7E876D8726E636E646E25FE384
:1027A00060914E0970914F098091500990915109A3
:1027B0000E94A38D0E94F98F788B6F87BE016F5F97
:1027C0007F4FCE018F5A9F4F0E943956CE010596FA
:1027D0000E945F4652E0A52EB12CBA82A982DC820B
:1027E000CB826AE174E0CE0105960E94D7461C8731
:1027F0000B87FE86ED8626E636E646E25FE36091CD
:102800004E0970914F0980915009909151090E9491
:10281000A38D0E94F98F788B6F87BE016F5F7F4F0A
:1028200081E590E08C0F9D1F40960E943956CE01A5
:1028300005960E945F4683E090E09A83898380E05A
:1028400098EF9C838B836BEB73E0CE0105960E941F
:10285000D7461C870B87FE86ED8621EE3AE744E5D6
:102860005FE360914E0970914F09809150099091FA
:1028700051090E94A38D20E030E040E751E40E941E
:10288000CB8E0E94F98F788B6F87BE016F5F7F4F71
:1028900081E590E08C0F9D1F80960E943956CE01F5
:1028A00005960E945F46FA82E98280EE97E09C835B
:1028B0008B836FEC73E0CE0105960E94D7461C8790
:1028C0000B872AE037ED43EA5EE36091520970918D
:1028D000530980915409909155090E94A38D0E943B
:1028E000F98F7E876D8721EE3AE744E55FE36091DB
:1028F0004E0970914F0980915009909151090E94A1
:10290000A38D0E94F98F788B6F87BE016F5F7F4F19
:1029100081E590E08C0F9D1FC0960E943956CE0134
:1029200005960E945F46BA82A982DC82CB8263E26E
:1029300074E0CE0105960E94D7461C870B8720E0E5
:1029400030E040E45FE36091520970915309809157
:102950005409909155090E94A38D0E94F98F7E879A
:102960006D8721EE3AE744E55FE360914E0970918F
:102970004F0980915009909151090E94A38D0E94A6
:10298000F98F788B6F87BE016F5F7F4FCE018F56B7
:102990009F4F0E943956CE0105960E945F46809156
:1029A000A209811117C010929E0910929F091092DE
:1029B000A0091092A10981E39CE0A3ECBDE3809300
:1029C0009A0990939B09A0939C09B0939D0981E07B
:1029D0008093A20980919209811117C010928E09EB
:1029E00010928F09109290091092910981E39CE056
:1029F000A3ECBDE380938A0990938B09A0938C0983
:102A0000B0938D0981E0809392090E94FE49C358DA
:102A1000DE4F688379838A839B83CD57D14088ECCE
:102A20009BE00E94F0568BEB9BE00E94F056332413
:102A30003394CE010196C15ADE4F99838883CF55D6
:102A4000D14021EA30E02C0F3D1F2C5F3F4FCF5982
:102A5000DE4F39832883C156D1404DE251E04C0FFF
:102A60005D1F4C5F5F4FC959DE4F59834883C7567E
:102A7000D14088EC9BE00E94D3569B01AC01809032
:102A80009E0990909F09A090A009B090A109C5014E
:102A9000B4010E94CA8E20919A0930919B094091FD
:102AA0009C0950919D090E94A38D9B01AC01C50119
:102AB000B4010E94CA8E60939E0970939F0980930F
:102AC000A0099093A1098BEB9BE00E94D3569B0138
:102AD000AC0180908E0990908F09A0909009B090E1
:102AE0009109C501B4010E94CA8E20918A093091D2
:102AF0008B0940918C0950918D090E94A38D9B01F7
:102B0000AC01C501B4010E94CA8E4B015C01609307
:102B10008E0970938F09809390099093910940904A
:102B20009E0950909F096090A0097090A10920E033
:102B300030E0A901C301B2010E944F9020E030E0D3
:102B400040E05FE387FD05C0C301B2010E94CB8E68
:102B500004C0C301B2010E94CA8E0E94F98F0E9474
:102B6000448D6B017C0120E030E0A901C501B40176
:102B70000E944F9020E030E040E05FE387FD05C019
:102B8000C501B4010E94CB8E04C0C501B4010E94EE
:102B9000CA8E0E94F98F0E94448D2B013C019B013B
:102BA000AC01C701B6010E94CB8E4B015C010091C4
:102BB000B6081091B708B801012E000C880B990BCC
:102BC0000E94448D9B01AC01C701B6010E94A38DF8
:102BD0006B017C016091B4087091B508600F711FA2
:102BE000072E000C880B990B0E94448D9B01AC01B1
:102BF000C301B2010E94A38D9B01AC01C701B601C4
:102C00000E94CB8EA50194010E94918F2B013C0163
:102C10002091040230910502409106025091070272
:102C20000E94A38D8E010F501F4F20E043E00E94B1
:102C30007D8A209100023091010240910202509160
:102C40000302C501B4010E94A38D0451110920E0C3
:102C500044E00E947D8A332009F416C160E070E0F0
:102C600085ED9BE00E944A290C581109B801CE015C
:102C700001960E948F29CE0101960E94EE29CE0175
:102C800005960E945F46005F1F4FC55ADE4F888140
:102C90009981CB55D1400817190741F72AE037ED44
:102CA00043E25DE360914E0970914F0980915009B4
:102CB000909151090E94A38D0E94F98FCD59DE4F4A
:102CC000688379838A839B83C356D1402CEE31E598
:102CD00048E35EE360915209709153098091540971
:102CE000909155090E94A38D0E94F98FDC01CB01C0
:102CF000EE24EA94FE2C08E210E028E230E042EDF7
:102D00005EE1CD59DE4F68817981C356D1400E9482
:102D100001572AE037ED43EA5CE360914E09709178
:102D20004F0980915009909151090E94A38D0E94F2
:102D3000F98FCD59DE4F688379838A839B83C3568D
:102D4000D14023E333E343E35FE3609152097091A1
:102D5000530980915409909155090E94A38D0E94B6
:102D6000F98FDC01CB012CE3E22E27EEF22E02E3F9
:102D700010E02EE130E04AE05EE1CD59DE4F68819F
:102D80007981C356D1400E9401578FEF9FEF9093F6
:102D9000E80B8093E70B9093E60B8093E50B81E0C3
:102DA0008093E90B8093EA0BC758DE4F2881398165
:102DB000C957D140B901330F880B990B0E94448D3C
:102DC0006B017C012DEC3CEC4CEC5DE36091520915
:102DD0007091530980915409909155090E94A38DD7
:102DE0009B01AC01C701B6010E94CB8E0E94F98FF6
:102DF0007093E20B6093E10BCF57DE4F488159810E
:102E0000C158D1405093E40B4093E30B66E17CE062
:102E100085ED9BE00E943B48C558DE4F28813981F3
:102E2000CB57D140B901330F880B990B0E94448DC9
:102E30006B017C012AE939E949E15EE360915209BD
:102E40007091530980915409909155090E94A38D66
:102E50009B01AC01C701B6010E94CB8E0E94F98F85
:102E60007093E20B6093E10BCF57DE4F488159819D
:102E7000C158D1405093E40B4093E30B6AE07CE0EF
:102E800085ED9BE00E943B480E94FE49DC01CB019E
:102E9000C358DE4F288139814A815B81CD57D140AB
:102EA000821B930BA40BB50B88379540A105B10588
:102EB00008F4B5C01092E80B1092E70B1092E60BE5
:102EC0001092E50B05E00093E90B0093EA0BC7585D
:102ED000DE4F48815981C957D1405093E20B40934E
:102EE000E10BC958DE4F88819981C757D140909333
:102EF000E40B8093E30BBE01675E7E4F85ED9BE0A4
:102F00000E94A24814E01093E90B1093EA0BC558F5
:102F1000DE4F28813981CB57D1403093E20B20938B
:102F2000E10BC958DE4F48815981C757D1405093B2
:102F3000E40B4093E30BBE016B5F7E4F85ED9BE09E
:102F40000E94A2488FEF9FEF9093E80B8093E70BCE
:102F50009093E60B8093E50B0093E90B0093EA0B4B
:102F6000C758DE4F88819981C957D1409093E20BB1
:102F70008093E10BC958DE4F28813981C757D14072
:102F80003093E40B2093E30BBE016F507F4F85ED30
:102F90009BE00E94A2488CE397EE9093E80B80930D
:102FA000E70B9093E60B8093E50B1093E90B1093DE
:102FB000EA0BC558DE4F48815981CB57D140509319
:102FC000E20B4093E10BC958DE4F88819981C757C6
:102FD000D1409093E40B8093E30BBE0163527F4F8B
:102FE00085ED9BE00E94A2488E01075E1E4F20E007
:102FF00043E0C301B2010E947D8A0451110920E01F
:1030000044E0C501B4010E947D8A0E94FE49C35874
:10301000DE4F688379838A839B83CD57D1400E949A
:10302000D92A811102C0312C24CD9E012F5A3F4F45
:10303000690107EE13E0E12CF12CB601CE010196F7
:103040000E948F29B701CE0101960E94BB29B82E9C
:10305000CE0105960E945F46B11087013FEFE31A4B
:10306000F30A40E1C40ED11C55E0E516F10429F73E
:103070000230110509F497C43CF40115110579F0EB
:1030800001301105B1F0CFCF0330110511F40C94CC
:1030900089220430110511F40C949722C4CF88ECD6
:1030A0009BE00E94F0568BEB9BE00E94F0560C9444
:1030B000232980917609811117C01092720910920C
:1030C0007309109274091092750981E39CE0A3ECD6
:1030D000BDE380936E0990936F09A0937009B0933C
:1030E000710981E08093760980916609811117C08A
:1030F0001092620910926309109264091092650996
:1031000081E39CE0A3ECBDE380935E0990935F09AB
:10311000A0936009B093610981E080936609C09033
:103120004E09D0904F09E0905009F09051092DECD4
:103130003CEC4CE45DE3C701B6010E94A38D0E9404
:10314000F98FC759DE4F688379838A839B83C95679
:10315000D14028EB3EE145E05EE3C701B6010E94A5
:10316000A38D0E94F98FCD58DE4F688379838A83BF
:103170009B83C357D14026E636E646EE5EE3C701A1
:10318000B6010E94A38D0E94F98F4B015C01072EAE
:10319000000C880B990B0E94448D2B013C012FE8F9
:1031A00032EC45E75DE3C701B6010E94A38D9B01A8
:1031B000AC01C301B2010E94CB8E0E94F98FCD59A0
:1031C000DE4F79836883C356D140C0905209D090B6
:1031D0005309E0905409F09055092DEC3CEC4CEC6F
:1031E0005DE3C701B6010E94A38D0E94F98F2B01F8
:1031F0003C01CF58DE4F79836883C157D1402AE91B
:1032000039E949E15FE3C701B6010E94A38D0E943D
:10321000F98F6B017C01C359DE4F79836883CD56EA
:10322000D1408E0107531F4F20E044E060E070E082
:10323000CB010E947D8A0451110920E044E060E046
:1032400070E0CB010E947D8A1E0181E5280E311CB1
:10325000045B1109C8010E94B629005F1F4F0215C7
:103260001305C1F701E010E0CF55DF4F1983088344
:10327000C15AD0408CE397EECD55DF4F99838883B8
:10328000C35AD0406CEA73E0CF59DE4F88819981F0
:10329000C156D1400E94D74622242A94322CC555CB
:1032A000DF4F39822882CB5AD0402DEC3CEC4CE4E5
:1032B0005DE3609152097091530980915409909196
:1032C00055090E94A38D0E94F98FC355DF4F798362
:1032D0006883CD5AD0402AE939E949E55FE3609136
:1032E0004E0970914F0980915009909151090E94A7
:1032F000A38D0E94F98FC155DF4F79836883CF5A20
:10330000D040BE016F557F4FCE0101960E943956C5
:10331000CF59DE4F88819981C156D1400E945F46C6
:10332000CF55DF4F19830883C15AD04080EE97E014
:10333000CD55DF4F99838883C35AD0406FEC73E03B
:10334000CF59DE4F88819981C156D1400E94D7461E
:10335000C555DF4F39822882CB5AD0402DEC3CEC4A
:103360004CE05FE3609152097091530980915409D8
:10337000909155090E94A38D0E94F98FC355DF4F8C
:1033800079836883CD5AD0402AE939E949E55FE37A
:1033900060914E0970914F098091500990915109A7
:1033A0000E94A38D0E94F98FC155DF4F79836883F6
:1033B000CF5AD040BE016F557F4FCE0141960E943B
:1033C0003956CF59DE4F88819981C156D1400E942C
:1033D0005F4660E070E085ED9BE00E944A29BE01F7
:1033E0006F5F7F4FCE018F559F4F0E948F29CE0177
:1033F0008F559F4F0E94EE29CF59DE4F88819981CA
:10340000C156D1400E945F46BE016F5E7F4FCE0124
:103410008F559F4F0E948F29CE018F559F4F0E943D
:10342000EE29CF59DE4F88819981C156D1400E9443
:103430005F463092E80B2092E70B3092E60B209229
:10344000E50B82E08093E90B8093EA0B1092E20B8C
:103450001092E10BC759DE4F28813981C956D140FE
:103460003093E40B2093E30B6CE274E085ED9BE07A
:103470000E94A24824EA30E74DEB5EE360915209D6
:103480007091530980915409909155090E94A38D20
:103490000E94F98F7093E20B6093E10BCD58DE4FE1
:1034A00048815981C357D1405093E40B4093E30BBB
:1034B0006AE07CE085ED9BE00E943B4881E08093E0
:1034C000E90B8093EA0B5092E20B4092E10B909251
:1034D000E40B8092E30B61E474E085ED9BE00E94D5
:1034E000A248D092E20BC092E10B9092E40B809242
:1034F000E30B69E474E085ED9BE00E94A24820E0C4
:1035000030E040E85EE360914E0970914F09809190
:103510005009909151090E94A38D0E94F98F4B018F
:103520005C012DEC3CEC4CEC5EE360915209709137
:10353000530980915409909155090E94A38D0E94CE
:10354000F98FDC01CB01BCE3EB2EB7EEFB2E00E5DF
:1035500010E022E330E04AED5BE1B4010E94015744
:103560000E94FE492B013C0117EE212E13E0312E63
:10357000EEE1EE2EF12C34E6231631046CF10E94BC
:10358000D92A882329F1CE0101966C0100E010E0D0
:10359000B601CE018F559F4F0E948F29B801CE01F1
:1035A0008F559F4F0E94BB29B82ECF59DE4F88817F
:1035B0009981C156D1400E945F46B110180190E137
:1035C000C90ED11C0130110519F001E010E0E0CF67
:1035D00021E0E21AF10879F62114310451F041E0BA
:1035E0002416310481F1C759DE4F1882C956D140E3
:1035F00030C088EC9BE00E94F05688EC9BE00E9473
:10360000D3566093720970937309809374099093F1
:1036100075098BEB9BE00E94F0568BEB9BE00E94C0
:10362000D356609362097093630980936409909301
:103630006509C759DE4F1882C956D140F7EE2F2EC3
:10364000F3E03F2E06C051E0C759DE4F5883C956FC
:10365000D14088EC9BE00E94D3569B01AC018BEBE0
:103660009BE0C857DE4F2883C858D140CB57DE4F68
:103670003883C558D140CA57DE4F4883C658D14019
:10368000C957DE4F5883C758D1400E94D356CD58F2
:10369000DE4F688379838A839B83C357D140C09070
:1036A0007209D0907309E0907409F0907509C857B9
:1036B000DE4F2881C858D140CB57DE4F3881C558DE
:1036C000D140CA57DE4F4881C658D140C957DE4F56
:1036D0005881C758D140C701B6010E94CA8E2091B7
:1036E0006E0930916F0940917009509171090E94E3
:1036F000A38D9B01AC01C701B6010E94CA8E6B016C
:103700007C0160937209709373098093740990939C
:1037100075098090620990906309A0906409B09047
:103720006509CD58DE4F288139814A815B81C357B5
:10373000D140C501B4010E94CA8E20915E0930912A
:103740005F0940916009509161090E94A38D9B011E
:10375000AC01C501B4010E94CA8E4B015C016093AB
:10376000620970936309809364099093650920E06E
:1037700030E0A901C701B6010E944F9020E030E07F
:1037800040E05FE387FD05C0C701B6010E94CB8E14
:1037900004C0C701B6010E94CA8E0E94F98F0E9420
:1037A000448D6B017C0120E030E0A901C501B4012A
:1037B0000E944F9020E030E040E05FE387FD05C0CD
:1037C000C501B4010E94CB8E04C0C501B4010E94A2
:1037D000CA8E0E94F98F0E94448D4B015C010E94A9
:1037E000FE49DC01CB0184199509A609B709883780
:1037F0009540A105B10508F4BAC0209100023091AE
:1038000001024091020250910302C701B6010E94D9
:10381000A38D8E01035C1E4F20E044E00E947D8A50
:103820002091000230910102409102025091030266
:10383000C501B4010E94A38D0051110920E044E0AC
:103840000E947D8A1092E80B1092E70B1092E60B13
:103850001092E50B83E08093E90B8093EA0BCF583D
:10386000DE4F48815981C157D1405093E20B4093BC
:10387000E10BCD59DE4F88819981C356D140909399
:10388000E40B8093E30BBE0167537F4F85ED9BE014
:103890000E94A248C359DE4F28813981CD56D140BC
:1038A0003093E20B2093E10BCD59DE4F48815981D3
:1038B000C356D1405093E40B4093E30BBE016B54CD
:1038C0007F4F85ED9BE00E94A2488FEF9FEF909382
:1038D000E80B8093E70B9093E60B8093E50BCF58B2
:1038E000DE4F88819981C157D1409093E20B80933C
:1038F000E10BCD59DE4F28813981C356D140309339
:10390000E40B2093E30BBE01635C7E4F85ED9BE0EF
:103910000E94A248C359DE4F48815981CD56D140FB
:103920005093E20B4093E10BCD59DE4F8881998192
:10393000C356D1409093E40B8093E30BB80185ED1F
:103940009BE00E94A2480456110920E044E0C70110
:10395000B6010E947D8A0451110920E044E0C501AE
:10396000B4010E947D8A0E94FE492B013C01C75987
:10397000DE4F9881C956D140992309F4F9CD8E01C3
:103980000F5A1F4F00511109C80104960E945F464B
:10399000C15ADE4F28813981CF55D1400217130714
:1039A00089F70C942329C0904E09D0904F09E090DC
:1039B0005009F09051092DEC3CEC4CE45DE3C7015B
:1039C000B6010E94A38D0E94F98F4B015C013B015F
:1039D0002AE939E949E95EE3C701B6010E94A38DEE
:1039E0000E94F98F2B0120E030E0A901609152097B
:1039F0007091530980915409909155090E94A38DAB
:103A00000E94F98FCD59DE4F688379838A839B8327
:103A1000C356D140CD59DE4F28803980C356D1409E
:103A200082E08093E90B8093EA0B8E010F5F1F4FBA
:103A30007E0131E5E30EF11CC8010E94B629005F4A
:103A40001F4F0E151F05C1F7EE24E394F12CCF553F
:103A5000DF4FF982E882C15AD0407CE3C72E77EE6F
:103A6000D72ECD55DF4FD982C882C35AD0406FECD4
:103A700073E0CF59DE4F88819981C156D1400E94B1
:103A8000D7460FEF1FEFC555DF4F19830883CB5A79
:103A9000D0402DEC3CEC4CE45DE360915209709118
:103AA000530980915409909155090E94A38D0E9459
:103AB000F98FC355DF4F79836883CD5AD0402AE907
:103AC00039E949E55FE360914E0970914F098091B2
:103AD0005009909151090E94A38D0E94F98FC15500
:103AE000DF4F79836883CF5AD040BE016F557F4F37
:103AF000CE0101960E943956CF59DE4F88819981B7
:103B0000C156D1400E945F46CF55DF4FF982E8820F
:103B1000C15AD040CD55DF4FD982C882C35AD04058
:103B200062E574E0CF59DE4F88819981C156D1405A
:103B30000E94D746C555DF4F19830883CB5AD04022
:103B40002DEC3CEC4CE05FE360915209709153091D
:103B500080915409909155090E94A38D0E94F98F7C
:103B6000C355DF4F79836883CD5AD0402AE939E9BC
:103B700049E55FE360914E0970914F0980915009CA
:103B8000909151090E94A38D0E94F98FC155DF4F7A
:103B900079836883CF5AD040BE016F557F4FCE01E5
:103BA00041960E943956CF59DE4F88819981C1567E
:103BB000D1400E945F46CF55DF4FF982E882C15A5B
:103BC000D040CD55DF4FD982C882C35AD04062E57C
:103BD00074E0CF59DE4F88819981C156D1400E944F
:103BE000D746C555DF4F19830883CB5AD0408AE0AA
:103BF00090E0C355DF4F99838883CD5AD0402AE99E
:103C000039E949E55FE360914E0970914F09809170
:103C10005009909151090E94A38D0E94F98FC155BE
:103C2000DF4F79836883CF5AD040BE016F557F4FF5
:103C3000CE0181960E943956CF59DE4F88819981F5
:103C4000C156D1400E945F46CF55DF4FF982E882CE
:103C5000C15AD04080EE97E0CD55DF4F99838883DD
:103C6000C35AD04067E574E0CF59DE4F888199810F
:103C7000C156D1400E94D746C555DF4F19830883EE
:103C8000CB5AD0402DEC3CEC4CE45DE36091520902
:103C90007091530980915409909155090E94A38D08
:103CA0000E94F98FC355DF4F79836883CD5AD04086
:103CB0002AE939E949E55FE360914E0970914F09BE
:103CC00080915009909151090E94A38D0E94F98F13
:103CD000C155DF4F79836883CF5AD040BE016F55FD
:103CE0007F4FCE01C1960E943956CF59DE4F888151
:103CF0009981C156D1400E945F4660E070E085ED39
:103D00009BE00E944A298091880990918909019736
:103D100041F4109289091092880910928709109233
:103D200086096CE574E086E59AE00E94A248BE012F
:103D30006F5F7F4FCE018F559F4F0E948F29CE011D
:103D40008F559F4F0E94EE2931EAE32EF12CEC0EA5
:103D5000FD1E44E0E40EF11CC7010E945F468E0187
:103D60000F5E1F4FB801CE018F559F4F0E948F29C4
:103D7000CE018F559F4F0E94EE29C7010E945F46DA
:103D80008FEF9FEF9093E80B8093E70B9093E60BF8
:103D90008093E50B82E08093E90B8093EA0BCD5989
:103DA000DE4F88819981C356D1409093E20B809376
:103DB000E10B9092E40B8092E30B6EE674E085EDEC
:103DC0009BE00E94A248B02EA12E40EE842E47E038
:103DD000942ECC24CA94DC2C00918609109187097A
:103DE0000230110509F405C144F40115110571F003
:103DF0000130110509F456C0F3CF0330110509F461
:103E0000CBC10430110509F474C2EACF0E94D92A4B
:103E1000811105C00E94D92A8823F1F21EC0BE017B
:103E20006F5F7F4FCE018F559F4F0E948F2960E0BB
:103E300070E0CE018F559F4F0E94BB29182FCF599C
:103E4000DE4F88819981C156D1400E945F4611237F
:103E500009F38E010F5A1F4F4CC36B2D7A2DCE01E3
:103E60008F559F4F0E948F2961E070E0CE018F55E2
:103E70009F4F0E94BB29182FCF59DE4F888199810F
:103E8000C156D1400E945F46112309F4A5CF81E0BD
:103E900090E0909387098093860910928909109287
:103EA00088099ACF8091880990918909892B09F016
:103EB00044C01092E80B1092E70B1092E60B1092A0
:103EC000E50B3092E20B2092E10B7092E40B6092D2
:103ED000E30B6EE674E085ED9BE00E94A248D09271
:103EE000E80BC092E70BD092E60BC092E50B309244
:103EF000E20B2092E10B7092E40B6092E30B60E81E
:103F000074E085ED9BE00E94A2481093890900931C
:103F1000880964E974E086E59AE00E94A2484F852A
:103F200058896D857E85E12CF12C02E310E02AE5AD
:103F300030E085ED9BE00E942B4E0E94D92A882319
:103F400009F44ACF6B2D7A2DCE018F559F4F0E94D9
:103F50008F2961E070E0CE018F559F4F0E94BB29F1
:103F6000182FCF59DE4F88819981C156D1400E94C8
:103F70005F46112309F430CF9092E80B8092E70B53
:103F80009092E60B8092E50B3092E20B2092E10BCF
:103F90005092E40B4092E30B60EB74E085ED9BE004
:103FA0000E94A24864EF71E080E090E00E94C64960
:103FB0008091860990918709019690938709809353
:103FC0008609109289091092880960EA88EC9BE0C2
:103FD0000E94B04A60938209709383098093840998
:103FE0009093850961EC74E086E59AE00E94A2480E
:103FF000F3CE8091880990918909892B09F046C0F8
:104000001092E80B1092E70B1092E60B1092E50B62
:104010003092E20B2092E10B7092E40B6092E30B82
:1040200060E874E085ED9BE00E94A2483092E20BCC
:104030002092E10B5092E40B4092E30B60EB74E0B2
:1040400085ED9BE00E94A248D092E80BC092E70B5E
:10405000D092E60BC092E50B3092E20B2092E10B7E
:104060007092E40B6092E30B6FEC74E085ED9BE0E3
:104070000E94A24863EE74E086E59AE00E94A2489E
:1040800081E090E090938909809388090E94D92A61
:10409000882309F4A1CE6B2D7A2DCE018F559F4F29
:1040A0000E948F2961E070E0CE018F559F4F0E94E2
:1040B000BB29182FCF59DE4F88819981C156D14035
:1040C0000E945F46112309F487CE9092E80B8092FC
:1040D000E70B9092E60B8092E50B3092E20B209278
:1040E000E10B5092E40B4092E30B60E075E085ED4C
:1040F0009BE00E94A24864EF71E080E090E00E94A3
:10410000C649109289091092880960EA88EC9BE000
:104110000E94B04A60937E0970937F098093800962
:10412000909381090091820910918309209184095B
:1041300030918509601B710B820B930B2091B208A3
:104140003091B308032E000C440B550B0E946D8E6A
:10415000CA01B9010E94448D6093AA087093AB080C
:104160008093AC089093AD086093D10B7093D20B01
:104170008093D30B9093D40B60E175E086E59AE0D1
:104180000E94A24880918609909187090196909398
:1041900087098093860920CE8091880990918909AA
:1041A000892B09F046C01092E80B1092E70B109291
:1041B000E60B1092E50B3092E20B2092E10B70922D
:1041C000E40B6092E30B6FEC74E085ED9BE00E94E2
:1041D000A2483092E20B2092E10B5092E40B409205
:1041E000E30B60E075E085ED9BE00E94A248D09271
:1041F000E80BC092E70BD092E60BC092E50B309231
:10420000E20B2092E10B7092E40B6092E30B60E210
:1042100075E085ED9BE00E94A24881E090E09093DC
:1042200089098093880965E375E086E59AE00E9434
:10423000A2480E94D92A882309F4CECD6B2D7A2D6D
:10424000CE018F559F4F0E948F2961E070E0CE0113
:104250008F559F4F0E94BB29182FCF59DE4F888161
:104260009981C156D1400E945F46112309F4B4CD13
:104270009092E80B8092E70B9092E60B8092E50B10
:104280003092E20B2092E10B5092E40B4092E30B50
:1042900060EB74E085ED9BE00E94A24860EA8BEB46
:1042A0009BE00E94B04A60938209709383098093D7
:1042B00084099093850980918609909187090196D8
:1042C0009093870980938609109289091092880932
:1042D00080E090E00E940E5360E575E086E59AE08C
:1042E0000E94A24864EF71E080E090E00E94C6491D
:1042F00073CD8091880990918909892B09F04CC070
:104300001092E80B1092E70B1092E60B1092E50B5F
:104310003092E20B2092E10B7092E40B6092E30B7F
:1043200060E275E085ED9BE00E94A2483092E20BCE
:104330002092E10B5092E40B4092E30B60EB74E0AF
:1043400085ED9BE00E94A248D092E80BC092E70B5B
:10435000D092E60BC092E50B3092E20B2092E10B7B
:104360007092E40B6092E30B66E675E085ED9BE0EE
:104370000E94A24881E090E0909389098093880987
:104380006BE775E086E59AE00E94A24864EF71E071
:1043900080E090E00E94C6490E94D92A882309F44F
:1043A0001BCD6B2D7A2DCE018F559F4FB8D761E075
:1043B00070E0CE018F559F4FDED7182FCF59DE4FBB
:1043C00088819981C156D1400E945F46112309F42A
:1043D00003CD80EE97E09093E80B8093E70B9093EA
:1043E000E60B8093E50B3092E20B2092E10B5092AA
:1043F000E40B4092E30B60E075E085ED9BE00E94EA
:10440000A248109289091092880960EA8BEB9BE020
:104410000E94B04A60937E0970937F09809380095F
:104420009093810900918209109183092091840958
:1044300030918509601B710B820B930B2091B208A0
:104440003091B308032E000C440B550B0E946D8E67
:10445000CA01B9010E94448D6093AE087093AF0801
:104460008093B0089093B1086093C40B7093C50B10
:104470008093C60B9093C70B1092E80B1092E70B3A
:104480001092E60B1092E50B3092E20B2092E10BBA
:104490005092E40B4092E30B60E075E085ED9BE009
:1044A0000E94A2488FEF9FEF9093E80B8093E70B59
:1044B0009093E60B8093E50B3092E20B2092E10B98
:1044C0005092E40B4092E30B67E975E085ED9BE0C9
:1044D0000E94A2480E9401326CE271E080E090E00C
:1044E0000E94C64969EA75E086E59AE00E94A24802
:1044F000B0CC00511109C80104960E945F46C15A10
:10450000DE4F28813981CF55D1400217130789F733
:104510009AC662E370E080E090E00E94C6498E0196
:104520000F551F4F7E0131E5E30EF11C90C66EEB77
:1045300075E0CE018B5A9E4F0E94D74667EC75E01E
:10454000CE01815B9E4F0E94D7466091B408709166
:10455000B508072E000C880B990B0E94448D209102
:1045600004023091050240910602509107020E9418
:10457000A38D8E0107531F4F20E045E00E947D8AE6
:104580006091B6087091B708072E000C880B990B44
:104590000E94448D20910402309105024091060250
:1045A000509107020E94A38D0451110920E045E0BB
:1045B0000E947D8A6091B2087091B308072E000CAA
:1045C000880B990B0E94448D2091000230910102CA
:1045D00040910202509103020E94A38D04511109DF
:1045E00020E045E00E947D8A8091B8089091B9084A
:1045F000019739F467EC75E0CE018B5A9E4F0E940B
:104600004A46C0905209D0905309E0905409F09066
:1046100055092AE037ED43E25CE3C701B6010E9489
:10462000A38D0E94F98F1B0126E636E646EE5EE377
:10463000C701B6010E94A38D0E94F98FCF58DE4FAB
:1046400079836883C157D14020E030E040E45FE3E4
:10465000C701B6010E94A38D0E94F98FC359DE4F96
:10466000688379838A839B83CD56D14080904E099D
:1046700090904F09A0905009B090510929E23CE573
:104680004FE05EE3C501B4010E94A38D0E94F98F43
:104690002B013C012AE939E949E95EE3C501B4018E
:1046A0000E94A38D0E94F98F6B017C01CD58DE4FD3
:1046B00079836883C357D140AB01440D551DCD5953
:1046C000DE4F59834883C356D140440D551DC75909
:1046D000DE4F59834883C956D140440E551E2DECF8
:1046E0003CEC4CE45DE3C501B4010E94A38D0E9443
:1046F000F98F3B01CE018F5A9F4FC35ADE4F9983EA
:104700008883CD55D1408E010F5F1F4FC8012ED633
:10471000005F1F4FC35ADE4F28813981CD55D140EC
:104720000217130799F793E0A92EB12CC35DDE4F52
:10473000B982A882CD52D1400CE317EEC15DDE4FA5
:1047400019830883CF52D14060ED75E0C959DE4F1F
:1047500088819981C756D1400E94D74688248A947F
:10476000982CC95CDE4F99828882C753D140C359C7
:10477000DE4F48815981CD56D140C75CDE4F598309
:104780004883C953D1405AE0C51AD108C55CDE4FF1
:10479000D982C882CB53D140BE01635D7E4FCE012A
:1047A00001960E943956C959DE4F88819981C756B2
:1047B000D1400E945F46C35DDE4FB982A882CD52D0
:1047C000D140C15DDE4F19830883CF52D14060EDE7
:1047D00075E0C959DE4F88819981C756D1400E9442
:1047E000D746C95CDE4F99828882C753D140C359EE
:1047F000DE4F88819981CD56D140C75CDE4F9983C9
:104800008883C953D140CD59DE4F88819981C356E1
:10481000D1400A97C55CDE4F99838883CB53D14042
:10482000BE01635D7E4FCE0141960E943956C95943
:10483000DE4F88819981C756D1400E945F46C35D93
:10484000DE4FB982A882CD52D140C15DDE4F1983BF
:104850000883CF52D14060ED75E0C959DE4F8881A1
:104860009981C756D1400E94D746C95CDE4F9982D4
:104870008882C753D140C359DE4F28813981CD5634
:10488000D140C75CDE4F39832883C953D140C75913
:10489000DE4F88819981C956D1400A97C55CDE4FA9
:1048A00099838883CB53D140BE01635D7E4FCE0197
:1048B00081960E943956C959DE4F88819981C75621
:1048C000D1400E945F46C35DDE4FB982A882CD52BF
:1048D000D140C15DDE4F19830883CF52D14067EDCF
:1048E00075E0C959DE4F88819981C756D1400E9431
:1048F000D746C95CDE4F99828882C753D140C359DD
:10490000DE4F48815981CD56D140C75CDE4F598377
:104910004883C953D140C2010A97C55CDE4F9983D1
:104920008883CB53D140BE01635D7E4FCE01C196DB
:104930000E943956C959DE4F88819981C756D140A6
:104940000E945F4681E090E0C35DDE4F99838883DB
:10495000CD52D14080EE97E0C15DDE4F99838883D0
:10496000CF52D1406FEC73E0C959DE4F88819981F5
:10497000C756D1400E94D746C95CDE4F99828882D3
:10498000C753D1402AE037ED43EA5EE36091520914
:104990007091530980915409909155090E94A38DFB
:1049A0000E94F98FC75CDE4F79836883C953D14079
:1049B00021EE3AE744E55FE360914E0970914F09BB
:1049C00080915009909151090E94A38D0E94F98F06
:1049D000C55CDE4F79836883CB53D140BE01635DF4
:1049E0007E4FCE018F5B9F4F0E943956C959DE4FD3
:1049F00088819981C756D1400E945F46CD58DE4FCD
:104A000088819981C357D140860D971DC359DE4FC8
:104A100099838883CD56D140CD59DE4F2881398185
:104A2000C356D140260D371DCD57DE4F398328831D
:104A3000C358D140C759DE4F48815981C956D1402A
:104A4000640E751ECF58DE4F88819981C157D140C1
:104A50004C01990FAA08BB088091B8089091B90839
:104A60006091B4087091B508892B09F049C0072EF0
:104A7000000C880B990B0E94448D20910402309108
:104A8000050240910602509107020E94A38D8E01FB
:104A900007531F4F20E045E00E947D8A6091B608D1
:104AA0007091B708072E000C880B990B0E94448D5B
:104AB00020910402309105024091060250910702B4
:104AC0000E94A38D0451110920E045E00E947D8AD7
:104AD0006091B2087091B308072E000C880B990BF7
:104AE0000E94448D20910002309101024091020207
:104AF000509103020E94A38D0451110920E048C087
:104B0000072E000C880B990B0E94448D2091040203
:104B10003091050240910602509107020E94A38D38
:104B20008E0107531F4F21E045E00E947D8A60916E
:104B3000B6087091B708072E000C880B990B0E94DD
:104B4000448D20910402309105024091060250915B
:104B500007020E94A38D0451110921E045E00E9443
:104B60007D8A6091B2087091B308072E000C880B03
:104B7000990B0E94448D20910002309101024091D6
:104B80000202509103020E94A38D0451110921E0F9
:104B900045E00E947D8A60E070E085ED9BE07AD37D
:104BA00081E08093E90B8093EA0B8CE397EE90937E
:104BB000E80B8093E70B9093E60B8093E50B309224
:104BC000E20B2092E10BC359DE4F28813981CD568B
:104BD000D1403093E40B2093E30B6FED75E085ED4E
:104BE0009BE00E94B4486CE17CE085ED9BE00E9474
:104BF000F2463092E20B2092E10BCD57DE4F488116
:104C00005981C358D1405093E40B4093E30B6FEDAF
:104C100075E085ED9BE00E94B4486CE17CE085ED99
:104C20009BE00E94F2463092E20B2092E10B7092E0
:104C3000E40B6092E30B6BEE75E085ED9BE00E9468
:104C4000B44860E17CE085ED9BE00E94F24682E0A2
:104C50008093E90B8093EA0B8FEF9FEF9093E80B23
:104C60008093E70B9093E60B8093E50B3092E20B79
:104C70002092E10B82E090E09093E40B8093E30BB1
:104C800062E076E085ED9BE00E94B4483092E20B52
:104C90002092E10BCD58DE4F88819981C357D140D6
:104CA0009093E40B8093E30B68E075E085ED9BE067
:104CB0000E94B4483092E20B2092E10BCD59DE4FB6
:104CC00028813981C356D1403093E40B2093E30B04
:104CD00066E176E085ED9BE00E94B4483092E20BFD
:104CE0002092E10BC759DE4F48815981C956D14006
:104CF0005093E40B4093E30B6FE176E085ED9BE08E
:104D00000E94B4483092E20B2092E10B5092E40BE7
:104D10004092E30B67E276E085ED9BE00E94B448A9
:104D200080EE97E09093E80B8093E70B9093E60B6F
:104D30008093E50BCF58DE4F88819981C157D140D0
:104D40009093E20B8093E10BCD58DE4F288139819F
:104D5000C357D1403093E40B2093E30BBE0167535C
:104D60007F4F85ED9BE00E94B448CF58DE4F4881CD
:104D70005981C157D1405093E20B4093E10BCD597B
:104D8000DE4F88819981C356D1409093E40B809384
:104D9000E30BBE016B547F4F85ED9BE00E94B4484E
:104DA000CF58DE4F28813981C157D1403093E20B73
:104DB0002093E10BC759DE4F48815981C956D14034
:104DC0005093E40B4093E30BBE016F557F4F85ED8D
:104DD0009BE00E94B448C501B4010E94448D6B0160
:104DE0007C0120E030E040E05EE360915209709188
:104DF000530980915409909155090E94A38D9B01FC
:104E0000AC01C701B6010E94CA8E0E94F98F70934F
:104E1000E20B6093E10B5092E40B4092E30BBE0176
:104E20006B5A7E4F85ED9BE00E94F2468E010F5F2C
:104E30001F4FB801CE01835D9E4F71D2CE01835DBD
:104E40009E4FCCD2C959DE4F88819981C756D14037
:104E50000E945F46005F1F4FC35ADE4F88819981D1
:104E6000CD55D1400817190721F7A3D38823E9F3BB
:104E70009E012F5F3F4F690103E610E0E12CF12C0A
:104E8000B601CE01835D9E4F4AD2B701CE01835D4C
:104E90009E4F71D2282FC959DE4F88819981C756FC
:104EA000D140C857DE4F2883C858D1400E945F4682
:104EB000C857DE4F2881C858D140211187013FEFE4
:104EC000E31AF30A40E1C40ED11C55E0E516F104E3
:104ED000B9F60230110509F4A6C00CF04DC0011559
:104EE000110509F45BC00130110509F0BECF67E27E
:104EF00076E0CE018D5B9E4F0E94D746BE016D5B72
:104F00007E4FCE01835C9E4F0E94BE46CE01835CE5
:104F10009E4F0E948B566CE17CE00E94FB45BC01D9
:104F2000CE01835D9E4F0E94BE4666E176E0CE01D3
:104F3000875B9E4F0E94D74643E050E0BE01635D11
:104F40007E4FCE01875B9E4FA5D320910402309106
:104F5000050240910602509107020E94918F20E0C5
:104F600030E040E05FE30E94CB8E0E94F98F7093A7
:104F7000B7086093B6089BC00330110509F4ACC0B4
:104F80000430110509F071CF62E370E080E090E039
:104F90000E94C6498E010F5A1F4F3CC167E276E05E
:104FA000CE018D5B9E4F0E94D746BE016D5B7E4F4A
:104FB000CE01835C9E4F0E94BE46CE01835C9E4F15
:104FC0000E948B566CE17CE00E94FB45BC01CE0147
:104FD000835D9E4F0E94BE4668E075E0CE01875B10
:104FE0009E4F0E94D74643E050E0BE01635D7E4F76
:104FF000CE01875B9E4F4ED3209104023091050273
:1050000040910602509107020E94918F20E030E00B
:1050100040E05FE30E94CB8E0E94F98F7093B50849
:105020006093B40844C067E276E0CE018D5B9E4F8A
:105030000E94D746BE016D5B7E4FCE01835C9E4FC2
:105040000E94BE46CE01835C9E4F0E948B5660E15B
:105050007CE00E94FB45BC01CE01835D9E4F0E9417
:10506000BE466FE176E0CE01875B9E4F0E94D74639
:1050700044E050E0BE01635D7E4FCE01875B9E4FF2
:1050800009D3209100023091010240910202509117
:1050900003020E94918F20E030E040E05FE30E9435
:1050A000CB8E0E94F98F7093B3086093B208CE0143
:1050B000875B9E4F0E945F46CE01835D9E4F0E949C
:1050C0005F46CE01835C9E4F0E945F46CE018D5BA2
:1050D0009E4F0E945F469BC0C75ADE4F88819981D0
:1050E000C955D140892B09F452C06EEB75E0CB5AFB
:1050F000DE4F88819981C555D1400E945593892BF7
:1051000009F045C067EC75E0CE018B5A9E4F0E94B6
:105110004A466EEB75E0CE01815B9E4F0E944A4687
:105120006BEC72E08CE19CE00E944A466FEC72E00E
:1051300086E19CE00E944A4685E892E4A1E2BDE354
:105140008093040290930502A0930602B093070295
:1051500066ED72E080E19CE00E944A466BED72E0F1
:105160008AE09CE00E944A4688E79BE7A0E1BDE315
:105170008093000290930102A0930202B093030275
:1051800081E090E09093B9088093B80840C06EEB3E
:1051900075E0CE018B5A9E4F0E944A4667EC75E03F
:1051A000CE01815B9E4F0E944A466DEB72E08CE11E
:1051B0009CE00E944A4660EC72E086E19CE00E941E
:1051C0004A46C12CD12C80E8E82E8FE3F82EC092FD
:1051D0000402D0920502E0920602F09207026DE10D
:1051E00076E080E19CE00E944A4666EC72E08AE04C
:1051F0009CE00E944A46C0920002D0920102E092D6
:105200000202F09203021092B9081092B8080E94AC
:10521000013222CC00511109C80104960E945F4658
:10522000C15ADE4F88819981CF55D140081719079F
:1052300089F7CE01815B9E4F0E945F46CE018B5A5B
:105240009E4F0E945F46332433940C9439150051CD
:105250001109C80104960E945F460E151F05B9F793
:10526000C857DE4F0FB6F894DEBF0FBECDBFDF913B
:10527000CF911F910F91FF90EF90DF90CF90BF9053
:10528000AF909F908F907F906F905F904F903F90E6
:105290002F900895EF92FF920F931F93DC01ED91F1
:1052A000FC9111971A960D911C911B9718962D91B0
:1052B0003C91199700A0F1A1E02D7B0140E050E066
:1052C00060E070E019951F910F91FF90EF900895A5
:1052D000EF92FF920F931F93DC01ED91FC9100A0E0
:1052E000F1A1E02D780101E010E019951F910F91D7
:1052F000FF90EF900895EF92FF920F931F93DC01C0
:10530000ED91FC9100A0F1A1E02D7801890121E04F
:1053100030E019951F910F91FF90EF9008950F9332
:105320001F93CF93DF93EC018B01FB01808191816F
:1053300099838883828193819B838A836C5F7F4F6B
:10534000CE0104960E94BE46F801828593859B8714
:105350008A87848595859D878C87868597859F8795
:105360008E87DF91CF911F910F9108956AE677E0C4
:1053700004960C94D746DC0120918A0830918B0862
:105380001C964D915C911D97421753072CF58D91FA
:105390009C9111976CE0689FF001699FF00D1124BA
:1053A000E75FFD4F82819381840F951F281739078E
:1053B0009CF440918C0850918D081E962D913C9143
:1053C0001F972417350744F480819181280F391FD6
:1053D00081E0421753070CF080E008952F923F922E
:1053E0004F925F926F927F928F929F92AF92BF92F5
:1053F000CF92DF92EF92FF920F931F93CF93DF93A1
:1054000000D000D0CDB7DEB76C01DC0112964D9014
:105410005C9013978D919C9111972CE0289FF0013F
:10542000299FF00D1124E75FFD4F828593856080F1
:105430007180A280B3801E96ED91FC911F97FA8334
:10544000E9831C962D913C911D973C832B83A614D8
:10545000B70424F49501B7FE06C003C0930177FE9C
:1054600002C02F5F3F4F359527953E832D838217CE
:10547000930714F49E838D838D809E8091948194F4
:105480009108880C991C2B803C808D819E81280E70
:10549000391E9501280D391D7201830149815A81F8
:1054A000B10185ED9BE00E94B640860C971C91E00F
:1054B000891A910869807A80AD81BE816A0E7B1E4F
:1054C000EB81FC81AE0EBF1EC5018A1B9B0B8401C4
:1054D00021E0AD01B30101970E946B5522E04D819F
:1054E0005E81B301C1010E946B55D6012D913C91A3
:1054F0008CE0829FF001839FF00D1124E75FFD4F48
:105500008481882311F0982F01C091E09093E90BDA
:10551000811101C081E08093EA0B8CE0829FF00151
:10552000839FF00D1124E75FFD4FD6011E962D914C
:105530003C911F9780859185820F931F1C964D91FA
:105540005C911D9726813781240F351F3093E20B24
:105550002093E10B9093E40B8093E30B1A968D91CB
:105560009C911B979093E80B8093E70B9093E60B2D
:105570008093E50BB6016C5F7F4F85ED9BE026962F
:105580000FB6F894DEBF0FBECDBFDF91CF911F9154
:105590000F91FF90EF90DF90CF90BF90AF909F90D2
:1055A0008F907F906F905F904F903F902F900C94D2
:1055B0003B480F931F93CF93DF9300D000D0CDB71C
:1055C000DEB761E08DE00E943C490E94425329838E
:1055D0003A834B835C836D837E8360E08DE00E9421
:1055E0003C4961E088E30E946B4961E089E30E94E5
:1055F0006B4929813A81C901330FAA0BBB0B9C016E
:10560000AD012E58334041095109A091DD0BB091F5
:10561000DE0B0E94938E2FEF3CEF4FEF5FEF0E9467
:105620006D8E30938B0820938A080091DF0B1091C8
:10563000E00B2B813C81C901330FAA0BBB0B9C01F2
:10564000AD012A58334041095109D8010E94938E77
:1056500028EF3CEF4FEF5FEF0E946D8E021B130BA4
:1056600010938D0800938C082D813E81309389081A
:105670002093880881E02F3131050CF480E02696D4
:105680000FB6F894DEBF0FBECDBFDF91CF911F9153
:105690000F9108952F923F924F925F926F927F9257
:1056A0008F929F92AF92BF92CF92DF92EF92FF9232
:1056B0000F931F93CF93DF93CDB7DEB7C053D14085
:1056C0000FB6F894DEBF0FBECDBFC35DDE4F99832A
:1056D0008883CD52D140C15DDE4F79836883CF523C
:1056E000D140C95EDE4F59834883C751D140609194
:1056F000DF0B7091E00B072E000C880B990B0E94BA
:10570000448D6B017C012DEC3CEC4CEC5EE30E9483
:10571000A38DC55FDE4F688379838A839B83CB50DB
:10572000D1402AE939E949E15FE3C701B6010E94A6
:10573000A38D20E030E040E85EE30E94A38D0E944C
:10574000F98F072E000C880B990B0E94448D6B017A
:105750007C019B01AC01C55FDE4F688179818A8144
:105760009B81CB50D1400E94CB8EC75EDE4F6883B9
:1057700079838A839B83C951D140A70196010E94F6
:10578000CB8EC35EDE4F688379838A839B83CD5142
:10579000D140A70196010E94CB8ECD5EDE4F68837B
:1057A00079838A839B83C351D1406091DD0B7091D3
:1057B000DE0B072E000C880B990B0E94448D6B01A9
:1057C0007C012DEC3CEC4CEC5DE30E94A38DC95FA9
:1057D000DE4F688379838A839B83C750D1402DEC49
:1057E0003CEC4CE45FE3C701B6010E94A38D20E0CE
:1057F00030E040E450E40E94918F0E94F98F072E20
:10580000000C880B990B0E94448D4B015C019B019D
:10581000AC01C95FDE4F688179818A819B81C75065
:10582000D1400E94CB8E6B017C01A50194010E94A6
:10583000CB8EC75DDE4F688379838A839B83C95291
:10584000D1402CEE31E548E35EE36091520970915E
:10585000530980915409909155090E94A38D0E948B
:10586000F98FCF5DDE4F79836883C152D1402EEA34
:1058700037E441E65EE360914E0970914F098091F3
:105880005009909151090E94A38D0E94F98FCB5D20
:10589000DE4F688379838A839B83C552D140CB5D79
:1058A000DE4F28813981C552D140CD5DDE4F39832D
:1058B0002883C352D1401E0131EE230E311C8E01CC
:1058C0000F5F1F4FC80152DD005F1F4F0215130508
:1058D000C9F744E0842E912CD80111969C928E92A7
:1058E0005CE3652E57EE752E13967C926E9212979E
:1058F0001801B4E02B0E311C61EF73E0C1010E946E
:10590000D746AA24AA94BA2CF801B386A286C70166
:10591000B6010E94F98FC15FDE4F688379838A8365
:105920009B83CF50D140C15FDE4FE881F981CF50DA
:10593000D140D8011D96FC93EE931C97CD5EDE4FAF
:10594000688179818A819B81C351D1400E94F98FFE
:10595000CD5EDE4F688379838A839B83C351D140B8
:10596000CD5EDE4FE881F981C351D140D8011F9649
:10597000FC93EE931E97B8019E012F5F3F4FCB5FC4
:10598000DE4F39832883C550D140C9010E94395662
:10599000C1010E945F46D80111969C928E92139687
:1059A0007C926E9212976FEF73E0C1010E94D7460E
:1059B000F801B386A286C95FDE4F688179818A814A
:1059C0009B81C750D1400E94F98FC95FDE4F688329
:1059D00079838A839B83C750D140C95FDE4FE881BA
:1059E000F981C750D140D8011D96FC93EE931C97C6
:1059F000C55FDE4F688179818A819B81CB50D14020
:105A00000E94F98F6B017C01D8011F967C936E93E5
:105A10001E97B801CE0141960E943956C1010E94DD
:105A20005F46F80191828082738262826CE276E046
:105A3000C1010E94D746D8011B96BC92AE921A971C
:105A4000C15FDE4FE881F981CF50D1401D96FC93B4
:105A5000EE931C971F96DC92CE921E97B801CE0152
:105A600081960E943956C1010E945F46D801119665
:105A70009C928E9213967C926E9212976FE276E0D1
:105A8000C1010E94D746F801B386A286C75DDE4FEA
:105A9000688179818A819B81C952D1400E94F98FA6
:105AA000C55FDE4F688379838A839B83CB50D14067
:105AB000C55FDE4FE881F981CB50D140D8011D96FA
:105AC000FC93EE931C971F96DC92CE921E97B80122
:105AD000CE01C1960E943956C1010E945F46D8018D
