:100000000C94C50F0C94F60F0C94F60F0C94F60F8D
:100010000C94F60F0C94F60F0C94F60F0C94F60F4C
:100020000C94F60F0C94F60F0C94F60F0C94F60F3C
:100030000C94F60F0C94F60F0C94F60F0C94F60F2C
:100040000C94F60F0C94F60F0C94F60F0C94F60F1C
:100050000C94F60F0C94F60F0C94F60F0C947C3F56
:100060000C94F60F0C94503E0C94273E0C94F60F13
:100070000C94F60F0C94F60F0C94F60F0C94F60FEC
:100080000C94F60F0C94F60F0C94F60F0C94F60FDC
:100090000C94F60F0C94F60F0C94F60F0C94BD47CD
:1000A0000C94F60F0C94F60F0C94F60F0C94F60FBC
:1000B0000C94F60F0C94F60F0C94F60F0C94F60FAC
:1000C0000C94F60F0C94F60F0C94F60F0C94F60F9C
:1000D0000C94F60F0C94F60F0C94F60F0C94F60F8C
:1000E0000C94F60F1B2E1F2E032E072E0B2E0F2EF9
:1000F000132E172E1B2E1F2E652F232E6B2ED53A57
:10010000D83AC73ACB3AD13A0F3BDC3AE03AE63A32
:10011000EA3AEE3AF43AF83AFC3A0F3B023B063B35
:100120000A3B084AD73B3BCE016E84BCBFFDC12FC2
:100130003D6C74319ABD56833DDA3D00C77F11BED8
:10014000D9E4BB4C3E916BAAAABE000000803F05DB
:10015000A84CCDB2D44EB93836A9020C50B991860C
:1001600088083CA6AAAA2ABE000000803F000040E2
:100170007A10F35A00A0724E18090010A5D4E800B6
:1001800000E87648170000E40B54020000CA9A3BCE
:10019000000000E1F5050000809698000000404254
:1001A0000F000000A08601000000102700000000E2
:1001B000E803000000006400000000000A000000E6
:1001C00000000100000000002C76D888DC674F0892
:1001D00023DFC1DFAE59E1B1B796E5E3E453C63A98
:1001E000E651997696E8E6C28426EB898C9B62ED0F
:1001F000407C6FFCEFBC9C9F40F2BAA56FA5F490C9
:10020000055A2AF75C936B6CF9676DC11BFCE0E43F
:100210000D47FEF520E6B500D0ED902E0300943595
:1002200077050080841E080000204E0A000000C8E8
:100230000C333333330F986E12831141EF8D211439
:10024000893BE65516CFFEE6DB18D1844B381BF709
:100250007C1D901DA4BBE424203284725E228100A8
:10026000C9F124ECA1E53D2711007F96290001008A
:100270007F9628003A0155F603010100CF03008163
:1002800030ED0464031281E803851078CB05392C26
:10029000003402F70120EA020000B00100B10200C0
:1002A0001BB40100C00121C10111C5023F3CC701BF
:1002B000B5360148F20100260101E00F0F26240B9C
:1002C0000E0954A8460C17090F0700E10F00191B6F
:1002D0000410072A473903060630380F58205920E2
:1002E00073697A6520000000000000000000000033
:1002F00000000000000000000000000000000000FE
:1003000000000000000000000000000000000000ED
:1003100000000000000000000000000000000000DD
:1003200000000000000000000000000000000000CD
:1003300000000000000000000000000000000000BD
:1003400000000000000000000000000000000000AD
:10035000000000000000000000000000000000009D
:10036000000000003F013F0100000000000000000D
:10037000000000000000000000000000000000007D
:10038000000000000000000000000000000000006D
:10039000000000000000000000000000000000005D
:1003A000000000000000000000000000000000004D
:1003B00000003F013F013F013F010000000000003D
:1003C000000000000000000000000000000000002D
:1003D000000000000000000000000000000000001D
:1003E000000000000000000000000000000000000D
:1003F00000000000000000000000000000000000FD
:100400000000FF0700F800F83F01000000000000B6
:1004100000000000000000000000000000000000DC
:1004200000000000000000000000000000000000CC
:1004300000000000000000000000000000000000BC
:1004400000000000000000000000000000000000AC
:10045000FF07FF0700F800F83F0100000000000060
:10046000000000000000000000000000000000008C
:10047000000000000000000000000000000000007C
:10048000000000000000000000000000000000006C
:100490000000000000000000000000000000FF0756
:1004A000FF07FF0700F800F800F800000000000058
:1004B000000000000000000000000000000000003C
:1004C000000000000000000000000000000000002C
:1004D000000000000000000000000000000000001C
:1004E000000000000000000000000000FF07FF0700
:1004F000FF070000000000F800F800000000000006
:1005000000000000000000000000000000000000EB
:1005100000000000000000000000000000000000DB
:1005200000000000000000000000000000000000CB
:1005300000000000000000000000FF07FF07FF07A9
:10054000000000000000000000F800F800000000BB
:10055000000000000000000000000000000000009B
:10056000000000000000000000000000000000008B
:10057000000000000000000000000000000000007B
:100580000000000000000000FF07FF07FF07000059
:10059000000000000000000000F800F8000000006B
:1005A000000000000000000000000000000000004B
:1005B000000000000000000000000000000000003B
:1005C000000000000000000000000000000000002B
:1005D000000000000000FF07FF07FF070000000009
:1005E0000000000000000000000000F800F800001B
:1005F00000000000000000000000000000000000FB
:1006000000000000000000000000000000000000EA
:1006100000000000000000000000000000000000DA
:1006200000000000FF07FF07FF07000000000000B8
:100630000000000000000000000000F800F80000CA
:1006400000000000000000000000000000000000AA
:10065000000000000000000000000000000000009A
:10066000000000000000000000000000000000008A
:100670000000FF07FF07FF07000000000000000068
:1006800000000000000000000000000000F800F87A
:10069000000000000000000000000000000000005A
:1006A000000000000000000000000000000000004A
:1006B000000000000000000000000000000000003A
:1006C000FF07FF07FF070000000000000000000018
:1006D00000000000000000000000000000F800F82A
:1006E00000F8000000000000000000000000000012
:1006F00000000000000000000000000000000000FA
:100700000000000000000000000000000000FF07E3
:10071000FF07FF07000000000000000000000000CD
:10072000000000000000000000000000000000F8D1
:1007300000F80000000000000000000000000000C1
:1007400000000000000000000000000000000000A9
:10075000000000000000000000000000FF07FF078D
:10076000FF07000000000000000000000000000083
:10077000000000000000000000000000000000F881
:1007800000F800F800000000000000000000000079
:100790000000000000000000000000000000000059
:1007A00000000000000000000000FF07FF07FF0737
:1007B0000000000000000000000000000000000039
:1007C0000000000000000000000000000000000029
:1007D00000F800F800000000000000000000000029
:1007E0000000000000000000000000000000000009
:1007F0000000000000000000FF07FF07FF070000E7
:1008000000000000000000000000000000000000E8
:1008100000000000000000000000000000000000D8
:1008200000F800F800F800000000000000000000E0
:1008300000000000000000000000000000000000B8
:10084000000000000000FF07FF07FF070000000096
:100850000000000000000000000000000000000098
:100860000000000000000000000000000000000088
:10087000000000F800F80000000000000000000088
:100880000000000000000000000000000000000068
:1008900000000000FF07FF07FF0700000000000046
:1008A0000000000000000000000000000000000048
:1008B0000000000000000000000000000000000038
:1008C0000000000000F800F8000000000000000038
:1008D0000000000000000000000000000000000018
:1008E0000000FF07FF07FF070000000000000000F6
:1008F00000000000000000000000000000000000F8
:1009000000000000000000000000000000000000E7
:100910000000000000F800F80000000000000000E7
:1009200000000000000000000000000000000000C7
:10093000FF07FF07FF0700000000000000000000A5
:1009400000000000000000000000000000000000A7
:100950000000000000000000000000000000000097
:1009600000000000000000F800F800000000000097
:100970000000000000000000000000000000FF0771
:10098000FF07FF070000000000000000000000005B
:100990000000000000000000000000000000000057
:1009A0000000000000000000000000000000000047
:1009B00000000000000000F800F800000000000047
:1009C000000000000000000000000000FF07FF071B
:1009D000FF07000000000000000000000000000011
:1009E0000000000000000000000000000000000007
:1009F00000000000000000000000000000000000F7
:100A0000000000000000000000F800F800000000F6
:100A100000000000000000000000FF07FF07FF07C4
:100A200000000000000000000000000000000000C6
:100A300000000000000000000000000000000000B6
:100A400000000000000000000000000000000000A6
:100A5000000000000000000000F800F800000000A6
:100A60000000000000000000FF07FF07FF07000074
:100A70000000000000000000000000000000000076
:100A80000000000000000000000000000000000066
:100A90000000000000000000000000000000000056
:100AA0000000000000000000000000F800F8000056
:100AB000000000000000FF07FF07FF070000000024
:100AC0000000000000000000000000000000000026
:100AD0000000000000000000000000000000000016
:100AE0000000000000000000000000000000000006
:100AF0000000000000000000000000F800F800F80E
:100B00003F0100000000FF07FF07FF07FF07FF0787
:100B1000FF07FF07FF07FF07FF07FF07FF07FF07A5
:100B2000FF07FF07FF07FF07FF07FF07FF07FF0795
:100B3000FF07FF07FF07FF07FF07FF07FF07FF0785
:100B4000FF07FF07FF07FF07FF07FF0700F800F891
:100B50003F013F010000FF07FF07FF07FF07FF07F7
:100B6000FF07FF07FF07FF07FF07FF07FF07FF0755
:100B7000FF07FF07FF07FF07FF07FF07FF07FF0745
:100B8000FF07FF07FF07FF07FF07FF07FF07FF0735
:100B9000FF07FF07FF07FF07FF07FF0700F800F841
:100BA00000F83F010000000000000000000000000D
:100BB0000000000000000000000000000000000035
:100BC0000000000000000000000000000000000025
:100BD0000000000000000000000000000000000015
:100BE00000000000000000000000000000003F01C5
:100BF0003F010000000000000000000000000000B5
:100C000000000000000000000000000000000000E4
:100C100000000000000000000000000000000000D4
:100C200000000000000000000000000000000000C4
:100C300000000000000000000000000000000000B4
:100C400000000000000000000000000000000000A4
:100C50000000000000000000000000000000000094
:100C60000000000000000000000000000000000084
:100C70000000000000000000000000000000000074
:100C80000000000000000000000000000000000064
:100C90000000000000000000000000000000000054
:100CA0000000000000000000000000000000000044
:100CB0000000000000000000000000000000000034
:100CC000000000003F013F010000000000000000A4
:100CD0000000000000000000000000000000000014
:100CE0000000000000000000000000000000000004
:100CF00000000000000000000000000000000000F4
:100D000000000000000000000000000000000000E3
:100D100000003F013F013F013F01000000000000D3
:100D200000000000000000000000000000000000C3
:100D300000000000000000000000000000000000B3
:100D400000000000000000000000000000000000A3
:100D50000000000000000000000000000000000093
:100D60000000FF0700F800F83F010000000000004D
:100D70000000000000000000000000000000000073
:100D80000000000000000000000000000000000063
:100D90000000000000000000000000000000000053
:100DA0000000000000000000000000000000000043
:100DB000FF07FF0700F800F83F01000000000000F7
:100DC0000000000000000000000000000000000023
:100DD0000000000000000000000000000000000013
:100DE0000000000000000000000000000000000003
:100DF0000000000000000000000000000000FF07ED
:100E0000FF07FF0700F800F80000000000000000E6
:100E100000000000000000000000000000000000D2
:100E200000000000000000000000000000000000C2
:100E300000000000000000000000000000000000B2
:100E4000000000000000000000000000FF07FF0796
:100E5000FF07000000F800F800000000000000009C
:100E60000000000000000000000000000000000082
:100E70000000000000000000000000000000000072
:100E80000000000000000000000000000000000062
:100E900000000000000000000000FF07FF07FF0740
:100EA0000000000000F800F8000000000000000052
:100EB0000000000000000000000000000000000032
:100EC0000000000000000000000000000000000022
:100ED0000000000000000000000000000000000012
:100EE0000000000000000000FF07FF07FF070000F0
:100EF0000000000000F800F8000000000000000002
:100F000000000000000000000000000000000000E1
:100F100000000000000000000000000000000000D1
:100F200000000000000000000000000000000000C1
:100F3000000000000000FF07FF07FF07000000009F
:100F40000000000000F800F80000000000000000B1
:100F50000000000000000000000000000000000091
:100F60000000000000000000000000000000000081
:100F70000000000000000000000000000000000071
:100F800000000000FF07FF07FF070000000000004F
:100F90000000000000F800F8000000000000000061
:100FA0000000000000000000000000000000000041
:100FB0000000000000000000000000000000000031
:100FC0000000000000000000000000000000000021
:100FD0000000FF07FF07FF070000000000000000FF
:100FE0000000000000F800F8000000000000000011
:100FF00000000000000000000000000000000000F1
:1010000000000000000000000000000000000000E0
:1010100000000000000000000000000000000000D0
:10102000FF07FF07FF0700000000000000000000AE
:101030000000000000F800F80000000000000000C0
:1010400000000000000000000000000000000000A0
:101050000000000000000000000000000000000090
:101060000000000000000000000000000000FF077A
:10107000FF07FF0700000000000000000000000064
:101080000000000000F800F8000000000000000070
:101090000000000000000000000000000000000050
:1010A0000000000000000000000000000000000040
:1010B000000000000000000000000000FF07FF0724
:1010C000FF0700000000000000000000000000001A
:1010D0000000000000F800F8000000000000000020
:1010E0000000000000000000000000000000000000
:1010F00000000000000000000000000000000000F0
:1011000000000000000000000000FF07FF07FF07CD
:1011100000000000000000000000000000000000CF
:101120000000000000F800F80000000000000000CF
:1011300000000000000000000000000000000000AF
:10114000000000000000000000000000000000009F
:101150000000000000000000FF07FF07FF0700007D
:10116000000000000000000000000000000000007F
:101170000000000000F800F800000000000000007F
:10118000000000000000000000000000000000005F
:10119000000000000000000000000000000000004F
:1011A000000000000000FF07FF07FF07000000002D
:1011B000000000000000000000000000000000002F
:1011C0000000000000F800F800000000000000002F
:1011D000000000000000000000000000000000000F
:1011E00000000000000000000000000000000000FF
:1011F00000000000FF07FF07FF07000000000000DD
:1012000000000000000000000000000000000000DE
:101210000000000000F800F80000000000000000DE
:1012200000000000000000000000000000000000BE
:1012300000000000000000000000000000000000AE
:101240000000FF07FF07FF0700000000000000008C
:10125000000000000000000000000000000000008E
:101260000000000000F800F800000000000000008E
:10127000000000000000000000000000000000006E
:10128000000000000000000000000000000000005E
:10129000FF07FF07FF07000000000000000000003C
:1012A000000000000000000000000000000000003E
:1012B0000000000000F800F800000000000000003E
:1012C000000000000000000000000000000000001E
:1012D0000000000000000000000000000000FF0708
:1012E000FF07FF07000000000000000000000000F2
:1012F00000000000000000000000000000000000EE
:101300000000000000F800F80000000000000000ED
:1013100000000000000000000000000000000000CD
:10132000000000000000000000000000FF07FF07B1
:10133000FF070000000000000000000000000000A7
:10134000000000000000000000000000000000009D
:101350000000000000F800F800000000000000009D
:10136000000000000000000000000000000000007D
:1013700000000000000000000000FF07FF07FF075B
:10138000000000000000000000000000000000005D
:10139000000000000000000000000000000000004D
:1013A0000000000000F800F800000000000000004D
:1013B000000000000000000000000000000000002D
:1013C0000000000000000000FF07FF07FF0700000B
:1013D000000000000000000000000000000000000D
:1013E00000000000000000000000000000000000FD
:1013F0000000000000F800F80000000000000000FD
:1014000000000000000000000000000000000000DC
:10141000000000000000FF07FF07FF0700000000BA
:1014200000000000000000000000000000000000BC
:1014300000000000000000000000000000000000AC
:101440000000000000F800F80000000000000000AC
:1014500000000000000000000000000000003F014C
:101460003F0100000000FF07FF07FF07FF07FF071E
:10147000FF07FF07FF07FF07FF07FF07FF07FF073C
:10148000FF07FF07FF07FF07FF07FF07FF07FF072C
:10149000FF07FF07FF07FF07FF07FF07FF07FF071C
:1014A000FF07FF07FF07FF07FF07FF07FF07FF070C
:1014B0003F013F010000FF07FF07FF07FF07FF078E
:1014C000FF07FF07FF07FF07FF07FF07FF07FF07EC
:1014D000FF07FF07FF07FF07FF07FF07FF07FF07DC
:1014E000FF07FF07FF07FF07FF07FF07FF07FF07CC
:1014F000FF07FF07FF07FF07FF07FF07FF07FF07BC
:101500003F013F010000000000000000000000005B
:1015100000000000000000000000000000000000CB
:1015200000000000000000000000000000000000BB
:1015300000000000000000000000000000000000AB
:1015400000000000000000000000000000003F015B
:101550003F0100000000000000000000000000004B
:10156000000000000000000000000000000000007B
:10157000000000000000000000000000000000006B
:10158000000000000000000000000000000000005B
:10159000000000000000000000000000000000004B
:1015A000000000000000000000000000000000003B
:1015B000000000000000000000000000000000002B
:1015C000000000000000000000000007F000000024
:1015D00000001FFC00000000007FFF000000000072
:1015E000FFFF8000000001FFFFC000000003FFFFBD
:1015F000E000000003FFFFE000000007FFFFF00035
:10160000000007FFFFF00000000FFFFFF8000000E0
:101610000FFFFFF80000000FFFFFF80000000FFFB2
:10162000FFF80000000FFFFFF80000000FFFFFF8B9
:101630000000000FFFFFF800000007FFFFF00000B0
:101640000007FFFFF000000003FFFFE000000003C1
:10165000FFFFE000000001FFFFC000000000FFFFEF
:1016600080000000007FFF00000000001FFC000061
:101670000007FFFFFFFFF80007FFFFFFFFF800076D
:10168000FFFFFFFFF80007FFFFFFFFF80007FFFF66
:10169000FFFFF80007FFFFFFFFF80007FFFFFFFF56
:1016A000F80007FFFFFFFFF80007FFFFFFFFF8004C
:1016B00007FFFFFFFFF80007FFFFFFFFF80007FF2E
:1016C000FFFFFFF80007FFFFFFFFF80007FFFFFF26
:1016D000FFF80007FFFFFFFFF80007FFFFFFFFF81D
:1016E0000007FFFFFFFFF80007FFFFFFFFF80007FD
:1016F000FFFFFFFFF80007FFFFFFFFF80007FFFFF6
:10170000FFFFF80007FFFFFFFFF80007FFFFFFFFE5
:10171000F80007FFFFFFFFF80007FFFFFFFFF800DB
:1017200007FFFFFFFFF80007FFFFFFFFF80007FFBD
:10173000FFFFFFF80007FFFFFFFFF80007FFFFFFB5
:10174000FFF80007FFFFFFFFF80007FFFFFFFFF8AC
:101750000007FFFFFFFFF80007FFFFFFFFF800078C
:10176000FFFFFFFFF80007FFFFFFFFF80007FFFF85
:10177000FFFFF80007FFFFFFFFF80007FFFFFFFF75
:10178000F80007FFFFFFFFF80007FFFFFFFFF8006B
:1017900007FFFFFFFFF80007FFFFFFFFF80007FF4D
:1017A000FFFFFFF80007FFFFFFFFF80007FFFFFF45
:1017B000FFF8000000000000000000000000000032
:1017C0000000000000000000000000000000000019
:1017D000000000000000003FE00000FFF80001FFF3
:1017E000FC0003FFFE0007FFFF0007FFFF000FFFE5
:1017F000FF800FFFFF800FFFFF800FFFFF800FFFB5
:10180000FF800FFFFF800FFFFF800FFFFF800FFFA4
:10181000FF8007FFFF0007FFFF0003FFFE0001FF3F
:10182000FC0000FFF8007FFFFFF8FFFFFFFCFFFF59
:10183000FFFCFFFFFFFCFFFFFFFCFFFFFFFCFFFFC4
:10184000FFFCFFFFFFFCFFFFFFFCFFFFFFFCFFFFB4
:10185000FFFCFFFFFFFCFFFFFFFCFFFFFFFCFFFFA4
:10186000FFFCFFFFFFFCFFFFFFFCFFFFFFFCFFFF94
:10187000FFFCFFFFFFFCFFFFFFFCFFFFFFFCFFFF84
:10188000FFFCFFFFFFFCFFFFFFFCFFFFFFFCFFFF74
:10189000FFFCFFFFFFFCFFFFFFFCFFFFFFFC000062
:1018A000FF0000000FFFF000001FF0F800007FF0C5
:1018B0001E0000FFF0070003FFF001C007FFF0006B
:1018C000E007FFF000600FFFF000301FFFF000188E
:1018D0001FFFF000183FFFF0000C7FFFF0000E7FAD
:1018E000FFF000067FFFF000067FFFF00006FFFF1D
:1018F000F00003FFFFF00003FFFFF00003FFFFF025
:101900000003FFFFFFFFFFC0001FFFFFC0001FFF1E
:10191000FFC0001FFFFF60001FFFFE60001FFFFEF3
:1019200060001FFFFE70001FFFFE30001FFFFC382D
:10193000001FFFF818001FFFF80C001FFFF0060043
:101940001FFFE007001FFFE003801FFFC000E01F34
:10195000FF0000781FFE00001F1FF800000FFFF0BF
:10196000000000FF000000002100240027002A00E2
:101970002D003000330001010000040107010A01BD
:10198000000020002300260029002C002F00320038
:101990000001000003010601090100000A0B020911
:1019A0000C0D0E08070304010000000000000000F9
:1019B0000000000000000000000000000000000027
:1019C00000000000000012111000000000000000E4
:1019D0000000000000000000000000000000000007
:1019E00000000000003E5B4F5B3E3E6B4F6B3E1CB9
:1019F0003E7C3E1C183C7E3C181C577D571C1C5ED0
:101A00007F5E1C00183C1800FFE7C3E7FF001824A6
:101A10001800FFE7DBE7FF30483A060E2629792950
:101A200026407F050507407F05253F5A3CE73C5A85
:101A30007F3E1C1C08081C1C3E7F14227F22145F62
:101A40005F005F5F06097F017F006689956A6060BD
:101A500060606094A2FFA29408047E040810207EB7
:101A6000201008082A1C08081C2A08081E1010103C
:101A7000100C1E0C1E0C30383E3830060E3E0E0682
:101A8000000000000000005F0000000700070014D5
:101A90007F147F14242A7F2A122313086462364994
:101AA0005620500008070300001C2241000041227C
:101AB0001C002A1C7F1C2A08083E08080080703081
:101AC00000080808080800006060002010080402F0
:101AD0003E5149453E00427F4000724949494621F6
:101AE00041494D331814127F1027454545393C4A6A
:101AF0004949314121110907364949493646494981
:101B0000291E0000140000004034000000081422C8
:101B10004114141414140041221408020159090636
:101B20003E415D594E7C1211127C7F494949363E37
:101B3000414141227F4141413E7F494949417F091D
:101B40000909013E414151737F0808087F00417F28
:101B500041002040413F017F081422417F40404026
:101B6000407F021C027F7F0408107F3E4141413EBE
:101B70007F090909063E4151215E7F091929462640
:101B80004949493203017F01033F4040403F1F2044
:101B900040201F3F4038403F63140814630304781B
:101BA00004036159494D43007F414141020408103B
:101BB00020004141417F0402010204404040404076
:101BC000000307080020545478407F2844443838E4
:101BD00044444428384444287F3854545418000856
:101BE0007E090218A4A49C787F0804047800447D30
:101BF00040002040403D007F1028440000417F40CD
:101C0000007C047804787C08040478384444443820
:101C1000FC1824241818242418FC7C080404084800
:101C20005454542404043F44243C4040207C1C2051
:101C300040201C3C4030403C44281028444C9090AC
:101C4000907C4464544C4400083641000000770006
:101C500000004136080002010204023C2623263C13
:101C60001EA1A161123A4040207A3854545559219E
:101C70005555794122545478422155547840205486
:101C80005579400C1E5272123955555559395454D4
:101C9000545939555454580000457C410002457D43
:101CA000420001457C407D1211127DF0282528F06C
:101CB0007C545545002054547C547C0A097F493299
:101CC000494949323A4444443A324A4848303A4110
:101CD00041217A3A42402078009DA0A07D3D4242B9
:101CE000423D3D4040403D3C24FF2424487E494342
:101CF000662B2FFC2F2BFF0929F620C0887E0903B5
:101D000020545479410000447D413048484A3238DB
:101D10004040227A007A0A0A727D0D19317D262907
:101D2000292F28262929292630484D4020380808FF
:101D3000080808080808382F10C8ACBA2F10283433
:101D4000FA00007B000008142A142222142A140826
:101D50005500550055AA55AA55AAFF55FF55FF0035
:101D60000000FF00101010FF00141414FF001010EA
:101D7000FF00FF1010F010F0141414FC001414F7FE
:101D800000FF0000FF00FF1414F404FC14141710EB
:101D90001F10101F101F1414141F00101010F0003B
:101DA0000000001F101010101F10101010F0100075
:101DB0000000FF101010101010101010FF10000085
:101DC00000FF140000FF00FF00001F10170000FCC0
:101DD00004F414141710171414F404F40000FF0092
:101DE000F714141414141414F700F714141417141B
:101DF00010101F101F141414F4141010F010F00021
:101E0000001F101F0000001F14000000FC14000041
:101E1000F010F01010FF10FF141414FF1410101025
:101E20001F00000000F010FFFFFFFFFFF0F0F0F0D8
:101E3000F0FFFFFF0000000000FFFF0F0F0F0F0F6C
:101E40003844443844FC4A4A4A347E0202060602B8
:101E50007E027E0263554941633844443C04407E1F
:101E6000201E2006027E020299A5E7A5991C2A4998
:101E70002A1C4C7201724C304A4D4D303048784823
:101E800030BC625A463D3E494949007E0101017E0F
:101E90002A2A2A2A2A44445F444440514A44404062
:101EA000444A51400000FF0103E080FF00000808A1
:101EB0006B6B083612362436060F090F0600001821
:101EC000180000001010003040FF0101001F010148
:101ED0001E00191D1712003C3C3C3C000000000095
:101EE00000002200250028002B002E0031003400C5
:101EF00002010000050108010B0101021020200869
:101F00000810204010204080020102010804020154
:101F100001020408102040808040201008040201C3
:101F2000800402018040201008040201080402011C
:101F300001020408102040800102040810204080A3
:101F400005050505070508080808020202020A0A35
:101F50000808040404040101010101010101030353
:101F6000030303030303040707070C0C0C0C0C0CFE
:101F70000C0C0202020206060606060606060B0BFB
:101F80000B0B0B0B0B0BC88BB88B11241FBECFEFA9
:101F9000D1E2DEBFCDBF00E00CBF19E0A0E0B2E0AF
:101FA000E8E1FCE201E00BBF02C007900D92AC3803
:101FB000B107D9F72DE0ACE8B9E001C01D92A03E11
:101FC000B207E1F71FE0C4ECDFE000E006C02197B4
:101FD0000109802FFE010E94B193C33CD10780E02C
:101FE0000807A9F70E94C16F0C94FB950C940000A0
:101FF0002F923F924F925F926F927F928F929F9219
:10200000AF92BF92CF92DF92EF92FF920F931F9306
:10201000CF93DF93CDB7DEB7D2500FB6F894DEBFC3
:102020000FBECDBF9E012F553F4FCD52DE4F39839E
:102030002883C35DD1408E010F5A1F4FC8010E94F3
:102040001927005F1F4FCD52DE4F48815981C35D74
:10205000D1400417150791F740E250E060E070E0CE
:10206000FE01E75EFE4F419351936193719380E1CE
:10207000DF01282F1D922A95E9F7FE01EB5FFE4F45
:102080004193519361937193DF011D928A95E9F712
:10209000C0905C0AD0905D0AE0905E0AF0905F0A02
:1020A0002AE037ED43EA5DE3C701B6010E943990AB
:1020B0000E948F92CF50DE4F79836883C15FD140F9
:1020C0002DEC3CEC4CE05FE3C701B6010E94399077
:1020D0000E948F92CD50DE4F79836883C35FD140D9
:1020E000C090580AD090590AE0905A0AF0905B0AC2
:1020F0002DEC3CEC4CE45EE3C701B6010E94399044
:102100000E948F92C750DE4F79836883C95FD140A8
:10211000072E000C880B990B0E94DA8F4B015C0193
:102120002CEE31E548EB5DE3C701B6010E94399022
:102130009B01AC01C501B4010E9461910E948F9284
:10214000C151DE4F79836883CF5ED140EE24E394A2
:10215000F12CFA82E9827CE3C72E77EED72EDC825F
:10216000CB8269E074E0CE0105960E94633C0FEFDC
:102170001FEF1C870B872AE037ED43EA5EE360918F
:102180005C0A70915D0A80915E0A90915F0A0E94DC
:1021900039900E948F927E876D8726E636E646E26A
:1021A0005FE36091580A7091590A80915A0A9091A0
:1021B0005B0A0E9439900E948F92788B6F87BE01D4
:1021C0006F5F7F4FCE018F5A9F4F0E945452CE01B6
:1021D00005960E94EB3BE2E0AE2EB12CBA82A982BA
:1021E000DC82CB826EE674E0CE0105960E94633CF1
:1021F0001C870B87FE86ED8626E636E646E25FE321
:102200006091580A7091590A80915A0A90915B0A1C
:102210000E9439900E948F92788B6F87BE016F5F0A
:102220007F4F81E590E08C0F9D1F40960E94545295
:10223000CE0105960E94EB3B83E090E09A83898370
:1022400080E098EF9C838B8368E174E0CE01059673
:102250000E94633C1C870B87FE86ED8621EE3AE7E1
:1022600044E55FE36091580A7091590A80915A0AD7
:1022700090915B0A0E94399020E030E040E751E401
:102280000E9461910E948F92788B6F87BE016F5F71
:102290007F4F81E590E08C0F9D1F80960E945452E5
:1022A000CE0105960E94EB3BFA82E98280EE97E030
:1022B0009C838B836CE274E0CE0105960E94633CA4
:1022C0001C870B872AE037ED43EA5EE360915C0AE6
:1022D00070915D0A80915E0A90915F0A0E94399028
:1022E0000E948F927E876D8721EE3AE744E55FE397
:1022F0006091580A7091590A80915A0A90915B0A2C
:102300000E9439900E948F92788B6F87BE016F5F19
:102310007F4F81E590E08C0F9D1FC0960E94545224
:10232000CE0105960E94EB3BBA82A982DC82CB8269
:1023300067E774E0CE0105960E94633C1C870B871B
:1023400020E030E040E45FE360915C0A70915D0A58
:1023500080915E0A90915F0A0E9439900E948F924C
:102360007E876D8721EE3AE744E55FE36091580A86
:102370007091590A80915A0A90915B0A0E94399093
:102380000E948F92788B6F87BE016F5F7F4FCE0167
:102390008F569F4F0E945452CE0105960E94EB3BF0
:1023A0008091A20A811117C010929E0A10929F0A72
:1023B0001092A00A1092A10A81E39CE0A3ECBDE375
:1023C00080939A0A90939B0AA0939C0AB0939D0ACB
:1023D00081E08093A20A8091920A811117C0109225
:1023E0008E0A10928F0A1092900A1092910A81E33D
:1023F0009CE0A3ECBDE380938A0A90938B0AA093A0
:102400008C0AB0938D0A81E08093920A0E94703FFB
:10241000CB50DE4F688379838A839B83C55FD1402D
:1024200082E89DE00E940B5385E79DE00E940B53DC
:10243000332433949E012F5F3F4FC952DE4F3983BF
:102440002883C75DD14041EA50E04C0F5D1F4C5FCF
:102450005F4FC352DE4F59834883CD5DD1408DE23B
:1024600091E08C0F9D1F0496C751DE4F998388839E
:10247000C95ED14082E89DE00E94EE529B01AC0112
:10248000C0909E0AD0909F0AE090A00AF090A10A06
:10249000C701B6010E94609120919A0A30919B0A6F
:1024A00040919C0A50919D0A0E9439909B01AC0179
:1024B000C701B6010E94609160939E0A70939F0AC3
:1024C0008093A00A9093A10A85E79DE00E94EE52B6
:1024D0009B01AC01C0908E0AD0908F0AE090900AC8
:1024E000F090910AC701B6010E94609120918A0A7A
:1024F00030918B0A40918C0A50918D0A0E9439903C
:102500009B01AC01C701B6010E9460916B017C0187
:1025100060938E0A70938F0A8093900A9093910A29
:1025200080909E0A90909F0AA090A00AB090A10A65
:1025300020E030E0A901C501B4010E94E59220E04D
:1025400030E040E05FE387FD05C0C501B4010E94B3
:10255000619104C0C501B4010E9460910E948F92F4
:102560000E94DA8F4B015C0120E030E0A901C70135
:10257000B6010E94E59220E030E040E05FE387FD95
:1025800005C0C701B6010E94619104C0C701B60130
:102590000E9460910E948F920E94DA8F6B017C01F1
:1025A0009B01AC01C501B4010E946191C752DE4F8D
:1025B000688379838A839B83C95DD1404090BE093B
:1025C0005090BF096090C0097090C109A3019201A9
:1025D000C501B4010E9439904B015C012091BA09F8
:1025E0003091BB094091BC095091BD09C301B201B2
:1025F0000E9461919B01AC01C701B6010E94399014
:102600009B01AC01C501B4010E946191C752DE4F2C
:10261000288139814A815B81C95DD1400E9427921E
:102620004B015C01209100023091010240910202B5
:10263000509103020E9439908E010F501F4F20E0ED
:1026400043E00E94138D20910602309107024091D1
:10265000080250910902C752DE4F688179818A8150
:102660009B81C95DD1400E9439900451110920E03D
:1026700044E00E94138D332009F405C160E070E04E
:102680008FE89DE00E94AD260C581109B801CE01DB
:1026900001960E94F226CE0101960E945127CE019A
:1026A00005960E94EB3B005F1F4FCD52DE4FA88185
:1026B000B981C35DD1400A171B0741F72AE037ED06
:1026C00043E25DE36091580A7091590A80915A0A79
:1026D00090915B0A0E9439900E948F922B013C01DD
:1026E0002CEE31E548E35EE360915C0A70915D0A8F
:1026F00080915E0A90915F0A0E9439900E948F92A9
:10270000DC01CB01EE24EA94FE2C08E210E028E282
:1027100030E04EE958E1B2010E941C532AE037ED47
:1027200043EA5CE36091580A7091590A80915A0A11
:1027300090915B0A0E9439900E948F922B013C017C
:1027400020E030E040E45FE360915C0A70915D0A54
:1027500080915E0A90915F0A0E9439900E948F9248
:10276000DC01CB015CE3E52E57EEF52E02E310E031
:102770002EE130E046ED57E1B2010E941C538FEF8D
:102780009FEF9093A20D8093A10D9093A00D809345
:102790009F0D81E08093A30D8093A40DCF50DE4F59
:1027A00028813981C15FD140B901330F880B990B62
:1027B0000E94DA8F6B017C012DEC3CEC4CEC5DE36C
:1027C00060915C0A70915D0A80915E0A90915F0A47
:1027D0000E9439909B01AC01C701B6010E94619132
:1027E0000E948F9270939C0D60939B0DC750DE4F9B
:1027F00048815981C95FD14050939E0D40939D0DF2
:1028000060ED7DE08FE89DE00E94173ECD50DE4FE9
:10281000A881B981C35FD140BD01BB0F880B990B63
:102820000E94DA8F6B017C012DEC3CEC4CE45EE302
:1028300060915C0A70915D0A80915E0A90915F0AD6
:102840000E9439909B01AC01C701B6010E946191C1
:1028500020E030E0A9010E9461910E948F92709364
:102860009C0D60939B0DC750DE4F28813981C95F55
:10287000D14030939E0D20939D0D64EC7DE08FE858
:102880009DE00E94173E0E94703FDC01CB01CB50BF
:10289000DE4F288139814A815B81C55FD140821B2F
:1028A000930BA40BB50B88379540A105B10508F42F
:1028B000CFC01092A20D1092A10D1092A00D1092F7
:1028C0009F0D05E00093A30D0093A40DCF50DE4FA4
:1028D00048815981C15FD14050939C0D40939B0D1D
:1028E000C151DE4F88819981CF5ED14090939E0D7A
:1028F00080939D0DBE01675E7E4F8FE89DE00E9434
:10290000C23C14E01093A30D1093A40DCD50DE4FE4
:10291000A881B981C35FD140B0939C0DA0939B0D5A
:10292000C151DE4F28813981CF5ED14030939E0D59
:1029300020939D0DBE016B5F7E4F8FE89DE00E944E
:10294000C23C80EE97E09093A20D8093A10D9093EE
:10295000A00D80939F0D0093A30D0093A40DCF5065
:10296000DE4F48815981C15FD14050939C0D409307
:102970009B0DC151DE4F88819981CF5ED1409093EC
:102980009E0D80939D0DBE016F507F4F8FE89DE09F
:102990000E94C23C8CE397EE9093A20D8093A10D10
:1029A0009093A00D80939F0D1093A30D1093A40DF1
:1029B000CD50DE4FA881B981C35FD140B0939C0D4B
:1029C000A0939B0DC151DE4F28813981CF5ED1404C
:1029D00030939E0D20939D0DBE0163527F4F8FE873
:1029E0009DE00E94C23C2091000230910102409182
:1029F000020250910302C501B4010E9439908E0178
:102A0000075E1E4F20E043E00E94138D20910602D6
:102A1000309107024091080250910902C752DE4FDF
:102A2000688179818A819B81C95DD1400E943990FA
:102A30000451110920E044E00E94138D0E94703F70
:102A4000CB50DE4F688379838A839B83C55FD140F7
:102A50000E943C28811102C0312C0CCDAE014F5A8E
:102A60005F4F6A0107EE13E0E12CF12CB601CE01B5
:102A700001960E94F226B701CE0101960E941E2700
:102A8000B82ECE0105960E94EB3BB11087015FEF97
:102A9000E51AF50A80E1C80ED11C95E0E916F104AB
:102AA00029F70230110509F497C43CF4011511050A
:102AB00079F001301105B1F0CFCF0330110511F4D9
:102AC0000C94FD1F0430110511F40C940B20C4CF9D
:102AD00082E89DE00E940B5385E79DE00E940B5326
:102AE0000C9487268091800A811117C010927C0A6D
:102AF00010927D0A10927E0A10927F0A81E39CE078
:102B0000A3ECBDE38093780A9093790AA0937A0AA4
:102B1000B0937B0A81E08093800A8091700A8111D2
:102B200017C010926C0A10926D0A10926E0A1092E1
:102B30006F0A81E39CE0A3ECBDE38093680A909365
:102B4000690AA0936A0AB0936B0A81E08093700AC5
:102B5000C090580AD090590AE0905A0AF0905B0A47
:102B60002DEC3CEC4CE45DE3C701B6010E943990CA
:102B70000E948F92C152DE4F688379838A839B8340
:102B8000CF5DD14028EB3EE145E05EE3C701B601F1
:102B90000E9439900E948F92C551DE4F68837983DD
:102BA0008A839B83CB5ED14026E636E646EE5EE323
:102BB000C701B6010E9439900E948F924B015C01BF
:102BC000072E000C880B990B0E94DA8F2B013C0119
:102BD0002FE832EC45E75DE3C701B6010E9439906A
:102BE0009B01AC01C301B2010E9461910E948F92CE
:102BF000C752DE4F79836883C95DD140C0905C0ABB
:102C0000D0905D0AE0905E0AF0905F0A2DEC3CECFB
:102C10004CEC5DE3C701B6010E9439900E948F928F
:102C20002B013C01C951DE4F79836883C75ED140D7
:102C30002AE939E949E15FE3C701B6010E94399009
:102C40000E948F926B017C01CD51DE4F79836883A6
:102C5000C35ED1408E0107531F4F20E044E060E087
:102C600070E0CB010E94138D0451110920E044E073
:102C700060E070E0CB010E94138D1E01A1E52A0ED9
:102C8000311C045B1109C8010E941927005F1F4F06
:102C900002151305C1F701E010E0CF55DF4F19838E
:102CA0000883C15AD0408CE397EECD55DF4F99830E
:102CB0008883C35AD04069E074E0C352DE4F8881F4
:102CC0009981CD5DD1400E94633C22242A94322C0C
:102CD000C555DF4F39822882CB5AD0402DEC3CECD1
:102CE0004CE45DE360915C0A70915D0A80915E0A3C
:102CF00090915F0A0E9439900E948F92C355DF4FD6
:102D000079836883CD5AD0402AE939E949E55FE300
:102D10006091580A7091590A80915A0A90915B0A01
:102D20000E9439900E948F92C155DF4F798368834A
:102D3000CF5AD040BE016F557F4FCE0101960E9401
:102D40005452C352DE4F88819981CD5DD1400E949B
:102D5000EB3BCF55DF4F19830883C15AD04080EE3B
:102D600097E0CD55DF4F99838883C35AD0406CE2FA
:102D700074E0C352DE4F88819981CD5DD1400E94BD
:102D8000633CC555DF4F39822882CB5AD0402DECA9
:102D90003CEC4CE05FE360915C0A70915D0A8091CD
:102DA0005E0A90915F0A0E9439900E948F92C355EB
:102DB000DF4F79836883CD5AD0402AE939E949E564
:102DC0005FE36091580A7091590A80915A0A909174
:102DD0005B0A0E9439900E948F92C155DF4F798320
:102DE0006883CF5AD040BE016F557F4FCE014196C8
:102DF0000E945452C352DE4F88819981CD5DD140EB
:102E00000E94EB3B60E070E08FE89DE00E94AD2601
:102E1000BE016F5F7F4FCE018F559F4F0E94F226FC
:102E2000CE018F559F4F0E945127C352DE4F88819C
:102E30009981CD5DD1400E94EB3BBE016F5E7F4F1B
:102E4000CE018F559F4F0E94F226CE018F559F4F86
:102E50000E945127C352DE4F88819981CD5DD140B8
:102E60000E94EB3B3092A20D2092A10D3092A00D5A
:102E700020929F0D82E08093A30D8093A40D109269
:102E80009C0D10929B0DC152DE4F28813981CF5D80
:102E9000D14030939E0D20939D0D60E874E08FE843
:102EA0009DE00E94C23C24EA30E74DEB5EE3609176
:102EB0005C0A70915D0A80915E0A90915F0A0E949F
:102EC00039900E948F9270939C0D60939B0DC55119
:102ED000DE4F48815981CB5ED14050939E0D409387
:102EE0009D0D64EC7DE08FE89DE00E94173E81E03F
:102EF0008093A30D8093A40D50929C0D40929B0D46
:102F000090929E0D80929D0D65E974E08FE89DE0A2
:102F10000E94C23CD0929C0DC0929B0D90929E0D3F
:102F200080929D0D6DE974E08FE89DE00E94C23CA7
:102F300020E030E040E85EE36091580A7091590A61
:102F400080915A0A90915B0A0E9439900E948F9258
:102F50004B015C012DEC3CEC4CEC5EE360915C0AB7
:102F600070915D0A80915E0A90915F0A0E9439908B
:102F70000E948F92DC01CB012CE3E22E27EEF22E91
:102F800000E510E022E330E046EA55E1B4010E949A
:102F90001C530E94703F2B013C0137EE232E33E07F
:102FA000332E1EE1E12EF12CB4E62B1631046CF128
:102FB0000E943C28882329F1CE0101966C0100E093
:102FC00010E0B601CE018F559F4F0E94F226B80146
:102FD000CE018F559F4F0E941E27B82EC352DE4F41
:102FE00088819981CD5DD1400E94EB3BB1101801E1
:102FF00090E1C90ED11C0130110519F001E010E07B
:10300000E0CFA1E0EA1AF10879F62114310451F079
:1030100021E02216310481F1C152DE4F1882CF5DCA
:10302000D14030C082E89DE00E940B5382E89DE0D1
:103030000E94EE5260937C0A70937D0A80937E0A10
:1030400090937F0A85E79DE00E940B5385E79DE002
:103050000E94EE5260936C0A70936D0A80936E0A20
:1030600090936F0AC152DE4F1882CF5DD14007EEB8
:10307000202E03E0302E06C031E0C152DE4F3883EF
:10308000CF5DD14082E89DE00E94EE529B01AC01F1
:1030900085E79DE0C050DE4F2883C050D240C3502A
:1030A000DE4F3883CD5FD140C250DE4F4883CE5FC4
:1030B000D140C150DE4F5883CF5FD1400E94EE52C5
:1030C000C551DE4F688379838A839B83CB5ED14071
:1030D000C0907C0AD0907D0AE0907E0AF0907F0A32
:1030E000C050DE4F2881C050D240C350DE4F3881DF
:1030F000CD5FD140C250DE4F4881CE5FD140C1503C
:10310000DE4F5881CF5FD140C701B6010E94609168
:103110002091780A3091790A40917A0A50917B0A7D
:103120000E9439909B01AC01C701B6010E946091D9
:103130006B017C0160937C0A70937D0A80937E0A08
:1031400090937F0A80906C0A90906D0AA0906E0A0E
:10315000B0906F0AC551DE4F288139814A815B8169
:10316000CB5ED140C501B4010E9460912091680AF4
:103170003091690A40916A0A50916B0A0E94399015
:103180009B01AC01C501B4010E9460914B015C013F
:1031900060936C0A70936D0A80936E0A90936F0A25
:1031A00020E030E0A901C701B6010E94E59220E0CD
:1031B00030E040E05FE387FD05C0C701B6010E9433
:1031C000619104C0C701B6010E9460910E948F9274
:1031D0000E94DA8F6B017C0120E030E0A901C5017B
:1031E000B4010E94E59220E030E040E05FE387FD1B
:1031F00005C0C501B4010E94619104C0C501B401BC
:103200000E9460910E948F920E94DA8F4B015C01B4
:103210000E94703FDC01CB0184199509A609B7090A
:1032200088379540A105B10508F4BAC0209106027F
:10323000309107024091080250910902C701B6017E
:103240000E9439908E01035C1E4F20E044E00E94F2
:10325000138D20910602309107024091080250918F
:103260000902C501B4010E9439900051110920E002
:1032700044E00E94138D1092A20D1092A10D1092A5
:10328000A00D10929F0D83E08093A30D8093A40D59
:10329000C951DE4F88819981C75ED14090939C0DC2
:1032A00080939B0DC752DE4FA881B981C95DD14083
:1032B000B0939E0DA0939D0DBE0167537F4F8FE885
:1032C0009DE00E94C23CCD51DE4F28813981C35E12
:1032D000D14030939C0D20939B0DC752DE4F488107
:1032E0005981C95DD14050939E0D40939D0DBE0103
:1032F0006B547F4F8FE89DE00E94C23C8FEF9FEFA1
:103300009093A20D8093A10D9093A00D80939F0D9B
:10331000C951DE4F88819981C75ED14090939C0D41
:1033200080939B0DC752DE4FA881B981C95DD14002
:10333000B0939E0DA0939D0DBE01635C7E4F8FE800
:103340009DE00E94C23CCD51DE4F28813981C35E91
:10335000D14030939C0D20939B0DC752DE4F488186
:103360005981C95DD14050939E0D40939D0DB80188
:103370008FE89DE00E94C23C0456110920E044E021
:10338000C701B6010E94138D0451110920E044E0E9
:10339000C501B4010E94138D0E94703F2B013C01B6
:1033A000C152DE4F5881CF5DD140552309F4F9CD8C
:1033B0008E010F5A1F4F00511109C80104960E9437
:1033C000EB3BC952DE4F88819981C75DD140081718
:1033D000190789F70C948726C090580AD090590A8B
:1033E000E0905A0AF0905B0A2DEC3CEC4CE45DE373
:1033F000C701B6010E9439900E948F924B015C0177
:10340000C152DE4F79836883CF5DD1402AE939E923
:1034100049E95EE3C701B6010E9439900E948F928C
:10342000C752DE4F79836883C95DD14020E030E028
:10343000A90160915C0A70915D0A80915E0A909189
:103440005F0A0E9439900E948F922B013C011B0160
:1034500082E08093A30D8093A40D8E010F5F1F4F18
:103460007E0191E5E90EF11CC8010E941927005F59
:103470001F4F0E151F05C1F7EE24E394F12CCF5515
:10348000DF4FF982E882C15AD040BCE3CB2EB7EEC1
:10349000DB2ECD55DF4FD982C882C35AD0406CE2B3
:1034A00074E0C352DE4F88819981CD5DD1400E9486
:1034B000633C0FEF1FEFC555DF4F19830883CB5ACD
:1034C000D0402DEC3CEC4CE45DE360915C0A7091E3
:1034D0005D0A80915E0A90915F0A0E9439900E9475
:1034E0008F92C355DF4F79836883CD5AD0402AE944
:1034F00039E949E55FE36091580A7091590A809172
:103500005A0A90915B0A0E9439900E948F92C1558D
:10351000DF4F79836883CF5AD040BE016F557F4F0C
:10352000CE0101960E945452C352DE4F8881998188
:10353000CD5DD1400E94EB3BCF55DF4FF982E88251
:10354000C15AD040CD55DF4FD982C882C35AD0402E
:1035500066EA74E0C352DE4F88819981CD5DD14027
:103560000E94633CC555DF4F19830883CB5AD04076
:103570002DEC3CEC4CE05FE360915C0A70915D0ADD
:1035800080915E0A90915F0A0E9439900E948F920A
:10359000C355DF4F79836883CD5AD0402AE939E992
:1035A00049E55FE36091580A7091590A80915A0A7F
:1035B00090915B0A0E9439900E948F92C155DF4F13
:1035C00079836883CF5AD040BE016F557F4FCE01BB
:1035D00041960E945452C352DE4F88819981CD5D3D
:1035E000D1400E94EB3BCF55DF4FF982E882C15AB0
:1035F000D040CD55DF4FD982C882C35AD04066EA49
:1036000074E0C352DE4F88819981CD5DD1400E9424
:10361000633CC555DF4F19830883CB5AD0408AE0FD
:1036200090E0C355DF4F99838883CD5AD0402AE973
:1036300039E949E55FE36091580A7091590A809130
:103640005A0A90915B0A0E9439900E948F92C1554C
:10365000DF4F79836883CF5AD040BE016F557F4FCB
:10366000CE0181960E945452C352DE4F88819981C7
:10367000CD5DD1400E94EB3BCF55DF4FF982E88210
:10368000C15AD04080EE97E0CD55DF4F99838883B3
:10369000C35AD0406BEA74E0C352DE4F88819981EF
:1036A000CD5DD1400E94633CC555DF4F198308832F
:1036B000CB5AD0402DEC3CEC4CE45DE360915C0ACD
:1036C00070915D0A80915E0A90915F0A0E94399024
:1036D0000E948F92C355DF4F79836883CD5AD040C3
:1036E0002AE939E949E55FE36091580A7091590A7E
:1036F00080915A0A90915B0A0E9439900E948F92A1
:10370000C155DF4F79836883CF5AD040BE016F55D2
:103710007F4FCE01C1960E945452C352DE4F888122
:103720009981CD5DD1400E94EB3B60E070E08FE875
:103730009DE00E94AD268091880A9091890A0197A8
:1037400021F41092890A1092880A60EB74E080E1FB
:103750009CE00E94C23CBE016F5F7F4FCE018F553F
:103760009F4F0E94F226CE018F559F4F0E945127F6
:1037700071EAE72EF12CEC0EFD1EA4E0EA0EF11C1E
:10378000C7010E94EB3B8E010F5E1F4FB801CE01B7
:103790008F559F4F0E94F226CE018F559F4F0E945A
:1037A0005127C7010E94EB3B8FEF9FEF9093A20D33
:1037B0008093A10D9093A00D80939F0D82E0809344
:1037C000A30D8093A40D50929C0D40929B0D90925E
:1037D0009E0D80929D0D62EC74E08FE89DE00E944A
:1037E000C23C412C512C3201C12CD12CC951DE4F8D
:1037F0000883C75ED140CD51DE4F1883C35ED140F0
:10380000E0EE8E2EE7E09E2EAA24AA94BA2CB2E017
:10381000CB16D10409F41BC14CF4C114D10489F0B6
:1038200031E0C316D10409F45DC0F1CF43E0C41602
:10383000D10409F4E9C154E0C516D10409F4ABC2BE
:10384000E6CF0E943C28811105C00E943C288823B5
:10385000F1F21EC0BE016F5F7F4FCE018F559F4FAB
:103860000E94F22660E070E0CE018F559F4F0E94CB
:103870001E27182FC352DE4F88819981CD5DD1401C
:103880000E94EB3B112309F38E010F5A1F4FA5C372
:10389000C951DE4F6881C75ED140CD51DE4F78817E
:1038A000C35ED140CE018F559F4F0E94F22661E04A
:1038B00070E0CE018F559F4F0E941E27182FC352D4
:1038C000DE4F88819981CD5DD1400E94EB3B112371
:1038D00009F49DCF1092890A1092880ACC24C394CF
:1038E000D12C95CF8091880A9091890A892B09F073
:1038F00050C01092A20D1092A10D1092A00D109226
:103900009F0D30929C0D20929B0DC152DE4F8881FD
:103910009981CF5DD14090939E0D80939D0D62EC77
:1039200074E08FE89DE00E94C23CB092A20DA0928C
:10393000A10DB092A00DA0929F0D30929C0D2092EF
:103940009B0DC152DE4FA881B981CF5DD140B093AC
:103950009E0DA0939D0D64ED74E08FE89DE00E94A4
:10396000C23CD092890AC092880A68EE74E080E175
:103970009CE00E94C23C4F8558896D857E85E12C74
:10398000F12C02E310E02AE530E08FE89DE00E9490
:103990007A4B0E943C28882309F439CFC951DE4F65
:1039A0006881C75ED140CD51DE4F7881C35ED14082
:1039B000CE018F559F4F0E94F22661E070E0CE014C
:1039C0008F559F4F0E941E27182FC352DE4F8881AC
:1039D0009981CD5DD1400E94EB3B112309F417CFB3
:1039E0009092A20D8092A10D9092A00D80929F0DB9
:1039F00030929C0D20929B0DC752DE4F2881398159
:103A0000C95DD14030939E0D20939D0D64E075E01B
:103A10008FE89DE00E94C23C68EE73E080E090E099
:103A20000E94383F1092890A1092880A60E782E863
:103A30009DE00E9422402B013C0165E175E080E1A0
:103A40009CE00E94C23C52E0C52ED12CE0CE809179
:103A5000880A9091890A892B09F058C01092A20D0A
:103A60001092A10D1092A00D10929F0D30929C0DFE
:103A700020929B0DC152DE4F48815981CF5DD140CC
:103A800050939E0D40939D0D64ED74E08FE89DE092
:103A90000E94C23C30929C0D20929B0DC752DE4F7B
:103AA00088819981C95DD14090939E0D80939D0D31
:103AB00064E075E08FE89DE00E94C23CB092A20DE8
:103AC000A092A10DB092A00DA0929F0D30929C0DDE
:103AD00020929B0DC152DE4FA881B981CF5DD140AC
:103AE000B0939E0DA0939D0D63E275E08FE89DE07D
:103AF0000E94C23C67E375E080E19CE00E94C23C0A
:103B000081E090E09093890A8093880A0E943C2883
:103B1000882309F47CCEC951DE4F6881C75ED1404D
:103B2000CD51DE4F7881C35ED140CE018F559F4F7E
:103B30000E94F22661E070E0CE018F559F4F0E94F7
:103B40001E27182FC352DE4F88819981CD5DD14049
:103B50000E94EB3B112309F45ACE9092A20D809261
:103B6000A10D9092A00D80929F0D30929C0D2092FD
:103B70009B0DC752DE4F28813981C95DD1403093FA
:103B80009E0D20939D0D64E575E08FE89DE00E94F9
:103B9000C23C68EE73E080E090E00E94383F1092F3
:103BA000890A1092880A60E782E89DE00E9422401C
:103BB00064197509860997092091B8093091B909E6
:103BC000032E000C440B550B0E940391CA01B9014E
:103BD0000E94DA8F6093B0097093B1098093B209A3
:103BE0009093B30960938B0D70938C0D80938D0D22
:103BF00090938E0D64E675E080E19CE00E94C23CEB
:103C000043E0C42ED12C03CE8091880A9091890A7A
:103C1000892B09F058C01092A20D1092A10D10929C
:103C2000A00D10929F0D30929C0D20929B0DC152C1
:103C3000DE4F48815981CF5DD14050939E0D409316
:103C40009D0D63E275E08FE89DE00E94C23C3092DA
:103C50009C0D20929B0DC752DE4F88819981C95DD2
:103C6000D14090939E0D80939D0D64E575E08FE8A3
:103C70009DE00E94C23CB092A20DA092A10DB09214
:103C8000A00DA0929F0D30929C0D20929B0DC152D1
:103C9000DE4FA881B981CF5DD140B0939E0DA09336
:103CA0009D0D64E775E08FE89DE00E94C23C81E0D5
:103CB00090E09093890A8093880A69E875E080E132
:103CC0009CE00E94C23C0E943C28882309F49FCDBE
:103CD000C951DE4F6881C75ED140CD51DE4F78813A
:103CE000C35ED140CE018F559F4F0E94F22661E006
:103CF00070E0CE018F559F4F0E941E27182FC35290
:103D0000DE4F88819981CD5DD1400E94EB3B11232C
:103D100009F47DCD9092A20D8092A10D9092A00DFC
:103D200080929F0D30929C0D20929B0DC752DE4FCA
:103D300028813981C95DD14030939E0D20939D0D1E
:103D400064E075E08FE89DE00E94C23C68EE73E09D
:103D500080E090E00E94383F60E785E79DE00E94A8
:103D600022402B013C011092890A1092880A80E0BF
:103D700090E00E94DD6C64EA75E080E19CE00E94C6
:103D8000C23C64EF71E080E090E00E94383F34E094
:103D9000C32ED12C3CCD8091880A9091890A892B21
:103DA00009F05EC01092A20D1092A10D1092A00D0C
:103DB00010929F0D30929C0D20929B0DC152DE4FB0
:103DC00048815981CF5DD14050939E0D40939D0D08
:103DD00064E775E08FE89DE00E94C23C30929C0D44
:103DE00020929B0DC752DE4F88819981C95DD140D9
:103DF00090939E0D80939D0D64E075E08FE89DE0AB
:103E00000E94C23CB092A20DA092A10DB092A00D52
:103E1000A0929F0D30929C0D20929B0DC152DE4FBF
:103E2000A881B981CF5DD140B0939E0DA0939D0D27
:103E30006AEB75E08FE89DE00E94C23C81E090E073
:103E40009093890A8093880A6FEC75E080E19CE08A
:103E50000E94C23C64EF71E080E090E00E94383F35
:103E60000E943C28882309F4D2CCC951DE4F6881D6
:103E7000C75ED140CD51DE4F7881C35ED140CE01C7
:103E80008F559F4FAFD761E070E0CE018F559F4FA8
:103E9000D5D7182FC352DE4F88819981CD5DD1408F
:103EA0000E94EB3B112309F4B2CC80EE97E0909393
:103EB000A20D8093A10D9093A00D80939F0D309241
:103EC0009C0D20929B0DC752DE4F28813981C95D20
:103ED000D14030939E0D20939D0D64E575E08FE8F1
:103EE0009DE00E94C23C68EE73E080E090E00E949A
:103EF000383F1092890A1092880A60E785E79DE0B2
:103F00000E94224064197509860997092091B80911
:103F10003091B909032E000C440B550B0E940391FC
:103F2000CA01B9010E94DA8F6093B4097093B50990
:103F30008093B6099093B70960937E0D70937F0DBF
:103F40008093800D9093810D1092A20D1092A10D7F
:103F50001092A00D10929F0D30929C0D20929B0DFF
:103F6000C752DE4F48815981C95DD14050939E0DA3
:103F700040939D0D64E575E08FE89DE00E94C23C92
:103F80008FEF9FEF9093A20D8093A10D9093A00DC2
:103F900080939F0D30929C0D20929B0DC752DE4F57
:103FA00088819981C95DD14090939E0D80939D0D2C
:103FB0006BEE75E08FE89DE00E94C23C0E94842F6A
:103FC0006CE271E080E090E00E94383F6DEF75E0B8
:103FD00080E19CE00E94C23C57CC00511109C8010D
:103FE00004960E94EB3BC952DE4FA881B981C75DA0
:103FF000D1400A171B0789F78AC662E370E080E0A8
:1040000090E00E94383F8E010F551F4F7E01B1E5B1
:10401000EB0EF11C80C662E176E0CE018B5A9E4F1A
:104020000E94633C6BE176E0CE01815B9E4F0E9473
:10403000633C2091000230910102409102025091B4
:1040400003026091BA097091BB098091BC099091FB
:10405000BD090E9439908E0107531F4F20E045E0B3
:104060000E94138D209100023091010240910202C2
:10407000509103026091BE097091BF098091C009FF
:104080009091C1090E9439900451110920E045E046
:104090000E94138D6091B8097091B909072E000C28
:1040A000880B990B0E94DA8F20910602309107024B
:1040B00040910802509109020E943990045111095F
:1040C00020E045E00E94138D8091C2099091C309C0
:1040D000019739F46BE176E0CE018B5A9E4F0E9436
:1040E000D63BC0905C0AD0905D0AE0905E0AF090EA
:1040F0005F0A2AE037ED43E25CE3C701B6010E94A4
:1041000039900E948F921B0126E636E646EE5EE36A
:10411000C701B6010E9439900E948F92C951DE4FAB
:1041200079836883C75ED14020E030E040E45FE3FC
:10413000C701B6010E9439900E948F92CD51DE4F87
:10414000688379838A839B83C35ED1408090580AB9
:104150009090590AA0905A0AB0905B0A29E23CE577
:104160004FE05EE3C501B4010E9439900E948F9236
:104170002B013C012AE939E949E95EE3C501B401B3
:104180000E9439900E948F926B017C01C551DE4FD5
:1041900079836883CB5ED1409B01240D351DC752C6
:1041A000DE4F39832883C95DD140240D351DC152AE
:1041B000DE4F39832883CF5DD140420E531E2DEC54
:1041C0003CEC4CE45DE3C501B4010E9439900E94CF
:1041D0008F923B01AE014F5A5F4FCB52DE4F598356
:1041E0004883C55DD1408E010F5F1F4FC80121D6A6
:1041F000005F1F4FCB52DE4F88819981C55DD14052
:104200000817190799F793E0A92EB12CC35DDE4F6B
:10421000B982A882CD52D1400CE317EEC15DDE4FCA
:1042200019830883CF52D14064E276E0C751DE4F54
:1042300088819981C95ED1400E94633C88248A9418
:10424000982CC95CDE4F99828882C753D140CD51EA
:10425000DE4FA881B981C35ED140C75CDE4FB98310
:10426000A883C953D140BAE0CB1AD108C55CDE4F50
:10427000D982C882CB53D140BE01635D7E4FCE014F
:1042800001960E945452C751DE4F88819981C95EC0
:10429000D1400E94EB3BC35DDE4FB982A882CD5274
:1042A000D140C15DDE4F19830883CF52D14064E213
:1042B00076E0C751DE4F88819981C95ED1400E9466
:1042C000633CC95CDE4F99828882C753D140CD518F
:1042D000DE4F28813981C35ED140C75CDE4F398310
:1042E0002883C953D140C752DE4F88819981C95D67
:1042F000D1400A97C55CDE4F99838883CB53D14068
:10430000BE01635D7E4FCE0141960E945452C7515B
:10431000DE4F88819981C95ED1400E94EB3BC35D2D
:10432000DE4FB982A882CD52D140C15DDE4F1983E4
:104330000883CF52D14064E276E0C751DE4F8881D6
:104340009981C95ED1400E94633CC95CDE4F99826D
:104350008882C753D140CD51DE4F48815981C35E19
:10436000D140C75CDE4F59834883C953D140C15205
:10437000DE4F88819981CF5DD1400A97C55CDE4FC1
:1043800099838883CB53D140BE01635D7E4FCE01BC
:1043900081960E945452C751DE4F88819981C95E2F
:1043A000D1400E94EB3BC35DDE4FB982A882CD5263
:1043B000D140C15DDE4F19830883CF52D1406BE2FB
:1043C00076E0C751DE4F88819981C95ED1400E9455
:1043D000633CC95CDE4F99828882C753D140CD517E
:1043E000DE4F88819981C35ED140C75CDE4F9983DF
:1043F0008883C953D140C2010A97C55CDE4F9983B7
:104400008883CB53D140BE01635D7E4FCE01C19600
:104410000E945452C751DE4F88819981C95ED140B4
:104420000E94EB3B81E090E0C35DDE4F998388837F
:10443000CD52D14080EE97E0C15DDE4F99838883F5
:10444000CF52D1406CE274E0C751DE4F8881998130
:10445000C95ED1400E94633CC95CDE4F998288826C
:10446000C753D1402AE037ED43EA5EE360915C0A2E
:1044700070915D0A80915E0A90915F0A0E94399066
:104480000E948F92C75CDE4F79836883C953D14005
:1044900021EE3AE744E55FE36091580A7091590ACA
:1044A00080915A0A90915B0A0E9439900E948F92E3
:1044B000C55CDE4F79836883CB53D140BE01635D19
:1044C0007E4FCE018F5B9F4F0E945452C751DE4FEB
:1044D00088819981C95ED1400E94EB3BC551DE4F76
:1044E000A881B981CB5ED140A60DB71DCD51DE4F5D
:1044F000B983A883C35ED140C752DE4F288139817A
:10450000C95DD140260D371DC550DE4F3983288344
:10451000CB5FD140C152DE4F48815981CF5DD14040
:10452000640E751EC951DE4F88819981C75ED140E6
:104530004C01990FAA08BB088091C2099091C30948
:104540002091000230910102409102025091030239
:10455000892B09F041C06091BA097091BB09809123
:10456000BC099091BD090E9439908E0107531F4FDD
:1045700020E045E00E94138D20910002309101025D
:1045800040910202509103026091BE097091BF09EF
:104590008091C0099091C1090E943990045111097C
:1045A00020E045E00E94138D6091B8097091B9092F
:1045B000072E000C880B990B0E94DA8F20910602BF
:1045C0003091070240910802509109020E943990EF
:1045D0000451110920E040C06091BA097091BB09F3
:1045E0008091BC099091BD090E9439908E010753BA
:1045F0001F4F21E045E00E94138D20910002309171
:10460000010240910202509103026091BE09709133
:10461000BF098091C0099091C1090E94399004514D
:10462000110921E045E00E94138D6091B809709155
:10463000B909072E000C880B990B0E94DA8F209184
:1046400006023091070240910802509109020E942F
:1046500039900451110921E045E00E94138D60E07A
:1046600070E08FE89DE079D381E08093A30D809383
:10467000A40D8CE397EE9093A20D8093A10D9093DF
:10468000A00D80939F0D30929C0D20929B0DCD51DB
:10469000DE4FA881B981C35ED140B0939E0DA09337
:1046A0009D0D63E376E08FE89DE00E94083E66ED95
:1046B0007DE08FE89DE00E94093E30929C0D2092A3
:1046C0009B0DC550DE4F28813981CB5FD14030939F
:1046D0009E0D20939D0D63E376E08FE89DE00E94A0
:1046E000083E66ED7DE08FE89DE00E94093E309235
:1046F0009C0D20929B0D70929E0D60929D0D6FE31C
:1047000076E08FE89DE00E94083E6AEC7DE08FE84D
:104710009DE00E94093E82E08093A30D8093A40D4A
:104720008FEF9FEF9093A20D8093A10D9093A00D1A
:1047300080939F0D30929C0D20929B0D82E090E023
:1047400090939E0D80939D0D66E576E08FE89DE049
:104750000E94083E30929C0D20929B0DC551DE4F69
:1047600048815981CB5ED14050939E0D40939D0D61
:104770006CE575E08FE89DE00E94083E30929C0D4C
:1047800020929B0DC752DE4F88819981C95DD1402F
:1047900090939E0D80939D0D6AE676E08FE89DE0F4
:1047A0000E94083E30929C0D20929B0DC152DE4F1C
:1047B000A881B981CF5DD140B0939E0DA0939D0D8E
:1047C00063E776E08FE89DE00E94083E30929C0D02
:1047D00020929B0D50929E0D40929D0D6BE776E0CE
:1047E0008FE89DE00E94083E80EE97E09093A20D36
:1047F0008093A10D9093A00D80939F0DC951DE4F22
:1048000028813981C75ED14030939C0D20939B0D48
:10481000C551DE4F48815981CB5ED14050939E0DEA
:1048200040939D0DBE0167537F4F8FE89DE00E942E
:10483000083EC951DE4F88819981C75ED14090936F
:104840009C0D80939B0DC752DE4FA881B981C95D35
:10485000D140B0939E0DA0939D0DBE016B547F4F30
:104860008FE89DE00E94083EC951DE4F28813981C2
:10487000C75ED14030939C0D20939B0DC152DE4FFB
:1048800048815981CF5DD14050939E0D40939D0D3D
:10489000BE016F557F4F8FE89DE00E94083EC50125
:1048A000B4010E94DA8F6B017C0120E030E040E02F
:1048B0005EE360915C0A70915D0A80915E0A90915E
:1048C0005F0A0E9439909B01AC01C701B6010E94AA
:1048D00060910E948F9270939C0D60939B0D5092FB
:1048E0009E0D40929D0DBE016B5A7E4F8FE89DE05C
:1048F0000E94093E8E010F5F1F4FB801CE01835DFC
:104900009E4F70D2CE01835D9E4FCBD2C751DE4FFA
:1049100088819981C95ED1400E94EB3B005F1F4FA7
:10492000CB52DE4F88819981C55DD14008171907A8
:1049300021F7A2D38823E9F3DE0111966D0103E686
:1049400010E0E12CF12CB601CE01835D9E4F4AD2DE
:10495000B701CE01835D9E4F71D2282FC751DE4F24
:1049600088819981C95ED140C050DE4F2883C050F4
:10497000D2400E94EB3BC050DE4F2881C050D24055
:1049800021118701BFEFEB1AFB0A20E1C20ED11CF7
:1049900035E0E316F104B9F60230110509F4ADC0B3
:1049A0000CF049C00115110509F466C0013011056C
:1049B00009F0BFCF6BE776E0CE018D5B9E4F0E9482
:1049C000633CBE016D5B7E4FCE01835C9E4F0E94B7
:1049D0004A3CCE01835C9E4F0E94A65266ED7DE06C
:1049E0000E94873BBC01CE01835D9E4F0E944A3CE2
:1049F0006AE676E0CE01875B9E4F0E94633C43E00F
:104A000050E0BE01635D7E4FCE01875B9E4FC5D3F4
:104A10002091000230910102409102025091030264
:104A20000E9427926093BE097093BF098093C009CA
:104A30009093C109A0C00330110509F4B1C004303E
:104A4000110509F076CFCE01855A9E4F0E946C3039
:104A500088E7FE01E55AFE4FA0EBB9E001900D9208
:104A60008A95E1F762E370E080E090E00E94383FD1
:104A70008E010F5A1F4F32C16BE776E0CE018D5B7E
:104A80009E4F0E94633CBE016D5B7E4FCE01835CF6
:104A90009E4F0E944A3CCE01835C9E4F0E94A652CC
:104AA00066ED7DE00E94873BBC01CE01835D9E4F99
:104AB0000E944A3C6CE575E0CE01875B9E4F0E94E8
:104AC000633C43E050E0BE01635D7E4FCE01875BF7
:104AD0009E4F63D320910002309101024091020267
:104AE000509103020E9427926093BA097093BB0908
:104AF0008093BC099093BD093EC06BE776E0CE0180
:104B00008D5B9E4F0E94633CBE016D5B7E4FCE016C
:104B1000835C9E4F0E944A3CCE01835C9E4F0E9464
:104B2000A6526AEC7DE00E94873BBC01CE01835D0A
:104B30009E4F0E944A3C63E776E0CE01875B9E4F22
:104B40000E94633C44E050E0BE01635D7E4FCE01B5
:104B5000875B9E4F22D3209106023091070240913D
:104B60000802509109020E9427920E948F9270932E
:104B7000B9096093B809CE01875B9E4F0E94EB3B59
:104B8000CE01835D9E4F0E94EB3BCE01835C9E4F26
:104B90000E94EB3BCE018D5B9E4F0E94EB3B9BC086
:104BA000C75ADE4F88819981C955D140892B09F4B4
:104BB00052C062E176E0CB5ADE4F88819981C555BB
:104BC000D1400E94EB95892B09F045C06BE176E05E
:104BD000CE018B5A9E4F0E94D63B62E176E0CE0119
:104BE000815B9E4F0E94D63B60E876E086ED9DE0BB
:104BF0000E94D63B64E876E080ED9DE00E94D63BC3
:104C000085E892E4A1E2BDE3809300029093010263
:104C1000A0930202B09303026BE876E08AEC9DE079
:104C20000E94D63B60E976E084EC9DE00E94D63B92
:104C300088E79BE7A0E1BDE380930602909307021B
:104C4000A0930802B093090281E090E09093C30919
:104C50008093C20940C062E176E0CE018B5A9E4F3C
:104C60000E94D63B6BE176E0CE01815B9E4F0E94B5
:104C7000D63B67E976E086ED9DE00E94D63B6AE987
:104C800076E080ED9DE00E94D63BC12CD12C80E8DF
:104C9000E82E8FE3F82EC0920002D0920102E0923B
:104CA0000202F092030261E776E08AEC9DE00E9446
:104CB000D63B60EA76E084EC9DE00E94D63BC09251
:104CC0000602D0920702E0920802F09209021092C6
:104CD000C3091092C2090E94842F2ECC00511109E1
:104CE000C80104960E94EB3BC952DE4F48815981AE
:104CF000C75DD1400417150789F7CE01815B9E4F30
:104D00000E94EB3BCE018B5A9E4F0E94EB3B33241B
:104D100033940C943A1200511109C80104960E9470
:104D2000EB3B0E151F05B9F7DE5F0FB6F894DEBF3B
:104D30000FBECDBFDF91CF911F910F91FF90EF90EC
:104D4000DF90CF90BF90AF909F908F907F906F90AB
:104D50005F904F903F902F900895EF92FF920F93A6
:104D60001F93DC01ED91FC9111971A960D911C9106
:104D70001B9718962D913C91199700A0F1A1E02D59
:104D80007B0140E050E060E070E019951F910F91C9
:104D9000FF90EF900895EF92FF920F931F93DC0125
:104DA000ED91FC9100A0F1A1E02D780101E010E06F
:104DB00019951F910F91FF90EF900895EF92FF9238
:104DC0000F931F93DC01ED91FC9100A0F1A1E02D68
:104DD0007801890121E030E019951F910F91FF9032
:104DE000EF9008950F931F93CF93DF93EC018B0106
:104DF000FB018081918199838883828193819B8348
:104E00008A836C5F7F4FCE0104960E944A3CF80172
:104E1000828593859B878A87848595859D878C87E6
:104E2000868597859F878E87DF91CF911F910F9100
:104E3000089562ED72E004960C94633CDC012091CD
:104E40009009309191091C964D915C911D974217E4
:104E500053072CF58D919C9111976CE0689FF001A0
:104E6000699FF00D1124E65FFD4F82819381840FCD
:104E7000951F281739079CF4409192095091930986
:104E80001E962D913C911F972417350744F480817D
:104E90009181280F391F81E0421753070CF080E001
:104EA00008952F923F924F925F926F927F928F92CE
:104EB0009F92AF92BF92CF92DF92EF92FF920F93A9
:104EC0001F93CF93DF9300D000D0CDB7DEB76C0136
:104ED000DC0112964D905C9013978D919C911197E7
:104EE0002CE0289FF001299FF00D1124E65FFD4F73
:104EF0008285938560807180A280B3801E96ED913B
:104F0000FC911F97FA83E9831C962D913C911D9784
:104F10003C832B83A614B70424F49501B7FE06C086
:104F200003C0930177FE02C02F5F3F4F3595279551
:104F30003E832D838217930714F49E838D838D8087
:104F40009E80919481949108880C991C2B803C80C0
:104F50008D819E81280E391E9501280D391D720103
:104F6000830149815A81B1018FE89DE00E94F1459A
:104F7000860C971C91E0891A910869807A80AD812E
:104F8000BE816A0E7B1EEB81FC81AE0EBF1EC50189
:104F90008A1B9B0B840121E0AD01B30101970E94A4
:104FA000865122E04D815E81B301C1010E9486518C
:104FB000D6012D913C918CE0829FF001839FF00DF2
:104FC0001124E65FFD4F8481882311F0982F01C0E2
:104FD00091E09093A30D811101C081E08093A40D15
:104FE0008CE0829FF001839FF00D1124E65FFD4F5E
:104FF000D6011E962D913C911F9780859185820F39
:10500000931F1C964D915C911D9726813781240F2B
:10501000351F30939C0D20939B0D90939E0D809394
:105020009D0D1A968D919C911B979093A20D809344
:10503000A10D9093A00D80939F0DB6016C5F7F4FE3
:105040008FE89DE026960FB6F894DEBF0FBECDBF69
:10505000DF91CF911F910F91FF90EF90DF90CF9054
:10506000BF90AF909F908F907F906F905F904F9088
:105070003F902F900C94173ECF92DF92EF92FF92C9
:105080000F931F93CF93DF9300D000D0CDB7DEB73F
:1050900061E08DE00E94AE3E0E94116D29833A834B
:1050A0004B835C836D837E83C980DA80EB80FC80D8
:1050B00060E08DE00E94AE3E61E088E30E94DD3E4C
:1050C00061E089E30E94DD3EC6010D2C000CAA0BB5
:1050D000BB0B9C01AD012059334041095109A091FE
:1050E000970DB091980D0E9429912CEF3CEF4FEF56
:1050F0005FEF0E94039130939109209390090091F2
:10510000990D10919A0DC7010F2C000CAA0BBB0B27
:105110009C01AD012C58334041095109D8010E942E
:10512000299128EF3CEF4FEF5FEF0E940391021BA4
:10513000130B10939309009392098D819E81909394
:105140008F0980938E094F97C4F065EA76E080E17D
:105150009CE00E94083EC6010E94DD6C63ED78E091
:1051600080E19CE00E94083E4AE050E0B70180E107
:105170009CE00E94C73D81E001C080E026960FB60A
:10518000F894DEBF0FBECDBFDF91CF911F910F917D
:10519000FF90EF90DF90CF9008952F923F924F9223
:1051A0005F926F927F928F929F92AF92BF92CF92B7
:1051B000DF92EF92FF920F931F93CF93DF93CDB7C0
:1051C000DEB7C053D1400FB6F894DEBF0FBECDBFDF
:1051D000C35DDE4F99838883CD52D140C15DDE4FE0
:1051E00079836883CF52D140C95EDE4F59834883AB
:1051F000C751D1406091990D70919A0D072E000C06
:10520000880B990B0E94DA8F6B017C012DEC3CEC32
:105210004CEC5EE30E943990C55FDE4F6883798372
:105220008A839B83CB50D1402AE939E949E15FE386
:10523000C701B6010E94399020E030E040E85EE30B
:105240000E9439900E948F92072E000C880B990BB8
:105250000E94DA8F6B017C019B01AC01C55FDE4FC0
:10526000688179818A819B81CB50D1400E94619174
:10527000C75EDE4F688379838A839B83C951D1409F
:10528000A70196010E946191C35EDE4F6883798316
:105290008A839B83CD51D140A70196010E946191E1
:1052A000CD5EDE4F688379838A839B83C351D1406F
:1052B0006091970D7091980D072E000C880B990B3B
:1052C0000E94DA8F6B017C012DEC3CEC4CEC5DE331
:1052D0000E943990C95FDE4F688379838A839B83FC
:1052E000C750D1402DEC3CEC4CE45FE3C701B60164
:1052F0000E94399020E030E040E450E40E94279280
:105300000E948F92072E000C880B990B0E94DA8F57
:105310004B015C019B01AC01C95FDE4F6881798163
:105320008A819B81C750D1400E9461916B017C01B1
:10533000A50194010E946191C75DDE4F6883798366
:105340008A839B83C952D1402CEE31E548E35EE36A
:1053500060915C0A70915D0A80915E0A90915F0A8B
:105360000E9439900E948F92CF5DDE4F79836883CF
:10537000C152D1402EEA37E441E65EE36091580A1B
:105380007091590A80915A0A90915B0A0E94399053
:105390000E948F92CB5DDE4F688379838A839B83E3
:1053A000C552D140CB5DDE4F28813981C552D140F5
:1053B000CD5DDE4F39832883C352D1401E0131EECB
:1053C000230E311C8E010F5F1F4FC80132DD005FBD
:1053D0001F4F02151305C9F744E0842E912CD80104
:1053E00011969C928E925CE3652E57EE752E139665
:1053F0007C926E9212971801B4E02B0E311C6EE471
:1054000074E0C1010E94633CAA24AA94BA2CF8015A
:10541000B386A286C701B6010E948F92C15FDE4F9C
:10542000688379838A839B83CF50D140C15FDE4FED
:10543000E881F981CF50D140D8011D96FC93EE93BD
:105440001C97CD5EDE4F688179818A819B81C35133
:10545000D1400E948F92CD5EDE4F688379838A832C
:105460009B83C351D140CD5EDE4FE881F981C351AA
:10547000D140D8011F96FC93EE931E97B8019E0170
:105480002F5F3F4FCB5FDE4F39832883C550D1401C
:10549000C9010E945452C1010E94EB3BD8011196F0
:1054A0009C928E9213967C926E9212976CE574E0A9
:1054B000C1010E94633CF801B386A286C95FDE4F3A
:1054C000688179818A819B81C750D1400E948F92E7
:1054D000C95FDE4F688379838A839B83C750D1403D
:1054E000C95FDE4FE881F981C750D140D8011D96D0
:1054F000FC93EE931C97C55FDE4F688179818A81AA
:105500009B81CB50D1400E948F926B017C01D801CE
:105510001F967C936E931E97B801CE0141960E9410
:105520005452C1010E94EB3BF80191828082738248
:1055300062826EEA76E0C1010E94633CD8011B964C
:10554000BC92AE921A97C15FDE4FE881F981CF50CD
:10555000D1401D96FC93EE931C971F96DC92CE9241
:105560001E97B801CE0181960E945452C1010E943B
:10557000EB3BD80111969C928E9213967C926E9280
:10558000129761EB76E0C1010E94633CF801B3869B
:10559000A286C75DDE4F688179818A819B81C9526D
:1055A000D1400E948F92C55FDE4F688379838A83E2
:1055B0009B83CB50D140C55FDE4FE881F981CB5052
:1055C000D140D8011D96FC93EE931C971F96DC9258
:1055D000CE921E97B801CE01C1960E945452C101CD
:1055E0000E94EB3BD80111969C928E9213967C926E
:1055F0006E92129764EB76E0C1010E94633CF80161
:10560000B386A286C95FDE4F28813981C750D14059
:1056100035872487C75EDE4F688179818A819B81C7
:10562000C951D1400E948F926B017C01D8011F9615
:105630007C936E931E97B801CE018F5B9F4F0E94A3
:105640005452C1010E94EB3BF80191828082738227
:10565000628267EB76E0C1010E94633CD8011B9631
:10566000BC92AE921A97C15FDE4FE881F981CF50AC
:10567000D1401D96FC93EE931C971F96DC92CE9220
:105680001E97B801CE018F5A9F4F0E945452C101FC
:105690000E94EB3BD80111969C928E9213967C92BD
:1056A0006E9212976AEB76E0C1010E94633CF801AA
:1056B000B386A286C55FDE4F28813981CB50D140A9
:1056C00035872487D786C686B801CE018F599F4F6C
:1056D0000E945452C1010E94EB3BD80111969C924A
:1056E0008E9213967C926E9212976DEB76E0C101CA
:1056F0000E94633CF801B386A286C95FDE4F288111
:105700003981C750D14035872487C35EDE4F688119
:1057100079818A819B81CD51D1400E948F926B010A
:105720007C01D8011F967C936E931E97B801CE0121
:105730008F589F4F0E945452C1010E94EB3BF801C9
:10574000918280827382628260EC76E0C1010E9465
:10575000633CD8011B96BC92AE921A97C15FDE4F94
:10576000E881F981CF50D1401D96FC93EE931C97B0
:105770001F96DC92CE921E97B801CE018F579F4F95
:105780000E945452C1010E94EB3BD80111969C9299
:105790008E9213967C926E92129763EC76E0C10122
:1057A0000E94633CF801B386A286C55FDE4F288164
:1057B0003981CB50D14035872487D786C686B8013A
:1057C000CE018F569F4F0E945452C1010E94EB3B65
:1057D000D80111969C928E9213967C926E9212979B
:1057E00066EC76E0C1010E94633CF801B386A286B4
:1057F000C95FDE4F28813981C750D1403587248762
:10580000CD5EDE4F88819981C351D14097878687CD
:10581000B801CE018F559F4F0E945452C1010E9482
:10582000EB3B85E090E0D80111969C938E9380E04D
:1058300098EF13969C938E93129769EC76E0C101D2
:105840000E94633CF801B386A28624E13EEA47E465
:105850005FE360915C0A70915D0A80915E0A9091AD
:105860005F0A0E9439900E948F92D8011D967C9306
:105870006E931C97CB5DDE4FE881F981C552D14014
:10588000BF01FF0F880B990B0E94DA8F26E636E6E0
:1058900046E65FE30E9439900E948F92D8011F96DE
:1058A0007C936E931E97B801CE018F549F4F0E9438
:1058B0005452C1010E94EB3BF8019182808280EE3C
:1058C00097E0938382836DEC76E0C1010E94633C94
:1058D000D8011B96BC92AE921A97C55FDE4FE88145
:1058E000F981CB50D1401D96FC93EE931C97CD5E71
:1058F000DE4F28813981C351D1401F963C932E93AE
:105900001E97B801CE018F539F4F0E945452C10180
:105910000E94EB3BC95EDE4F3881C751D140C95F61
:10592000DE4F3883C750D1408E0105501F4F20E015
:10593000432F60E070E0CB010E94138DB801CE01CF
:105940008F509F4F0E94F49560E070E08FE89DE0DB
:1059500004DAB092A20DA092A10DB092A00DA09277
:105960009F0D2DEC3CEC4CE45EE360915C0A709181
:105970005D0A80915E0A90915F0A0E9439900E94B0
:105980008F9270939C0D60939B0D81E090E09093BB
:105990009E0D80939D0D83E08093A30D8093A40DB5
:1059A000C35DDE4F68817981CD52D1408FE89DE0A3
:1059B0000E94173E82E08093A30D8093A40D2CEEED
:1059C00031E548EB5DE36091580A7091590A809186
:1059D0005A0A90915B0A0E9439900E948F926B0143
:1059E0007C012DEC3CEC4CE45EE360915C0A709130
:1059F0005D0A80915E0A90915F0A0E9439900E9430
:105A00008F9270939C0D60939B0DD0929E0DC092CF
:105A10009D0DC15DDE4F68817981CF52D1408FE805
:105A20009DE00E94173E84E08093A30D8093A40D17
:105A30000A521109CE0101966C0171EEE72EF12C8C
:105A4000EC0EFD1E94E0E90EF11CB601CE018F5163
:105A50009F4FC8D9CE018F519F4F23DAC7010E94B3
:105A6000EB3BA0E1CA0ED11CC016D10671F7412C48
:105A7000512C3201C12CE12CF12C10E0DD24D39407
:105A800030EE232E37E0332EE1EEF0E0EC0FFD1F79
:105A90003496C55FDE4FF983E883CB50D140C95EB1
:105AA000DE4FF881C751D140FE5FCD5EDE4FF883F7
:105AB000C351D140C95EDE4F28813981C751D140E1
:105AC0002F5F3F4FC75EDE4F39832883C951D140D6
:105AD000DD2009F44BC084E08093A30D8093A40DD6
