:100000000C94C50F0C94F60F0C94F60F0C94F60F8D
:100010000C94F60F0C94F60F0C94F60F0C94F60F4C
:100020000C94F60F0C94F60F0C94F60F0C94F60F3C
:100030000C94F60F0C94F60F0C94F60F0C94F60F2C
:100040000C94F60F0C94F60F0C94F60F0C94F60F1C
:100050000C94F60F0C94F60F0C94F60F0C94B54F0D
:100060000C94F60F0C94894E0C94604E0C94F60F81
:100070000C94F60F0C94F60F0C94F60F0C94F60FEC
:100080000C94F60F0C94F60F0C94F60F0C94F60FDC
:100090000C94F60F0C94F60F0C94F60F0C948F48FA
:1000A0000C94F60F0C94F60F0C94F60F0C94F60FBC
:1000B0000C94F60F0C94F60F0C94F60F0C94F60FAC
:1000C0000C94F60F0C94F60F0C94F60F0C94F60F9C
:1000D0000C94F60F0C94F60F0C94F60F0C94F60F8C
:1000E0000C94F60F1B2E1F2E032E072E0B2E0F2EF9
:1000F000132E172E1B2E1F2E652F232E6B2E0E4B0D
:10010000114B004B044B0A4B484B154B194B1F4BE3
:10011000234B274B2D4B314B354B484B3B4B3F4BE8
:10012000434B084AD73B3BCE016E84BCBFFDC12F79
:100130003D6C74319ABD56833DDA3D00C77F11BED8
:10014000D9E4BB4C3E916BAAAABE000000803F05DB
:10015000A84CCDB2D44EB93836A9020C50B991860C
:1001600088083CA6AAAA2ABE000000803F000040E2
:100170007A10F35A00A0724E18090010A5D4E800B6
:1001800000E87648170000E40B54020000CA9A3BCE
:10019000000000E1F5050000809698000000404254
:1001A0000F000000A08601000000102700000000E2
:1001B000E803000000006400000000000A000000E6
:1001C00000000100000000002C76D888DC674F0892
:1001D00023DFC1DFAE59E1B1B796E5E3E453C63A98
:1001E000E651997696E8E6C28426EB898C9B62ED0F
:1001F000407C6FFCEFBC9C9F40F2BAA56FA5F490C9
:10020000055A2AF75C936B6CF9676DC11BFCE0E43F
:100210000D47FEF520E6B500D0ED902E0300943595
:1002200077050080841E080000204E0A000000C8E8
:100230000C333333330F986E12831141EF8D211439
:10024000893BE65516CFFEE6DB18D1844B381BF709
:100250007C1D901DA4BBE424203284725E228100A8
:10026000C9F124ECA1E53D2711007F96290001008A
:100270007F9628003A0155F603010100CF03008163
:1002800030ED0464031281E803851078CB05392C26
:10029000003402F70120EA020000B00100B10200C0
:1002A0001BB40100C00121C10111C5023F3CC701BF
:1002B000B5360148F20100260101E00F0F26240B9C
:1002C0000E0954A8460C17090F0700E10F00191B6F
:1002D0000410072A473903060630380F58205920E2
:1002E00073697A6520000000000000000000000033
:1002F00000000000000000000000000000000000FE
:1003000000000000000000000000000000000000ED
:1003100000000000000000000000000000000000DD
:1003200000000000000000000000000000000000CD
:1003300000000000000000000000000000000000BD
:1003400000000000000000000000000000000000AD
:10035000000000000000000000000000000000009D
:10036000000000003F013F0100000000000000000D
:10037000000000000000000000000000000000007D
:10038000000000000000000000000000000000006D
:10039000000000000000000000000000000000005D
:1003A000000000000000000000000000000000004D
:1003B00000003F013F013F013F010000000000003D
:1003C000000000000000000000000000000000002D
:1003D000000000000000000000000000000000001D
:1003E000000000000000000000000000000000000D
:1003F00000000000000000000000000000000000FD
:100400000000FF0700F800F83F01000000000000B6
:1004100000000000000000000000000000000000DC
:1004200000000000000000000000000000000000CC
:1004300000000000000000000000000000000000BC
:1004400000000000000000000000000000000000AC
:10045000FF07FF0700F800F83F0100000000000060
:10046000000000000000000000000000000000008C
:10047000000000000000000000000000000000007C
:10048000000000000000000000000000000000006C
:100490000000000000000000000000000000FF0756
:1004A000FF07FF0700F800F800F800000000000058
:1004B000000000000000000000000000000000003C
:1004C000000000000000000000000000000000002C
:1004D000000000000000000000000000000000001C
:1004E000000000000000000000000000FF07FF0700
:1004F000FF070000000000F800F800000000000006
:1005000000000000000000000000000000000000EB
:1005100000000000000000000000000000000000DB
:1005200000000000000000000000000000000000CB
:1005300000000000000000000000FF07FF07FF07A9
:10054000000000000000000000F800F800000000BB
:10055000000000000000000000000000000000009B
:10056000000000000000000000000000000000008B
:10057000000000000000000000000000000000007B
:100580000000000000000000FF07FF07FF07000059
:10059000000000000000000000F800F8000000006B
:1005A000000000000000000000000000000000004B
:1005B000000000000000000000000000000000003B
:1005C000000000000000000000000000000000002B
:1005D000000000000000FF07FF07FF070000000009
:1005E0000000000000000000000000F800F800001B
:1005F00000000000000000000000000000000000FB
:1006000000000000000000000000000000000000EA
:1006100000000000000000000000000000000000DA
:1006200000000000FF07FF07FF07000000000000B8
:100630000000000000000000000000F800F80000CA
:1006400000000000000000000000000000000000AA
:10065000000000000000000000000000000000009A
:10066000000000000000000000000000000000008A
:100670000000FF07FF07FF07000000000000000068
:1006800000000000000000000000000000F800F87A
:10069000000000000000000000000000000000005A
:1006A000000000000000000000000000000000004A
:1006B000000000000000000000000000000000003A
:1006C000FF07FF07FF070000000000000000000018
:1006D00000000000000000000000000000F800F82A
:1006E00000F8000000000000000000000000000012
:1006F00000000000000000000000000000000000FA
:100700000000000000000000000000000000FF07E3
:10071000FF07FF07000000000000000000000000CD
:10072000000000000000000000000000000000F8D1
:1007300000F80000000000000000000000000000C1
:1007400000000000000000000000000000000000A9
:10075000000000000000000000000000FF07FF078D
:10076000FF07000000000000000000000000000083
:10077000000000000000000000000000000000F881
:1007800000F800F800000000000000000000000079
:100790000000000000000000000000000000000059
:1007A00000000000000000000000FF07FF07FF0737
:1007B0000000000000000000000000000000000039
:1007C0000000000000000000000000000000000029
:1007D00000F800F800000000000000000000000029
:1007E0000000000000000000000000000000000009
:1007F0000000000000000000FF07FF07FF070000E7
:1008000000000000000000000000000000000000E8
:1008100000000000000000000000000000000000D8
:1008200000F800F800F800000000000000000000E0
:1008300000000000000000000000000000000000B8
:10084000000000000000FF07FF07FF070000000096
:100850000000000000000000000000000000000098
:100860000000000000000000000000000000000088
:10087000000000F800F80000000000000000000088
:100880000000000000000000000000000000000068
:1008900000000000FF07FF07FF0700000000000046
:1008A0000000000000000000000000000000000048
:1008B0000000000000000000000000000000000038
:1008C0000000000000F800F8000000000000000038
:1008D0000000000000000000000000000000000018
:1008E0000000FF07FF07FF070000000000000000F6
:1008F00000000000000000000000000000000000F8
:1009000000000000000000000000000000000000E7
:100910000000000000F800F80000000000000000E7
:1009200000000000000000000000000000000000C7
:10093000FF07FF07FF0700000000000000000000A5
:1009400000000000000000000000000000000000A7
:100950000000000000000000000000000000000097
:1009600000000000000000F800F800000000000097
:100970000000000000000000000000000000FF0771
:10098000FF07FF070000000000000000000000005B
:100990000000000000000000000000000000000057
:1009A0000000000000000000000000000000000047
:1009B00000000000000000F800F800000000000047
:1009C000000000000000000000000000FF07FF071B
:1009D000FF07000000000000000000000000000011
:1009E0000000000000000000000000000000000007
:1009F00000000000000000000000000000000000F7
:100A0000000000000000000000F800F800000000F6
:100A100000000000000000000000FF07FF07FF07C4
:100A200000000000000000000000000000000000C6
:100A300000000000000000000000000000000000B6
:100A400000000000000000000000000000000000A6
:100A5000000000000000000000F800F800000000A6
:100A60000000000000000000FF07FF07FF07000074
:100A70000000000000000000000000000000000076
:100A80000000000000000000000000000000000066
:100A90000000000000000000000000000000000056
:100AA0000000000000000000000000F800F8000056
:100AB000000000000000FF07FF07FF070000000024
:100AC0000000000000000000000000000000000026
:100AD0000000000000000000000000000000000016
:100AE0000000000000000000000000000000000006
:100AF0000000000000000000000000F800F800F80E
:100B00003F0100000000FF07FF07FF07FF07FF0787
:100B1000FF07FF07FF07FF07FF07FF07FF07FF07A5
:100B2000FF07FF07FF07FF07FF07FF07FF07FF0795
:100B3000FF07FF07FF07FF07FF07FF07FF07FF0785
:100B4000FF07FF07FF07FF07FF07FF0700F800F891
:100B50003F013F010000FF07FF07FF07FF07FF07F7
:100B6000FF07FF07FF07FF07FF07FF07FF07FF0755
:100B7000FF07FF07FF07FF07FF07FF07FF07FF0745
:100B8000FF07FF07FF07FF07FF07FF07FF07FF0735
:100B9000FF07FF07FF07FF07FF07FF0700F800F841
:100BA00000F83F010000000000000000000000000D
:100BB0000000000000000000000000000000000035
:100BC0000000000000000000000000000000000025
:100BD0000000000000000000000000000000000015
:100BE00000000000000000000000000000003F01C5
:100BF0003F010000000000000000000000000000B5
:100C000000000000000000000000000000000000E4
:100C100000000000000000000000000000000000D4
:100C200000000000000000000000000000000000C4
:100C300000000000000000000000000000000000B4
:100C400000000000000000000000000000000000A4
:100C50000000000000000000000000000000000094
:100C60000000000000000000000000000000000084
:100C70000000000000000000000000000000000074
:100C80000000000000000000000000000000000064
:100C90000000000000000000000000000000000054
:100CA0000000000000000000000000000000000044
:100CB0000000000000000000000000000000000034
:100CC000000000003F013F010000000000000000A4
:100CD0000000000000000000000000000000000014
:100CE0000000000000000000000000000000000004
:100CF00000000000000000000000000000000000F4
:100D000000000000000000000000000000000000E3
:100D100000003F013F013F013F01000000000000D3
:100D200000000000000000000000000000000000C3
:100D300000000000000000000000000000000000B3
:100D400000000000000000000000000000000000A3
:100D50000000000000000000000000000000000093
:100D60000000FF0700F800F83F010000000000004D
:100D70000000000000000000000000000000000073
:100D80000000000000000000000000000000000063
:100D90000000000000000000000000000000000053
:100DA0000000000000000000000000000000000043
:100DB000FF07FF0700F800F83F01000000000000F7
:100DC0000000000000000000000000000000000023
:100DD0000000000000000000000000000000000013
:100DE0000000000000000000000000000000000003
:100DF0000000000000000000000000000000FF07ED
:100E0000FF07FF0700F800F80000000000000000E6
:100E100000000000000000000000000000000000D2
:100E200000000000000000000000000000000000C2
:100E300000000000000000000000000000000000B2
:100E4000000000000000000000000000FF07FF0796
:100E5000FF07000000F800F800000000000000009C
:100E60000000000000000000000000000000000082
:100E70000000000000000000000000000000000072
:100E80000000000000000000000000000000000062
:100E900000000000000000000000FF07FF07FF0740
:100EA0000000000000F800F8000000000000000052
:100EB0000000000000000000000000000000000032
:100EC0000000000000000000000000000000000022
:100ED0000000000000000000000000000000000012
:100EE0000000000000000000FF07FF07FF070000F0
:100EF0000000000000F800F8000000000000000002
:100F000000000000000000000000000000000000E1
:100F100000000000000000000000000000000000D1
:100F200000000000000000000000000000000000C1
:100F3000000000000000FF07FF07FF07000000009F
:100F40000000000000F800F80000000000000000B1
:100F50000000000000000000000000000000000091
:100F60000000000000000000000000000000000081
:100F70000000000000000000000000000000000071
:100F800000000000FF07FF07FF070000000000004F
:100F90000000000000F800F8000000000000000061
:100FA0000000000000000000000000000000000041
:100FB0000000000000000000000000000000000031
:100FC0000000000000000000000000000000000021
:100FD0000000FF07FF07FF070000000000000000FF
:100FE0000000000000F800F8000000000000000011
:100FF00000000000000000000000000000000000F1
:1010000000000000000000000000000000000000E0
:1010100000000000000000000000000000000000D0
:10102000FF07FF07FF0700000000000000000000AE
:101030000000000000F800F80000000000000000C0
:1010400000000000000000000000000000000000A0
:101050000000000000000000000000000000000090
:101060000000000000000000000000000000FF077A
:10107000FF07FF0700000000000000000000000064
:101080000000000000F800F8000000000000000070
:101090000000000000000000000000000000000050
:1010A0000000000000000000000000000000000040
:1010B000000000000000000000000000FF07FF0724
:1010C000FF0700000000000000000000000000001A
:1010D0000000000000F800F8000000000000000020
:1010E0000000000000000000000000000000000000
:1010F00000000000000000000000000000000000F0
:1011000000000000000000000000FF07FF07FF07CD
:1011100000000000000000000000000000000000CF
:101120000000000000F800F80000000000000000CF
:1011300000000000000000000000000000000000AF
:10114000000000000000000000000000000000009F
:101150000000000000000000FF07FF07FF0700007D
:10116000000000000000000000000000000000007F
:101170000000000000F800F800000000000000007F
:10118000000000000000000000000000000000005F
:10119000000000000000000000000000000000004F
:1011A000000000000000FF07FF07FF07000000002D
:1011B000000000000000000000000000000000002F
:1011C0000000000000F800F800000000000000002F
:1011D000000000000000000000000000000000000F
:1011E00000000000000000000000000000000000FF
:1011F00000000000FF07FF07FF07000000000000DD
:1012000000000000000000000000000000000000DE
:101210000000000000F800F80000000000000000DE
:1012200000000000000000000000000000000000BE
:1012300000000000000000000000000000000000AE
:101240000000FF07FF07FF0700000000000000008C
:10125000000000000000000000000000000000008E
:101260000000000000F800F800000000000000008E
:10127000000000000000000000000000000000006E
:10128000000000000000000000000000000000005E
:10129000FF07FF07FF07000000000000000000003C
:1012A000000000000000000000000000000000003E
:1012B0000000000000F800F800000000000000003E
:1012C000000000000000000000000000000000001E
:1012D0000000000000000000000000000000FF0708
:1012E000FF07FF07000000000000000000000000F2
:1012F00000000000000000000000000000000000EE
:101300000000000000F800F80000000000000000ED
:1013100000000000000000000000000000000000CD
:10132000000000000000000000000000FF07FF07B1
:10133000FF070000000000000000000000000000A7
:10134000000000000000000000000000000000009D
:101350000000000000F800F800000000000000009D
:10136000000000000000000000000000000000007D
:1013700000000000000000000000FF07FF07FF075B
:10138000000000000000000000000000000000005D
:10139000000000000000000000000000000000004D
:1013A0000000000000F800F800000000000000004D
:1013B000000000000000000000000000000000002D
:1013C0000000000000000000FF07FF07FF0700000B
:1013D000000000000000000000000000000000000D
:1013E00000000000000000000000000000000000FD
:1013F0000000000000F800F80000000000000000FD
:1014000000000000000000000000000000000000DC
:10141000000000000000FF07FF07FF0700000000BA
:1014200000000000000000000000000000000000BC
:1014300000000000000000000000000000000000AC
:101440000000000000F800F80000000000000000AC
:1014500000000000000000000000000000003F014C
:101460003F0100000000FF07FF07FF07FF07FF071E
:10147000FF07FF07FF07FF07FF07FF07FF07FF073C
:10148000FF07FF07FF07FF07FF07FF07FF07FF072C
:10149000FF07FF07FF07FF07FF07FF07FF07FF071C
:1014A000FF07FF07FF07FF07FF07FF07FF07FF070C
:1014B0003F013F010000FF07FF07FF07FF07FF078E
:1014C000FF07FF07FF07FF07FF07FF07FF07FF07EC
:1014D000FF07FF07FF07FF07FF07FF07FF07FF07DC
:1014E000FF07FF07FF07FF07FF07FF07FF07FF07CC
:1014F000FF07FF07FF07FF07FF07FF07FF07FF07BC
:101500003F013F010000000000000000000000005B
:1015100000000000000000000000000000000000CB
:1015200000000000000000000000000000000000BB
:1015300000000000000000000000000000000000AB
:1015400000000000000000000000000000003F015B
:101550003F0100000000000000000000000000004B
:10156000000000000000000000000000000000007B
:10157000000000000000000000000000000000006B
:10158000000000000000000000000000000000005B
:10159000000000000000000000000000000000004B
:1015A000000000000000000000000000000000003B
:1015B000000000000000000000000000000000002B
:1015C000000000000000000000000007F000000024
:1015D00000001FFC00000000007FFF000000000072
:1015E000FFFF8000000001FFFFC000000003FFFFBD
:1015F000E000000003FFFFE000000007FFFFF00035
:10160000000007FFFFF00000000FFFFFF8000000E0
:101610000FFFFFF80000000FFFFFF80000000FFFB2
:10162000FFF80000000FFFFFF80000000FFFFFF8B9
:101630000000000FFFFFF800000007FFFFF00000B0
:101640000007FFFFF000000003FFFFE000000003C1
:10165000FFFFE000000001FFFFC000000000FFFFEF
:1016600080000000007FFF00000000001FFC000061
:101670000007FFFFFFFFF80007FFFFFFFFF800076D
:10168000FFFFFFFFF80007FFFFFFFFF80007FFFF66
:10169000FFFFF80007FFFFFFFFF80007FFFFFFFF56
:1016A000F80007FFFFFFFFF80007FFFFFFFFF8004C
:1016B00007FFFFFFFFF80007FFFFFFFFF80007FF2E
:1016C000FFFFFFF80007FFFFFFFFF80007FFFFFF26
:1016D000FFF80007FFFFFFFFF80007FFFFFFFFF81D
:1016E0000007FFFFFFFFF80007FFFFFFFFF80007FD
:1016F000FFFFFFFFF80007FFFFFFFFF80007FFFFF6
:10170000FFFFF80007FFFFFFFFF80007FFFFFFFFE5
:10171000F80007FFFFFFFFF80007FFFFFFFFF800DB
:1017200007FFFFFFFFF80007FFFFFFFFF80007FFBD
:10173000FFFFFFF80007FFFFFFFFF80007FFFFFFB5
:10174000FFF80007FFFFFFFFF80007FFFFFFFFF8AC
:101750000007FFFFFFFFF80007FFFFFFFFF800078C
:10176000FFFFFFFFF80007FFFFFFFFF80007FFFF85
:10177000FFFFF80007FFFFFFFFF80007FFFFFFFF75
:10178000F80007FFFFFFFFF80007FFFFFFFFF8006B
:1017900007FFFFFFFFF80007FFFFFFFFF80007FF4D
:1017A000FFFFFFF80007FFFFFFFFF80007FFFFFF45
:1017B000FFF8000000000000000000000000000032
:1017C0000000000000000000000000000000000019
:1017D000000000000000003FE00000FFF80001FFF3
:1017E000FC0003FFFE0007FFFF0007FFFF000FFFE5
:1017F000FF800FFFFF800FFFFF800FFFFF800FFFB5
:10180000FF800FFFFF800FFFFF800FFFFF800FFFA4
:10181000FF8007FFFF0007FFFF0003FFFE0001FF3F
:10182000FC0000FFF8007FFFFFF8FFFFFFFCFFFF59
:10183000FFFCFFFFFFFCFFFFFFFCFFFFFFFCFFFFC4
:10184000FFFCFFFFFFFCFFFFFFFCFFFFFFFCFFFFB4
:10185000FFFCFFFFFFFCFFFFFFFCFFFFFFFCFFFFA4
:10186000FFFCFFFFFFFCFFFFFFFCFFFFFFFCFFFF94
:10187000FFFCFFFFFFFCFFFFFFFCFFFFFFFCFFFF84
:10188000FFFCFFFFFFFCFFFFFFFCFFFFFFFCFFFF74
:10189000FFFCFFFFFFFCFFFFFFFCFFFFFFFC000062
:1018A000FF0000000FFFF000001FF0F800007FF0C5
:1018B0001E0000FFF0070003FFF001C007FFF0006B
:1018C000E007FFF000600FFFF000301FFFF000188E
:1018D0001FFFF000183FFFF0000C7FFFF0000E7FAD
:1018E000FFF000067FFFF000067FFFF00006FFFF1D
:1018F000F00003FFFFF00003FFFFF00003FFFFF025
:101900000003FFFFFFFFFFC0001FFFFFC0001FFF1E
:10191000FFC0001FFFFF60001FFFFE60001FFFFEF3
:1019200060001FFFFE70001FFFFE30001FFFFC382D
:10193000001FFFF818001FFFF80C001FFFF0060043
:101940001FFFE007001FFFE003801FFFC000E01F34
:10195000FF0000781FFE00001F1FF800000FFFF0BF
:10196000000000FF000000000000003E5B4F5B3EF7
:101970003E6B4F6B3E1C3E7C3E1C183C7E3C181C54
:10198000577D571C1C5E7F5E1C00183C1800FFE74B
:10199000C3E7FF0018241800FFE7DBE7FF30483AF1
:1019A000060E2629792926407F050507407F052553
:1019B0003F5A3CE73C5A7F3E1C1C08081C1C3E7FDB
:1019C00014227F22145F5F005F5F06097F017F00A2
:1019D0006689956A606060606094A2FFA2940804C2
:1019E0007E040810207E201008082A1C08081C2AE3
:1019F00008081E101010100C1E0C1E0C30383E383B
:101A000030060E3E0E06000000000000005F0000E1
:101A10000007000700147F147F14242A7F2A122352
:101A20001308646236495620500008070300001C62
:101A30002241000041221C002A1C7F1C2A08083E6B
:101A4000080800807030000808080808000060607E
:101A50000020100804023E5149453E00427F4000EC
:101A600072494949462141494D331814127F1027C4
:101A7000454545393C4A4949314121110907364913
:101A8000494936464949291E0000140000004034E7
:101A900000000008142241141414141400412214EC
:101AA0000802015909063E415D594E7C1211127C13
:101AB0007F494949363E414141227F4141413E7F74
:101AC000494949417F090909013E414151737F0854
:101AD00008087F00417F41002040413F017F0814FA
:101AE00022417F404040407F021C027F7F0408105B
:101AF0007F3E4141413E7F090909063E4151215E39
:101B00007F09192946264949493203017F01033FCC
:101B10004040403F1F2040201F3F4038403F63145B
:101B200008146303047804036159494D43007F415D
:101B300041410204081020004141417F040201029A
:101B400004404040404000030708002054547840BF
:101B50007F284444383844444428384444287F3853
:101B60005454541800087E090218A4A49C787F08D5
:101B700004047800447D40002040403D007F102850
:101B8000440000417F40007C047804787C08040411
:101B9000783844444438FC1824241818242418FCA9
:101BA0007C08040408485454542404043F44243C4E
:101BB0004040207C1C2040201C3C4030403C4428BD
:101BC0001028444C9090907C4464544C4400083657
:101BD00041000000770000004136080002010204C5
:101BE000023C2623263C1EA1A161123A4040207AE5
:101BF000385454555921555579412254547842212D
:101C00005554784020545579400C1E527212395563
:101C10005555593954545459395554545800004560
:101C20007C410002457D420001457C407D1211123D
:101C30007DF0282528F07C545545002054547C54D0
:101C40007C0A097F4932494949323A4444443A328C
:101C50004A4848303A4141217A3A42402078009D32
:101C6000A0A07D3D4242423D3D4040403D3C24FFDE
:101C70002424487E4943662B2FFC2F2BFF0929F68D
:101C800020C0887E090320545479410000447D41DE
:101C90003048484A32384040227A007A0A0A727D37
:101CA0000D19317D2629292F282629292926304852
:101CB0004D4020380808080808080808382F10C8C0
:101CC000ACBA2F102834FA00007B000008142A1444
:101CD0002222142A14085500550055AA55AA55AABF
:101CE000FF55FF55FF000000FF00101010FF00140B
:101CF0001414FF001010FF00FF1010F010F0141467
:101D000014FC001414F700FF0000FF00FF1414F48B
:101D100004FC141417101F10101F101F1414141F8C
:101D200000101010F0000000001F101010101F1005
:101D3000101010F010000000FF1010101010101004
:101D40001010FF10000000FF140000FF00FF000053
:101D50001F10170000FC04F414141710171414F4C7
:101D600004F40000FF00F714141414141414F70002
:101D7000F7141414171410101F101F141414F41453
:101D80001010F010F000001F101F0000001F1400C2
:101D90000000FC140000F010F01010FF10FF1414ED
:101DA00014FF141010101F00000000F010FFFFFFC0
:101DB000FFFFF0F0F0F0F0FFFFFF0000000000FF79
:101DC000FF0F0F0F0F0F3844443844FC4A4A4A347F
:101DD0007E02020606027E027E0263554941633896
:101DE00044443C04407E201E2006027E020299A547
:101DF000E7A5991C2A492A1C4C7201724C304A4DA5
:101E00004D303048784830BC625A463D3E494949D9
:101E1000007E0101017E2A2A2A2A2A44445F444482
:101E200040514A444040444A51400000FF0103E011
:101E300080FF000008086B6B083612362436060F48
:101E4000090F06000018180000001010003040FFB5
:101E50000101001F01011E00191D1712003C3C3C2E
:101E60003C000000000000002100240027002A00A0
:101E70002D003000330001010000040107010A01B8
:101E8000000020002300260029002C002F00320033
:101E90000001000003010601090100000A0B02090C
:101EA0000C0D0E08070304010000000000000000F4
:101EB0000000000000000000000000000000000022
:101EC00000000000000012111000000000000000DF
:101ED0000000000000000000000000000000000002
:101EE00000002200250028002B002E0031003400C5
:101EF00002010000050108010B0101021020200869
:101F00000810204010204080020102010804020154
:101F100001020408102040808040201008040201C3
:101F2000800402018040201008040201080402011C
:101F300001020408102040800102040810204080A3
:101F400005050505070508080808020202020A0A35
:101F50000808040404040101010101010101030353
:101F6000030303030303040707070C0C0C0C0C0CFE
:101F70000C0C0202020206060606060606060B0BFB
:101F80000B0B0B0B0B0B528C428C11241FBECFEF93
:101F9000D1E2DEBFCDBF00E00CBF19E0A0E0B2E0AF
:101FA000ECE2FDE201E00BBF02C007900D92A23609
:101FB000B107D9F72DE0A2E6B9E001C01D92A63B1A
:101FC000B207E1F71FE0C4ECDFE000E006C02197B4
:101FD0000109802FFE010E943B94C33CD10780E0A1
:101FE0000807A9F70E9446700C9485960C9400008F
:101FF0002F923F924F925F926F927F928F929F9219
:10200000AF92BF92CF92DF92EF92FF920F931F9306
:10201000CF93DF93CDB7DEB7D2500FB6F894DEBFC3
:102020000FBECDBF9E012F553F4FCD52DE4F39839E
:102030002883C35DD1408E010F5A1F4FC8010E94F3
:102040001927005F1F4FCD52DE4F48815981C35D74
:10205000D1400417150791F740E250E060E070E0CE
:10206000FE01E75EFE4F419351936193719380E1CE
:10207000DF01282F1D922A95E9F7FE01EB5FFE4F45
:102080004193519361937193DF011D928A95E9F712
:10209000C090320AD090330AE090340AF090350AAA
:1020A0002AE037ED43EA5DE3C701B6010E94C39021
:1020B0000E941993CF50DE4F79836883C15FD1406E
:1020C0002DEC3CEC4CE05FE3C701B6010E94C390ED
:1020D0000E941993CD50DE4F79836883C35FD1404E
:1020E000C0902E0AD0902F0AE090300AF090310A6A
:1020F0002DEC3CEC4CE45EE3C701B6010E94C390BA
:102100000E941993C750DE4F79836883C95FD1401D
:10211000072E000C880B990B0E9464904B015C0108
:102120002CEE31E548EB5DE3C701B6010E94C39098
:102130009B01AC01C501B4010E94EB910E9419936F
:10214000C151DE4F79836883CF5ED140EE24E394A2
:10215000F12CFA82E9827CE3C72E77EED72EDC825F
:10216000CB826AE074E0CE0105960E949C4C0FEF92
:102170001FEF1C870B872AE037ED43EA5EE360918F
:10218000320A7091330A8091340A9091350A0E9484
:10219000C3900E9419937E876D8726E636E646E255
:1021A0005FE360912E0A70912F0A8091300A90911E
:1021B000310A0E94C3900E941993788B6F87BE01E9
:1021C0006F5F7F4FCE018F5A9F4F0E94295ECE01D5
:1021D00005960E94244CE2E0AE2EB12CBA82A98270
:1021E000DC82CB826FE674E0CE0105960E949C4CA7
:1021F0001C870B87FE86ED8626E636E646E25FE321
:1022000060912E0A70912F0A8091300A9091310AC4
:102210000E94C3900E941993788B6F87BE016F5FF5
:102220007F4F81E590E08C0F9D1F40960E94295EB4
:10223000CE0105960E94244C83E090E09A83898326
:1022400080E098EF9C838B8369E174E0CE01059672
:102250000E949C4C1C870B87FE86ED8621EE3AE798
:1022600044E55FE360912E0A70912F0A8091300A55
:102270009091310A0E94C39020E030E040E751E4A1
:102280000E94EB910E941993788B6F87BE016F5F5C
:102290007F4F81E590E08C0F9D1F80960E94295E04
:1022A000CE0105960E94244CFA82E98280EE97E0E6
:1022B0009C838B836DE274E0CE0105960E949C4C5A
:1022C0001C870B872AE037ED43EA5EE36091320A10
:1022D0007091330A8091340A9091350A0E94C3901C
:1022E0000E9419937E876D8721EE3AE744E55FE30C
:1022F00060912E0A70912F0A8091300A9091310AD4
:102300000E94C3900E941993788B6F87BE016F5F04
:102310007F4F81E590E08C0F9D1FC0960E94295E43
:10232000CE0105960E94244CBA82A982DC82CB821F
:1023300068E774E0CE0105960E949C4C1C870B87D1
:1023400020E030E040E45FE36091320A7091330AAC
:102350008091340A9091350A0E94C3900E9419938B
:102360007E876D8721EE3AE744E55FE360912E0AB0
:1023700070912F0A8091300A9091310A0E94C39087
:102380000E941993788B6F87BE016F5F7F4FCE01DC
:102390008F569F4F0E94295ECE0105960E94244CC5
:1023A0008091780A811117C01092740A1092750AF0
:1023B0001092760A1092770A81E39CE0A3ECBDE3C9
:1023C0008093700A9093710AA093720AB093730A73
:1023D00081E08093780A8091680A811117C0109279
:1023E000640A1092650A1092660A1092670A81E3E5
:1023F0009CE0A3ECBDE38093600A9093610AA093F4
:10240000620AB093630A81E08093680A0E94A94F30
:10241000CB50DE4F688379838A839B83C55FD1402D
:1024200088E59DE00E94E05E8BE49DE00E94E05E16
:10243000332433949E012F5F3F4FC952DE4F3983BF
:102440002883C75DD14041EA50E04C0F5D1F4C5FCF
:102450005F4FC352DE4F59834883CD5DD1408DE23B
:1024600091E08C0F9D1F0496C751DE4F998388839E
:10247000C95ED14088E59DE00E94C35E9B01AC012E
:10248000C090740AD090750AE090760AF090770AAE
:10249000C701B6010E94EA912091700A3091710A39
:1024A0004091720A5091730A0E94C3909B01AC0143
:1024B000C701B6010E94EA916093740A7093750A8D
:1024C0008093760A9093770A8BE49DE00E94C35E26
:1024D0009B01AC01C090640AD090650AE090660A46
:1024E000F090670AC701B6010E94EA912091600A44
:1024F0003091610A4091620A5091630A0E94C39030
:102500009B01AC01C701B6010E94EA916B017C01FD
:102510006093640A7093650A8093660A9093670AD1
:102520008090740A9090750AA090760AB090770A0D
:1025300020E030E0A901C501B4010E946F9320E0C2
:1025400030E040E05FE387FD05C0C501B4010E94B3
:10255000EB9104C0C501B4010E94EA910E94199355
:102560000E9464904B015C0120E030E0A901C701AA
:10257000B6010E946F9320E030E040E05FE387FD0A
:1025800005C0C701B6010E94EB9104C0C701B601A6
:102590000E94EA910E9419930E9464906B017C0151
:1025A0009B01AC01C501B4010E94EB91C752DE4F03
:1025B000688379838A839B83C95DD1404090940965
:1025C000509095096090960970909709A301920127
:1025D000C501B4010E94C3904B015C012091900998
:1025E000309191094091920950919309C301B20130
:1025F0000E94EB919B01AC01C701B6010E94C39000
:102600009B01AC01C501B4010E94EB91C752DE4FA2
:10261000288139814A815B81C95DD1400E94B19294
:102620004B015C01209100023091010240910202B5
:10263000509103020E94C3908E010F501F4F20E063
:1026400043E00E949D8D2091060230910702409147
:10265000080250910902C752DE4F688179818A8150
:102660009B81C95DD1400E94C3900451110920E0B3
:1026700044E00E949D8D332009F405C160E070E0C4
:1026800085E69DE00E94AD260C581109B801CE01E7
:1026900001960E94F226CE0101960E945127CE019A
:1026A00005960E94244C005F1F4FCD52DE4FA8813B
:1026B000B981C35DD1400A171B0741F72AE037ED06
:1026C00043E25DE360912E0A70912F0A8091300AF7
:1026D0009091310A0E94C3900E9419932B013C01F2
:1026E0002CEE31E548E35EE36091320A7091330AE3
:1026F0008091340A9091350A0E94C3900E941993E8
:10270000DC01CB01EE24EA94FE2C08E210E028E282
:1027100030E04EE958E1B2010E94F15E2AE037ED67
:1027200043EA5CE360912E0A70912F0A8091300A8F
:102730009091310A0E94C3900E9419932B013C0191
:1027400020E030E040E45FE36091320A7091330AA8
:102750008091340A9091350A0E94C3900E94199387
:10276000DC01CB015CE3E52E57EEF52E02E310E031
:102770002EE130E046ED57E1B2010E94F15E8FEFAD
:102780009FEF9093780D8093770D9093760D8093C3
:10279000750D81E08093790D80937A0DCF50DE4FD7
:1027A00028813981C15FD140B901330F880B990B62
:1027B0000E9464906B017C012DEC3CEC4CEC5DE3E1
:1027C0006091320A7091330A8091340A9091350AEF
:1027D0000E94C3909B01AC01C701B6010E94EB911E
:1027E0000E9419937093720D6093710DC750DE4F64
:1027F00048815981C95FD1405093740D4093730D46
:1028000066EA7DE085E69DE00E94504ECD50DE4FA9
:10281000A881B981C35FD140BD01BB0F880B990B63
:102820000E9464906B017C012DEC3CEC4CE45EE377
:102830006091320A7091330A8091340A9091350A7E
:102840000E94C3909B01AC01C701B6010E94EB91AD
:1028500020E030E0A9010E94EB910E94199370934F
:10286000720D6093710DC750DE4F28813981C95FA9
:10287000D1403093740D2093730D6AE97DE085E6B5
:102880009DE00E94504E0E94A94FDC01CB01CB502D
:10289000DE4F288139814A815B81C55FD140821B2F
:1028A000930BA40BB50B88379540A105B10508F42F
:1028B000CFC01092780D1092770D1092760D109275
:1028C000750D05E00093790D00937A0DCF50DE4F22
:1028D00048815981C15FD1405093720D4093710D71
:1028E000C151DE4F88819981CF5ED1409093740DA4
:1028F0008093730DBE01675E7E4F85E69DE00E946A
:10290000FB4C14E01093790D10937A0DCD50DE4FEF
:10291000A881B981C35FD140B093720DA093710DAE
:10292000C151DE4F28813981CF5ED1403093740D83
:102930002093730DBE016B5F7E4F85E69DE00E9484
:10294000FB4C80EE97E09093780D8093770D9093F9
:10295000760D8093750D0093790D00937A0DCF500D
:10296000DE4F48815981C15FD1405093720D409331
:10297000710DC151DE4F88819981CF5ED140909316
:10298000740D8093730DBE016F507F4F85E69DE0FF
:102990000E94FB4C8CE397EE9093780D8093770D1B
:1029A0009093760D8093750D1093790D10937A0D99
:1029B000CD50DE4FA881B981C35FD140B093720D75
:1029C000A093710DC151DE4F28813981CF5ED14076
:1029D0003093740D2093730DBE0163527F4F85E6D3
:1029E0009DE00E94FB4C2091000230910102409139
:1029F000020250910302C501B4010E94C3908E01EE
:102A0000075E1E4F20E043E00E949D8D209106024C
:102A1000309107024091080250910902C752DE4FDF
:102A2000688179818A819B81C95DD1400E94C39070
:102A30000451110920E044E00E949D8D0E94A94F9D
:102A4000CB50DE4F688379838A839B83C55FD140F7
:102A50000E943C28811102C0312C0CCDAE014F5A8E
:102A60005F4F6A0107EE13E0E12CF12CB601CE01B5
:102A700001960E94F226B701CE0101960E941E2700
:102A8000B82ECE0105960E94244CB11087015FEF4D
:102A9000E51AF50A80E1C80ED11C95E0E916F104AB
:102AA00029F70230110509F497C43CF4011511050A
:102AB00079F001301105B1F0CFCF0330110511F4D9
:102AC0000C94FD1F0430110511F40C940B20C4CF9D
:102AD00088E59DE00E94E05E8BE49DE00E94E05E60
:102AE0000C9487268091560A811117C01092520AC1
:102AF0001092530A1092540A1092550A81E39CE0F6
:102B0000A3ECBDE380934E0A90934F0AA093500A22
:102B1000B093510A81E08093560A8091460A811150
:102B200017C01092420A1092430A1092440A10925F
:102B3000450A81E39CE0A3ECBDE380933E0A9093B9
:102B40003F0AA093400AB093410A81E08093460A6D
:102B5000C0902E0AD0902F0AE090300AF090310AEF
:102B60002DEC3CEC4CE45DE3C701B6010E94C39040
:102B70000E941993C152DE4F688379838A839B83B5
:102B8000CF5DD14028EB3EE145E05EE3C701B601F1
:102B90000E94C3900E941993C551DE4F68837983C8
:102BA0008A839B83CB5ED14026E636E646EE5EE323
:102BB000C701B6010E94C3900E9419934B015C01AA
:102BC000072E000C880B990B0E9464902B013C018E
:102BD0002FE832EC45E75DE3C701B6010E94C390E0
:102BE0009B01AC01C301B2010E94EB910E941993B9
:102BF000C752DE4F79836883C95DD140C090320AE5
:102C0000D090330AE090340AF090350A2DEC3CEC79
:102C10004CEC5DE3C701B6010E94C3900E9419937A
:102C20002B013C01C951DE4F79836883C75ED140D7
:102C30002AE939E949E15FE3C701B6010E94C3907F
:102C40000E9419936B017C01CD51DE4F798368831B
:102C5000C35ED1408E0107531F4F20E044E060E087
:102C600070E0CB010E949D8D0451110920E044E0E9
:102C700060E070E0CB010E949D8D1E01A1E52A0E4F
:102C8000311C045B1109C8010E941927005F1F4F06
:102C900002151305C1F701E010E0CF55DF4F19838E
:102CA0000883C15AD0408CE397EECD55DF4F99830E
:102CB0008883C35AD0406AE074E0C352DE4F8881F3
:102CC0009981CD5DD1400E949C4C22242A94322CC3
:102CD000C555DF4F39822882CB5AD0402DEC3CECD1
:102CE0004CE45DE36091320A7091330A8091340ABA
:102CF0009091350A0E94C3900E941993C355DF4FEB
:102D000079836883CD5AD0402AE939E949E55FE300
:102D100060912E0A70912F0A8091300A9091310AA9
:102D20000E94C3900E941993C155DF4F7983688335
:102D3000CF5AD040BE016F557F4FCE0101960E9401
:102D4000295EC352DE4F88819981CD5DD1400E94BA
:102D5000244CCF55DF4F19830883C15AD04080EEF1
:102D600097E0CD55DF4F99838883C35AD0406DE2F9
:102D700074E0C352DE4F88819981CD5DD1400E94BD
:102D80009C4CC555DF4F39822882CB5AD0402DEC60
:102D90003CEC4CE05FE36091320A7091330A809121
:102DA000340A9091350A0E94C3900E941993C3552A
:102DB000DF4F79836883CD5AD0402AE939E949E564
:102DC0005FE360912E0A70912F0A8091300A9091F2
:102DD000310A0E94C3900E941993C155DF4F798335
:102DE0006883CF5AD040BE016F557F4FCE014196C8
:102DF0000E94295EC352DE4F88819981CD5DD1400A
:102E00000E94244C60E070E085E69DE00E94AD26C3
:102E1000BE016F5F7F4FCE018F559F4F0E94F226FC
:102E2000CE018F559F4F0E945127C352DE4F88819C
:102E30009981CD5DD1400E94244CBE016F5E7F4FD1
:102E4000CE018F559F4F0E94F226CE018F559F4F86
:102E50000E945127C352DE4F88819981CD5DD140B8
:102E60000E94244C3092780D2092770D3092760D8E
:102E70002092750D82E08093790D80937A0D1092E7
:102E8000720D1092710DC152DE4F28813981CF5DD4
:102E9000D1403093740D2093730D61E874E085E6A2
:102EA0009DE00E94FB4C24EA30E74DEB5EE360912D
:102EB000320A7091330A8091340A9091350A0E9447
:102EC000C3900E9419937093720D6093710DC55158
:102ED000DE4F48815981CB5ED1405093740D4093B1
:102EE000730D6AE97DE085E69DE00E94504E81E029
:102EF0008093790D80937A0D5092720D4092710DEE
:102F00009092740D8092730D66E974E085E69DE001
:102F10000E94FB4CD092720DC092710D9092740D74
:102F20008092730D6EE974E085E69DE00E94FB4C93
:102F300020E030E040E85EE360912E0A70912F0AB5
:102F40008091300A9091310A0E94C3900E94199397
:102F50004B015C012DEC3CEC4CEC5EE36091320AE1
:102F60007091330A8091340A9091350A0E94C3907F
:102F70000E941993DC01CB012CE3E22E27EEF22E06
:102F800000E510E022E330E046EA55E1B4010E949A
:102F9000F15E0E94A94F2B013C0137EE232E33E056
:102FA000332E1EE1E12EF12CB4E62B1631046CF128
:102FB0000E943C28882329F1CE0101966C0100E093
:102FC00010E0B601CE018F559F4F0E94F226B80146
:102FD000CE018F559F4F0E941E27B82EC352DE4F41
:102FE00088819981CD5DD1400E94244CB110180197
:102FF00090E1C90ED11C0130110519F001E010E07B
:10300000E0CFA1E0EA1AF10879F62114310451F079
:1030100021E02216310481F1C152DE4F1882CF5DCA
:10302000D14030C088E59DE00E94E05E88E59DE0EB
:103030000E94C35E6093520A7093530A8093540AAD
:103040009093550A8BE49DE00E94E05E8BE49DE046
:103050000E94C35E6093420A7093430A8093440ABD
:103060009093450AC152DE4F1882CF5DD14007EEE2
:10307000202E03E0302E06C031E0C152DE4F3883EF
:10308000CF5DD14088E59DE00E94C35E9B01AC010D
:103090008BE49DE0C050DE4F2883C050D240C35027
:1030A000DE4F3883CD5FD140C250DE4F4883CE5FC4
:1030B000D140C150DE4F5883CF5FD1400E94C35EE4
:1030C000C551DE4F688379838A839B83CB5ED14071
:1030D000C090520AD090530AE090540AF090550ADA
:1030E000C050DE4F2881C050D240C350DE4F3881DF
:1030F000CD5FD140C250DE4F4881CE5FD140C1503C
:10310000DE4F5881CF5FD140C701B6010E94EA91DE
:1031100020914E0A30914F0A4091500A5091510A25
:103120000E94C3909B01AC01C701B6010E94EA91C5
:103130006B017C016093520A7093530A8093540A86
:103140009093550A8090420A9090430AA090440AB6
:10315000B090450AC551DE4F288139814A815B8193
:10316000CB5ED140C501B4010E94EA9120913E0A94
:1031700030913F0A4091400A5091410A0E94C39009
:103180009B01AC01C501B4010E94EA914B015C01B5
:103190006093420A7093430A8093440A9093450ACD
:1031A00020E030E0A901C701B6010E946F9320E042
:1031B00030E040E05FE387FD05C0C701B6010E9433
:1031C000EB9104C0C701B6010E94EA910E941993D5
:1031D0000E9464906B017C0120E030E0A901C501F0
:1031E000B4010E946F9320E030E040E05FE387FD90
:1031F00005C0C501B4010E94EB9104C0C501B40132
:103200000E94EA910E9419930E9464904B015C0114
:103210000E94A94FDC01CB0184199509A609B709C1
:1032200088379540A105B10508F4BAC0209106027F
:10323000309107024091080250910902C701B6017E
:103240000E94C3908E01035C1E4F20E044E00E9468
:103250009D8D209106023091070240910802509105
:103260000902C501B4010E94C3900051110920E078
:1032700044E00E949D8D1092780D1092770D10926F
:10328000760D1092750D83E08093790D80937A0D01
:10329000C951DE4F88819981C75ED1409093720DEC
:1032A0008093710DC752DE4FA881B981C95DD140AD
:1032B000B093740DA093730DBE0167537F4F85E6E5
:1032C0009DE00E94FB4CCD51DE4F28813981C35EC9
:1032D000D1403093720D2093710DC752DE4F48815B
:1032E0005981C95DD1405093740D4093730DBE0157
:1032F0006B547F4F85E69DE00E94FB4C8FEF9FEF64
:103300009093780D8093770D9093760D8093750D43
:10331000C951DE4F88819981C75ED1409093720D6B
:103320008093710DC752DE4FA881B981C95DD1402C
:10333000B093740DA093730DBE01635C7E4F85E660
:103340009DE00E94FB4CCD51DE4F28813981C35E48
:10335000D1403093720D2093710DC752DE4F4881DA
:103360005981C95DD1405093740D4093730DB801DC
:1033700085E69DE00E94FB4C0456110920E044E0E4
:10338000C701B6010E949D8D0451110920E044E05F
:10339000C501B4010E949D8D0E94A94F2B013C01E3
:1033A000C152DE4F5881CF5DD140552309F4F9CD8C
:1033B0008E010F5A1F4F00511109C80104960E9437
:1033C000244CC952DE4F88819981C75DD1400817CE
:1033D000190789F70C948726C0902E0AD0902F0ADF
:1033E000E090300AF090310A2DEC3CEC4CE45DE3C7
:1033F000C701B6010E94C3900E9419934B015C0162
:10340000C152DE4F79836883CF5DD1402AE939E923
:1034100049E95EE3C701B6010E94C3900E94199377
:10342000C752DE4F79836883C95DD14020E030E028
:10343000A9016091320A7091330A8091340A909107
:10344000350A0E94C3900E9419932B013C011B0175
:1034500082E08093790D80937A0D8E010F5F1F4F6C
:103460007E0191E5E90EF11CC8010E941927005F59
:103470001F4F0E151F05C1F7EE24E394F12CCF5515
:10348000DF4FF982E882C15AD040BCE3CB2EB7EEC1
:10349000DB2ECD55DF4FD982C882C35AD0406DE2B2
:1034A00074E0C352DE4F88819981CD5DD1400E9486
:1034B0009C4C0FEF1FEFC555DF4F19830883CB5A84
:1034C000D0402DEC3CEC4CE45DE36091320A70910D
:1034D000330A8091340A9091350A0E94C3900E9469
:1034E0001993C355DF4F79836883CD5AD0402AE9B9
:1034F00039E949E55FE360912E0A70912F0A8091C6
:10350000300A9091310A0E94C3900E941993C155CC
:10351000DF4F79836883CF5AD040BE016F557F4F0C
:10352000CE0101960E94295EC352DE4F88819981A7
:10353000CD5DD1400E94244CCF55DF4FF982E88207
:10354000C15AD040CD55DF4FD982C882C35AD0402E
:1035500067EA74E0C352DE4F88819981CD5DD14026
:103560000E949C4CC555DF4F19830883CB5AD0402D
:103570002DEC3CEC4CE05FE36091320A7091330A31
:103580008091340A9091350A0E94C3900E94199349
:10359000C355DF4F79836883CD5AD0402AE939E992
:1035A00049E55FE360912E0A70912F0A8091300AFD
:1035B0009091310A0E94C3900E941993C155DF4F28
:1035C00079836883CF5AD040BE016F557F4FCE01BB
:1035D00041960E94295EC352DE4F88819981CD5D5C
:1035E000D1400E94244CCF55DF4FF982E882C15A66
:1035F000D040CD55DF4FD982C882C35AD04067EA48
:1036000074E0C352DE4F88819981CD5DD1400E9424
:103610009C4CC555DF4F19830883CB5AD0408AE0B4
:1036200090E0C355DF4F99838883CD5AD0402AE973
:1036300039E949E55FE360912E0A70912F0A809184
:10364000300A9091310A0E94C3900E941993C1558B
:10365000DF4F79836883CF5AD040BE016F557F4FCB
:10366000CE0181960E94295EC352DE4F88819981E6
:10367000CD5DD1400E94244CCF55DF4FF982E882C6
:10368000C15AD04080EE97E0CD55DF4F99838883B3
:10369000C35AD0406CEA74E0C352DE4F88819981EE
:1036A000CD5DD1400E949C4CC555DF4F19830883E6
:1036B000CB5AD0402DEC3CEC4CE45DE36091320AF7
:1036C0007091330A8091340A9091350A0E94C39018
:1036D0000E941993C355DF4F79836883CD5AD04038
:1036E0002AE939E949E55FE360912E0A70912F0AD2
:1036F0008091300A9091310A0E94C3900E941993E0
:10370000C155DF4F79836883CF5AD040BE016F55D2
:103710007F4FCE01C1960E94295EC352DE4F888141
:103720009981CD5DD1400E94244C60E070E085E637
:103730009DE00E94AD2680915E0A90915F0A0197FC
:1037400021F410925F0A10925E0A61EB74E086EE3B
:103750009BE00E94FB4CBE016F5F7F4FCE018F55F7
:103760009F4F0E94F226CE018F559F4F0E945127F6
:1037700071EAE72EF12CEC0EFD1EA4E0EA0EF11C1E
:10378000C7010E94244C8E010F5E1F4FB801CE016D
:103790008F559F4F0E94F226CE018F559F4F0E945A
:1037A0005127C7010E94244C8FEF9FEF9093780D13
:1037B0008093770D9093760D8093750D82E08093C2
:1037C000790D80937A0D5092720D4092710D909206
:1037D000740D8092730D63EC74E085E69DE00E94A9
:1037E000FB4C412C512C3201C12CD12CC951DE4F44
:1037F0000883C75ED140CD51DE4F1883C35ED140F0
:10380000E0EE8E2EE7E09E2EAA24AA94BA2CB2E017
:10381000CB16D10409F41BC14CF4C114D10489F0B6
:1038200031E0C316D10409F45DC0F1CF43E0C41602
:10383000D10409F4E9C154E0C516D10409F4ABC2BE
:10384000E6CF0E943C28811105C00E943C288823B5
:10385000F1F21EC0BE016F5F7F4FCE018F559F4FAB
:103860000E94F22660E070E0CE018F559F4F0E94CB
:103870001E27182FC352DE4F88819981CD5DD1401C
:103880000E94244C112309F38E010F5A1F4FA5C328
:10389000C951DE4F6881C75ED140CD51DE4F78817E
:1038A000C35ED140CE018F559F4F0E94F22661E04A
:1038B00070E0CE018F559F4F0E941E27182FC352D4
:1038C000DE4F88819981CD5DD1400E94244C112327
:1038D00009F49DCF10925F0A10925E0ACC24C39423
:1038E000D12C95CF80915E0A90915F0A892B09F0C7
:1038F00050C01092780D1092770D1092760D1092A4
:10390000750D3092720D2092710DC152DE4F88817B
:103910009981CF5DD1409093740D8093730D63ECCA
:1039200074E085E69DE00E94FB4CB092780DA09279
:10393000770DB092760DA092750D3092720D209297
:10394000710DC152DE4FA881B981CF5DD140B093D6
:10395000740DA093730D65ED74E085E69DE00E9403
:10396000FB4CD0925F0AC0925E0A69EE74E086EE6C
:103970009BE00E94FB4C4F8558896D857E85E12C2C
:10398000F12C02E310E02AE530E085E69DE00E949C
:10399000013D0E943C28882309F439CFC951DE4FEC
:1039A0006881C75ED140CD51DE4F7881C35ED14082
:1039B000CE018F559F4F0E94F22661E070E0CE014C
:1039C0008F559F4F0E941E27182FC352DE4F8881AC
:1039D0009981CD5DD1400E94244C112309F417CF69
:1039E0009092780D8092770D9092760D8092750D61
:1039F0003092720D2092710DC752DE4F28813981AD
:103A0000C95DD1403093740D2093730D65E075E06E
:103A100085E69DE00E94FB4C68EE73E080E090E05C
:103A20000E94714F10925F0A10925E0A60E788E56B
:103A30009DE00E945B502B013C0166E175E086EE43
:103A40009BE00E94FB4C52E0C52ED12CE0CE809131
:103A50005E0A90915F0A892B09F058C01092780D88
:103A60001092770D1092760D1092750D3092720DA6
:103A70002092710DC152DE4F48815981CF5DD140F6
:103A80005093740D4093730D65ED74E085E69DE0F1
:103A90000E94FB4C3092720D2092710DC752DE4F86
:103AA00088819981C95DD1409093740D8093730D85
:103AB00065E075E085E69DE00E94FB4CB092780DD4
:103AC000A092770DB092760DA092750D3092720D86
:103AD0002092710DC152DE4FA881B981CF5DD140D6
:103AE000B093740DA093730D64E275E085E69DE0DC
:103AF0000E94FB4C68E375E086EE9BE00E94FB4C65
:103B000081E090E090935F0A80935E0A0E943C28D7
:103B1000882309F47CCEC951DE4F6881C75ED1404D
:103B2000CD51DE4F7881C35ED140CE018F559F4F7E
:103B30000E94F22661E070E0CE018F559F4F0E94F7
:103B40001E27182FC352DE4F88819981CD5DD14049
:103B50000E94244C112309F45ACE9092780D809241
:103B6000770D9092760D8092750D3092720D2092A5
:103B7000710DC752DE4F28813981C95DD140309324
:103B8000740D2093730D65E575E085E69DE00E9458
:103B9000FB4C68EE73E080E090E00E94714F109261
:103BA0005F0A10925E0A60E788E59DE00E945B5024
:103BB000641975098609970920918E0930918F093A
:103BC000032E000C440B550B0E948D91CA01B901C4
:103BD0000E94649060938609709387098093880996
:103BE000909389096093610D7093620D8093630DCA
:103BF0009093640D65E675E086EE9BE00E94FB4CB9
:103C000043E0C42ED12C03CE80915E0A90915F0ACE
:103C1000892B09F058C01092780D1092770D1092F0
:103C2000760D1092750D3092720D2092710DC15269
:103C3000DE4F48815981CF5DD1405093740D409340
:103C4000730D64E275E085E69DE00E94FB4C3092C6
:103C5000720D2092710DC752DE4F88819981C95D26
:103C6000D1409093740D8093730D65E575E085E602
:103C70009DE00E94FB4CB092780DA092770DB0921F
:103C8000760DA092750D3092720D2092710DC15279
:103C9000DE4FA881B981CF5DD140B093740DA09360
:103CA000730D65E775E085E69DE00E94FB4C81E0C1
:103CB00090E090935F0A80935E0A6AE875E086EE72
:103CC0009BE00E94FB4C0E943C28882309F49FCD76
:103CD000C951DE4F6881C75ED140CD51DE4F78813A
:103CE000C35ED140CE018F559F4F0E94F22661E006
:103CF00070E0CE018F559F4F0E941E27182FC35290
:103D0000DE4F88819981CD5DD1400E94244C1123E2
:103D100009F47DCD9092780D8092770D9092760D7A
:103D20008092750D3092720D2092710DC752DE4F48
:103D300028813981C95DD1403093740D2093730D72
:103D400065E075E085E69DE00E94FB4C68EE73E05F
:103D500080E090E00E94714F60E78BE49DE00E945C
:103D60005B502B013C0110925F0A10925E0A80E0CA
:103D700090E00E94626D65EA75E086EE9BE00E942D
:103D8000FB4C64EF71E080E090E00E94714F34E002
:103D9000C32ED12C3CCD80915E0A90915F0A892B75
:103DA00009F05EC01092780D1092770D1092760D8A
:103DB0001092750D3092720D2092710DC152DE4F2E
:103DC00048815981CF5DD1405093740D4093730D5C
:103DD00065E775E085E69DE00E94FB4C3092720D30
:103DE0002092710DC752DE4F88819981C95DD14003
:103DF0009093740D8093730D65E075E085E69DE00A
:103E00000E94FB4CB092780DA092770DB092760D87
:103E1000A092750D3092720D2092710DC152DE4F3D
:103E2000A881B981CF5DD140B093740DA093730D7B
:103E30006BEB75E085E69DE00E94FB4C81E090E035
:103E400090935F0A80935E0A60ED75E086EE9BE0DA
:103E50000E94FB4C64EF71E080E090E00E94714FA3
:103E60000E943C28882309F4D2CCC951DE4F6881D6
:103E7000C75ED140CD51DE4F7881C35ED140CE01C7
:103E80008F559F4FAFD761E070E0CE018F559F4FA8
:103E9000D5D7182FC352DE4F88819981CD5DD1408F
:103EA0000E94244C112309F4B2CC80EE97E0909349
:103EB000780D8093770D9093760D8093750D3092E9
:103EC000720D2092710DC752DE4F28813981C95D74
:103ED000D1403093740D2093730D65E575E085E650
:103EE0009DE00E94FB4C68EE73E080E090E00E9451
:103EF000714F10925F0A10925E0A60E78BE49DE0BA
:103F00000E945B50641975098609970920918E09F2
:103F100030918F09032E000C440B550B0E948D919C
:103F2000CA01B9010E94649060938A0970938B0959
:103F300080938C0990938D096093540D7093550D67
:103F40008093560D9093570D1092780D1092770D27
:103F50001092760D1092750D3092720D2092710DA7
:103F6000C752DE4F48815981C95DD1405093740DCD
:103F70004093730D65E575E085E69DE00E94FB4C7E
:103F80008FEF9FEF9093780D8093770D9093760D40
:103F90008093750D3092720D2092710DC752DE4FD5
:103FA00088819981C95DD1409093740D8093730D80
:103FB0006CEE75E085E69DE00E94FB4C0E94842F2C
:103FC0006CE271E080E090E00E94714F6EEF75E06E
:103FD00086EE9BE00E94FB4C57CC00511109C801B2
:103FE00004960E94244CC952DE4FA881B981C75D56
:103FF000D1400A171B0789F78AC662E370E080E0A8
:1040000090E00E94714F8E010F551F4F7E01B1E568
:10401000EB0EF11C80C663E176E0CE018B5A9E4F19
:104020000E949C4C6CE176E0CE01815B9E4F0E9429
:104030009C4C20910002309101024091020250916B
:104040000302609190097091910980919209909179
:1040500093090E94C3908E0107531F4F20E045E053
:104060000E949D8D20910002309101024091020238
:10407000509103026091940970919509809196097D
:10408000909197090E94C3900451110920E045E0E6
:104090000E949D8D60918E0970918F09072E000CF2
:1040A000880B990B0E9464902091060230910702C0
:1040B00040910802509109020E94C39004511109D5
:1040C00020E045E00E949D8D80919809909199098A
:1040D000019739F46CE176E0CE018B5A9E4F0E9435
:1040E0000F4CC090320AD090330AE090340AF0901E
:1040F000350A2AE037ED43E25CE3C701B6010E94CE
:10410000C3900E9419931B0126E636E646EE5EE355
:10411000C701B6010E94C3900E941993C951DE4F96
:1041200079836883C75ED14020E030E040E45FE3FC
:10413000C701B6010E94C3900E941993CD51DE4F72
:10414000688379838A839B83C35ED14080902E0AE3
:1041500090902F0AA090300AB090310A29E23CE5F5
:104160004FE05EE3C501B4010E94C3900E94199321
:104170002B013C012AE939E949E95EE3C501B401B3
:104180000E94C3900E9419936B017C01C551DE4FC0
:1041900079836883CB5ED1409B01240D351DC752C6
:1041A000DE4F39832883C95DD140240D351DC152AE
:1041B000DE4F39832883CF5DD140420E531E2DEC54
:1041C0003CEC4CE45DE3C501B4010E94C3900E9445
:1041D00019933B01AE014F5A5F4FCB52DE4F5983CB
:1041E0004883C55DD1408E010F5F1F4FC80121D6A6
:1041F000005F1F4FCB52DE4F88819981C55DD14052
:104200000817190799F793E0A92EB12CC35DDE4F6B
:10421000B982A882CD52D1400CE317EEC15DDE4FCA
:1042200019830883CF52D14065E276E0C751DE4F53
:1042300088819981C95ED1400E949C4C88248A94CF
:10424000982CC95CDE4F99828882C753D140CD51EA
:10425000DE4FA881B981C35ED140C75CDE4FB98310
:10426000A883C953D140BAE0CB1AD108C55CDE4F50
:10427000D982C882CB53D140BE01635D7E4FCE014F
:1042800001960E94295EC751DE4F88819981C95EDF
:10429000D1400E94244CC35DDE4FB982A882CD522A
:1042A000D140C15DDE4F19830883CF52D14065E212
:1042B00076E0C751DE4F88819981C95ED1400E9466
:1042C0009C4CC95CDE4F99828882C753D140CD5146
:1042D000DE4F28813981C35ED140C75CDE4F398310
:1042E0002883C953D140C752DE4F88819981C95D67
:1042F000D1400A97C55CDE4F99838883CB53D14068
:10430000BE01635D7E4FCE0141960E94295EC7517A
:10431000DE4F88819981C95ED1400E94244CC35DE3
:10432000DE4FB982A882CD52D140C15DDE4F1983E4
:104330000883CF52D14065E276E0C751DE4F8881D5
:104340009981C95ED1400E949C4CC95CDE4F998224
:104350008882C753D140CD51DE4F48815981C35E19
:10436000D140C75CDE4F59834883C953D140C15205
:10437000DE4F88819981CF5DD1400A97C55CDE4FC1
:1043800099838883CB53D140BE01635D7E4FCE01BC
:1043900081960E94295EC751DE4F88819981C95E4E
:1043A000D1400E94244CC35DDE4FB982A882CD5219
:1043B000D140C15DDE4F19830883CF52D1406CE2FA
:1043C00076E0C751DE4F88819981C95ED1400E9455
:1043D0009C4CC95CDE4F99828882C753D140CD5135
:1043E000DE4F88819981C35ED140C75CDE4F9983DF
:1043F0008883C953D140C2010A97C55CDE4F9983B7
:104400008883CB53D140BE01635D7E4FCE01C19600
:104410000E94295EC751DE4F88819981C95ED140D3
:104420000E94244C81E090E0C35DDE4F9983888335
:10443000CD52D14080EE97E0C15DDE4F99838883F5
:10444000CF52D1406DE274E0C751DE4F888199812F
:10445000C95ED1400E949C4CC95CDE4F9982888223
:10446000C753D1402AE037ED43EA5EE36091320A58
:104470007091330A8091340A9091350A0E94C3905A
:104480000E941993C75CDE4F79836883C953D1407A
:1044900021EE3AE744E55FE360912E0A70912F0A1E
:1044A0008091300A9091310A0E94C3900E94199322
:1044B000C55CDE4F79836883CB53D140BE01635D19
:1044C0007E4FCE018F5B9F4F0E94295EC751DE4F0A
:1044D00088819981C95ED1400E94244CC551DE4F2C
:1044E000A881B981CB5ED140A60DB71DCD51DE4F5D
:1044F000B983A883C35ED140C752DE4F288139817A
:10450000C95DD140260D371DC550DE4F3983288344
:10451000CB5FD140C152DE4F48815981CF5DD14040
:10452000640E751EC951DE4F88819981C75ED140E6
:104530004C01990FAA08BB0880919809909199099C
:104540002091000230910102409102025091030239
:10455000892B09F041C06091900970919109809177
:104560009209909193090E94C3908E0107531F4FA7
:1045700020E045E00E949D8D2091000230910102D3
:104580004091020250910302609194097091950943
:1045900080919609909197090E94C3900451110946
:1045A00020E045E00E949D8D60918E0970918F09F9
:1045B000072E000C880B990B0E9464902091060234
:1045C0003091070240910802509109020E94C39065
:1045D0000451110920E040C0609190097091910947
:1045E00080919209909193090E94C3908E01075384
:1045F0001F4F21E045E00E949D8D209100023091E7
:10460000010240910202509103026091940970915D
:10461000950980919609909197090E94C390045141
:10462000110921E045E00E949D8D60918E097091F5
:104630008F09072E000C880B990B0E946490209123
:1046400006023091070240910802509109020E942F
:10465000C3900451110921E045E00E949D8D60E066
:1046600070E085E69DE079D381E08093790D8093B9
:104670007A0D8CE397EE9093780D8093770D90935D
:10468000760D8093750D3092720D2092710DCD5183
:10469000DE4FA881B981C35ED140B093740DA09361
:1046A000730D64E376E085E69DE00E94414E6CEA7E
:1046B0007DE085E69DE00E94424E3092720D209290
:1046C000710DC550DE4F28813981CB5FD1403093C9
:1046D000740D2093730D64E376E085E69DE00E94FF
:1046E000414E6CEA7DE085E69DE00E94424E3092AC
:1046F000720D2092710D7092740D6092730D60E4D2
:1047000076E085E69DE00E94414E60EA7DE085E628
:104710009DE00E94424E82E08093790D80937A0D55
:104720008FEF9FEF9093780D8093770D9093760D98
:104730008093750D3092720D2092710D82E090E0A1
:104740009093740D8093730D67E576E085E69DE0A8
:104750000E94414E3092720D2092710DC551DE4F74
:1047600048815981CB5ED1405093740D4093730DB5
:104770006DE575E085E69DE00E94414E3092720D38
:104780002092710DC752DE4F88819981C95DD14059
:104790009093740D8093730D6BE676E085E69DE053
:1047A0000E94414E3092720D2092710DC152DE4F27
:1047B000A881B981CF5DD140B093740DA093730DE2
:1047C00064E776E085E69DE00E94414E3092720DEE
:1047D0002092710D5092740D4092730D6CE776E04B
:1047E00085E69DE00E94414E80EE97E09093780D23
:1047F0008093770D9093760D8093750DC951DE4FA0
:1048000028813981C75ED1403093720D2093710D9C
:10481000C551DE4F48815981CB5ED1405093740D14
:104820004093730DBE0167537F4F85E69DE00E9464
:10483000414EC951DE4F88819981C75ED140909326
:10484000720D8093710DC752DE4FA881B981C95D89
:10485000D140B093740DA093730DBE016B547F4F84
:1048600085E69DE00E94414EC951DE4F2881398185
:10487000C75ED1403093720D2093710DC152DE4F4F
:1048800048815981CF5DD1405093740D4093730D91
:10489000BE016F557F4F85E69DE00E94414EC501E8
:1048A000B4010E9464906B017C0120E030E040E0A4
:1048B0005EE36091320A7091330A8091340A9091DC
:1048C000350A0E94C3909B01AC01C701B6010E944A
:1048D000EA910E9419937093720D6093710D50923A
:1048E000740D4092730DBE016B5A7E4F85E69DE0BC
:1048F0000E94424E8E010F5F1F4FB801CE01835DB3
:104900009E4F70D2CE01835D9E4FCBD2C751DE4FFA
:1049100088819981C95ED1400E94244C005F1F4F5D
:10492000CB52DE4F88819981C55DD14008171907A8
:1049300021F7A2D38823E9F3DE0111966D0103E686
:1049400010E0E12CF12CB601CE01835D9E4F4AD2DE
:10495000B701CE01835D9E4F71D2282FC751DE4F24
:1049600088819981C95ED140C050DE4F2883C050F4
:10497000D2400E94244CC050DE4F2881C050D2400B
:1049800021118701BFEFEB1AFB0A20E1C20ED11CF7
:1049900035E0E316F104B9F60230110509F4ADC0B3
:1049A0000CF049C00115110509F466C0013011056C
:1049B00009F0BFCF6CE776E0CE018D5B9E4F0E9481
:1049C0009C4CBE016D5B7E4FCE01835C9E4F0E946E
:1049D000834CCE01835C9E4F0E947B5E6CEA7DE03F
:1049E0000E94C04BBC01CE01835D9E4F0E94834C50
:1049F0006BE676E0CE01875B9E4F0E949C4C43E0C5
:104A000050E0BE01635D7E4FCE01875B9E4FC5D3F4
:104A10002091000230910102409102025091030264
:104A20000E94B192609394097093950980939609BE
:104A300090939709A0C00330110509F4B1C0043068
:104A4000110509F076CFCE01855A9E4F0E946C3039
:104A500088E7FE01E55AFE4FA6E8B9E001900D9205
:104A60008A95E1F762E370E080E090E00E94714F88
:104A70008E010F5A1F4F32C16CE776E0CE018D5B7D
:104A80009E4F0E949C4CBE016D5B7E4FCE01835CAD
:104A90009E4F0E94834CCE01835C9E4F0E947B5EA2
:104AA0006CEA7DE00E94C04BBC01CE01835D9E4F4D
:104AB0000E94834C6DE575E0CE01875B9E4F0E949E
:104AC0009C4C43E050E0BE01635D7E4FCE01875BAE
:104AD0009E4F63D320910002309101024091020267
:104AE000509103020E94B1926093900970939109D2
:104AF00080939209909393093EC06CE776E0CE01D3
:104B00008D5B9E4F0E949C4CBE016D5B7E4FCE0123
:104B1000835C9E4F0E94834CCE01835C9E4F0E941B
:104B20007B5E60EA7DE00E94C04BBC01CE01835DEC
:104B30009E4F0E94834C64E776E0CE01875B9E4FD8
:104B40000E949C4C44E050E0BE01635D7E4FCE016C
:104B5000875B9E4F22D3209106023091070240913D
:104B60000802509109020E94B1920E941993709319
:104B70008F0960938E09CE01875B9E4F0E94244C63
:104B8000CE01835D9E4F0E94244CCE01835C9E4FDC
:104B90000E94244CCE018D5B9E4F0E94244C9BC0F2
:104BA000C75ADE4F88819981C955D140892B09F4B4
:104BB00052C063E176E0CB5ADE4F88819981C555BA
:104BC000D1400E947596892B09F045C06CE176E0D2
:104BD000CE018B5A9E4F0E940F4C63E176E0CE01CE
:104BE000815B9E4F0E940F4C61E876E08CEA9DE06D
:104BF0000E940F4C65E876E086EA9DE00E940F4C2B
:104C000085E892E4A1E2BDE3809300029093010263
:104C1000A0930202B09303026CE876E080EA9DE084
:104C20000E940F4C61E976E08AE99DE00E940F4CFA
:104C300088E79BE7A0E1BDE380930602909307021B
:104C4000A0930802B093090281E090E09093990943
:104C50008093980940C063E176E0CE018B5A9E4F65
:104C60000E940F4C6CE176E0CE01815B9E4F0E946A
:104C70000F4C68E976E08CEA9DE00E940F4C6BE9EE
:104C800076E086EA9DE00E940F4CC12CD12C80E892
:104C9000E82E8FE3F82EC0920002D0920102E0923B
:104CA0000202F092030262E776E080EA9DE00E9451
:104CB0000F4C61EA76E08AE99DE00E940F4CC092B9
:104CC0000602D0920702E0920802F09209021092C6
:104CD0009909109298090E94842F2ECC0051110935
:104CE000C80104960E94244CC952DE4F4881598164
:104CF000C75DD1400417150789F7CE01815B9E4F30
:104D00000E94244CCE018B5A9E4F0E94244C332487
:104D100033940C943A1200511109C80104960E9470
:104D2000244C0E151F05B9F7DE5F0FB6F894DEBFF1
:104D30000FBECDBFDF91CF911F910F91FF90EF90EC
:104D4000DF90CF90BF90AF909F908F907F906F90AB
:104D50005F904F903F902F900895EF92FF920F93A6
:104D60001F93DC01ED91FC9111971A960D911C9106
:104D70001B9718962D913C91199700A0F1A1E02D59
:104D80007B0140E050E060E070E019951F910F91C9
:104D9000FF90EF900895EF92FF920F931F93DC0125
:104DA000ED91FC9100A0F1A1E02D780101E010E06F
:104DB00019951F910F91FF90EF900895EF92FF9238
:104DC0000F931F93DC01ED91FC9100A0F1A1E02D68
:104DD0007801890121E030E019951F910F91FF9032
:104DE000EF9008950F931F93CF93DF93EC018B0106
:104DF000FB018081918199838883828193819B8348
:104E00008A836C5F7F4FCE0104960E94834CF80129
:104E1000828593859B878A87848595859D878C87E6
:104E2000868597859F878E87DF91CF911F910F9100
:104E3000089562ED72E004960C949C4CDC01209184
:104E40006609309167091C964D915C911D97421738
:104E500053072CF58D919C9111976CE0689FF001A0
:104E6000699FF00D1124E65FFD4F82819381840FCD
:104E7000951F281739079CF44091680950916909DA
:104E80001E962D913C911F972417350744F480817D
:104E90009181280F391F81E0421753070CF080E001
:104EA00008952F923F924F925F926F927F928F92CE
:104EB0009F92AF92BF92CF92DF92EF92FF920F93A9
:104EC0001F93CF93DF9300D000D0CDB7DEB76C0136
:104ED000DC0112964D905C9013978D919C911197E7
:104EE0002CE0289FF001299FF00D1124E65FFD4F73
:104EF0008285938560807180A280B3801E96ED913B
:104F0000FC911F97FA83E9831C962D913C911D9784
:104F10003C832B83A614B70424F49501B7FE06C086
:104F200003C0930177FE02C02F5F3F4F3595279551
:104F30003E832D838217930714F49E838D838D8087
:104F40009E80919481949108880C991C2B803C80C0
:104F50008D819E81280E391E9501280D391D720103
:104F6000830149815A81B10185E69DE00E94C346D3
:104F7000860C971C91E0891A910869807A80AD812E
:104F8000BE816A0E7B1EEB81FC81AE0EBF1EC50189
:104F90008A1B9B0B840121E0AD01B30101970E94A4
:104FA0005B5D22E04D815E81B301C1010E945B5DCA
:104FB000D6012D913C918CE0829FF001839FF00DF2
:104FC0001124E65FFD4F8481882311F0982F01C0E2
:104FD00091E09093790D811101C081E080937A0D69
:104FE0008CE0829FF001839FF00D1124E65FFD4F5E
:104FF000D6011E962D913C911F9780859185820F39
:10500000931F1C964D915C911D9726813781240F2B
:10501000351F3093720D2093710D9093740D809312
:10502000730D1A968D919C911B979093780D809398
:10503000770D9093760D8093750DB6016C5F7F4F61
:1050400085E69DE026960FB6F894DEBF0FBECDBF75
:10505000DF91CF911F910F91FF90EF90DF90CF9054
:10506000BF90AF909F908F907F906F905F904F9088
:105070003F902F900C94504ECF92DF92EF92FF9280
:105080000F931F93CF93DF9300D000D0CDB7DEB73F
:1050900061E08DE00E94E74E0E94966D29833A837D
:1050A0004B835C836D837E83C980DA80EB80FC80D8
:1050B00060E08DE00E94E74E61E088E30E94164FB9
:1050C00061E089E30E94164FC6010D2C000CAA0B6B
:1050D000BB0B9C01AD012059334041095109A091FE
:1050E0006D0DB0916E0D0E94B3912CEF3CEF4FEF20
:1050F0005FEF0E948D9130936709209366090091BC
:105100006F0D1091700DC7010F2C000CAA0BBB0B7B
:105110009C01AD012C58334041095109D8010E942E
:10512000B39128EF3CEF4FEF5FEF0E948D91021B90
:10513000130B10936909009368098D819E819093E8
:105140006509809364094F97C4F066EA76E086EEBD
:105150009BE00E94414EC6010E94626D60E878E0CB
:1051600086EE9BE00E94414E4AE050E0B70186EE99
:105170009BE00E94004E81E001C080E026960FB6C1
:10518000F894DEBF0FBECDBFDF91CF911F910F917D
:10519000FF90EF90DF90CF9008952F923F924F9223
:1051A0005F926F927F928F929F92AF92BF92CF92B7
:1051B000DF92EF92FF920F931F93CF93DF93CDB7C0
:1051C000DEB7C053D1400FB6F894DEBF0FBECDBFDF
:1051D000C35DDE4F99838883CD52D140C15DDE4FE0
:1051E00079836883CF52D140C95EDE4F59834883AB
:1051F000C751D14060916F0D7091700D072E000C5A
:10520000880B990B0E9464906B017C012DEC3CECA7
:105210004CEC5EE30E94C390C55FDE4F68837983E8
:105220008A839B83CB50D1402AE939E949E15FE386
:10523000C701B6010E94C39020E030E040E85EE381
:105240000E94C3900E941993072E000C880B990BA3
:105250000E9464906B017C019B01AC01C55FDE4F35
:10526000688179818A819B81CB50D1400E94EB91EA
:10527000C75EDE4F688379838A839B83C951D1409F
:10528000A70196010E94EB91C35EDE4F688379838C
:105290008A839B83CD51D140A70196010E94EB9157
:1052A000CD5EDE4F688379838A839B83C351D1406F
:1052B00060916D0D70916E0D072E000C880B990B8F
:1052C0000E9464906B017C012DEC3CEC4CEC5DE3A6
:1052D0000E94C390C95FDE4F688379838A839B8372
:1052E000C750D1402DEC3CEC4CE45FE3C701B60164
:1052F0000E94C39020E030E040E450E40E94B1926C
:105300000E941993072E000C880B990B0E94649041
:105310004B015C019B01AC01C95FDE4F6881798163
:105320008A819B81C750D1400E94EB916B017C0127
:10533000A50194010E94EB91C75DDE4F68837983DC
:105340008A839B83C952D1402CEE31E548E35EE36A
:105350006091320A7091330A8091340A9091350A33
:105360000E94C3900E941993CF5DDE4F79836883BA
:10537000C152D1402EEA37E441E65EE360912E0A45
:1053800070912F0A8091300A9091310A0E94C39047
:105390000E941993CB5DDE4F688379838A839B8358
:1053A000C552D140CB5DDE4F28813981C552D140F5
:1053B000CD5DDE4F39832883C352D1401E0131EECB
:1053C000230E311C8E010F5F1F4FC80132DD005FBD
:1053D0001F4F02151305C9F744E0842E912CD80104
:1053E00011969C928E925CE3652E57EE752E139665
:1053F0007C926E9212971801B4E02B0E311C6FE470
:1054000074E0C1010E949C4CAA24AA94BA2CF80111
:10541000B386A286C701B6010E941993C15FDE4F11
:10542000688379838A839B83CF50D140C15FDE4FED
:10543000E881F981CF50D140D8011D96FC93EE93BD
:105440001C97CD5EDE4F688179818A819B81C35133
:10545000D1400E941993CD5EDE4F688379838A83A1
:105460009B83C351D140CD5EDE4FE881F981C351AA
:10547000D140D8011F96FC93EE931E97B8019E0170
:105480002F5F3F4FCB5FDE4F39832883C550D1401C
:10549000C9010E94295EC1010E94244CD8011196C5
:1054A0009C928E9213967C926E9212976DE574E0A8
:1054B000C1010E949C4CF801B386A286C95FDE4FF1
:1054C000688179818A819B81C750D1400E9419935C
:1054D000C95FDE4F688379838A839B83C750D1403D
:1054E000C95FDE4FE881F981C750D140D8011D96D0
:1054F000FC93EE931C97C55FDE4F688179818A81AA
:105500009B81CB50D1400E9419936B017C01D80143
:105510001F967C936E931E97B801CE0141960E9410
:10552000295EC1010E94244CF8019182808273821D
:1055300062826FEA76E0C1010E949C4CD8011B9602
:10554000BC92AE921A97C15FDE4FE881F981CF50CD
:10555000D1401D96FC93EE931C971F96DC92CE9241
:105560001E97B801CE0181960E94295EC1010E945A
:10557000244CD80111969C928E9213967C926E9236
:10558000129762EB76E0C1010E949C4CF801B38651
:10559000A286C75DDE4F688179818A819B81C9526D
:1055A000D1400E941993C55FDE4F688379838A8357
:1055B0009B83CB50D140C55FDE4FE881F981CB5052
:1055C000D140D8011D96FC93EE931C971F96DC9258
:1055D000CE921E97B801CE01C1960E94295EC101EC
:1055E0000E94244CD80111969C928E9213967C9224
:1055F0006E92129765EB76E0C1010E949C4CF80117
:10560000B386A286C95FDE4F28813981C750D14059
:1056100035872487C75EDE4F688179818A819B81C7
:10562000C951D1400E9419936B017C01D8011F968A
:105630007C936E931E97B801CE018F5B9F4F0E94A3
:10564000295EC1010E94244CF801918280827382FC
:10565000628268EB76E0C1010E949C4CD8011B96E7
:10566000BC92AE921A97C15FDE4FE881F981CF50AC
:10567000D1401D96FC93EE931C971F96DC92CE9220
:105680001E97B801CE018F5A9F4F0E94295EC1011B
:105690000E94244CD80111969C928E9213967C9273
:1056A0006E9212976BEB76E0C1010E949C4CF80160
:1056B000B386A286C55FDE4F28813981CB50D140A9
:1056C00035872487D786C686B801CE018F599F4F6C
:1056D0000E94295EC1010E94244CD80111969C921F
:1056E0008E9213967C926E9212976EEB76E0C101C9
:1056F0000E949C4CF801B386A286C95FDE4F2881C8
:105700003981C750D14035872487C35EDE4F688119
:1057100079818A819B81CD51D1400E9419936B017F
:105720007C01D8011F967C936E931E97B801CE0121
:105730008F589F4F0E94295EC1010E94244CF8019E
:10574000918280827382628261EC76E0C1010E9464
:105750009C4CD8011B96BC92AE921A97C15FDE4F4B
:10576000E881F981CF50D1401D96FC93EE931C97B0
:105770001F96DC92CE921E97B801CE018F579F4F95
:105780000E94295EC1010E94244CD80111969C926E
:105790008E9213967C926E92129764EC76E0C10121
:1057A0000E949C4CF801B386A286C55FDE4F28811B
:1057B0003981CB50D14035872487D786C686B8013A
:1057C000CE018F569F4F0E94295EC1010E94244C3A
:1057D000D80111969C928E9213967C926E9212979B
:1057E00067EC76E0C1010E949C4CF801B386A2866A
:1057F000C95FDE4F28813981C750D1403587248762
:10580000CD5EDE4F88819981C351D14097878687CD
:10581000B801CE018F559F4F0E94295EC1010E94A1
:10582000244C85E090E0D80111969C938E9380E003
:1058300098EF13969C938E9312976AEC76E0C101D1
:105840000E949C4CF801B386A28624E13EEA47E41C
:105850005FE36091320A7091330A8091340A90912B
:10586000350A0E94C3900E941993D8011D967C931B
:105870006E931C97CB5DDE4FE881F981C552D14014
:10588000BF01FF0F880B990B0E94649026E636E655
:1058900046E65FE30E94C3900E941993D8011F96C9
:1058A0007C936E931E97B801CE018F549F4F0E9438
:1058B000295EC1010E94244CF8019182808280EE11
:1058C00097E0938382836EEC76E0C1010E949C4C4A
:1058D000D8011B96BC92AE921A97C55FDE4FE88145
:1058E000F981CB50D1401D96FC93EE931C97CD5E71
:1058F000DE4F28813981C351D1401F963C932E93AE
:105900001E97B801CE018F539F4F0E94295EC1019F
:105910000E94244CC95EDE4F3881C751D140C95F17
:10592000DE4F3883C750D1408E0105501F4F20E015
:10593000432F60E070E0CB010E949D8DB801CE0145
:105940008F509F4F0E947E9660E070E085E69DE05C
:1059500004DAB092780DA092770DB092760DA092F5
:10596000750D2DEC3CEC4CE45EE36091320A7091D5
:10597000330A8091340A9091350A0E94C3900E94A4
:1059800019937093720D6093710D81E090E0909384
:10599000740D8093730D83E08093790D80937A0D5D
:1059A000C35DDE4F68817981CD52D14085E69DE0AF
:1059B0000E94504E82E08093790D80937A0D2CEEF8
:1059C00031E548EB5DE360912E0A70912F0A8091DA
:1059D000300A9091310A0E94C3900E9419936B0182
:1059E0007C012DEC3CEC4CE45EE36091320A70915A
:1059F000330A8091340A9091350A0E94C3900E9424
:105A000019937093720D6093710DD092740DC092C2
:105A1000730DC15DDE4F68817981CF52D14085E63B
:105A20009DE00E94504E84E08093790D80937A0D22
:105A30000A521109CE0101966C0171EEE72EF12C8C
:105A4000EC0EFD1E94E0E90EF11CB601CE018F5163
:105A50009F4FC8D9CE018F519F4F23DAC7010E94B3
:105A6000244CA0E1CA0ED11CC016D10671F7412CFE
:105A7000512C3201C12CE12CF12C10E0DD24D39407
:105A800030EE232E37E0332EE1EEF0E0EC0FFD1F79
:105A90003496C55FDE4FF983E883CB50D140C95EB1
:105AA000DE4FF881C751D140FE5FCD5EDE4FF883F7
:105AB000C351D140C95EDE4F28813981C751D140E1
:105AC0002F5F3F4FC75EDE4F39832883C951D140D6
:105AD000DD2009F44BC084E08093790D80937A0D2A
